{
	"AdvContract.sol": {
		"AdvContract": {
			"abi": [
				{
					"inputs": [],
					"stateMutability": "nonpayable",
					"type": "constructor"
				},
				{
					"anonymous": false,
					"inputs": [
						{
							"indexed": true,
							"internalType": "address",
							"name": "owner",
							"type": "address"
						},
						{
							"indexed": true,
							"internalType": "address",
							"name": "spender",
							"type": "address"
						},
						{
							"indexed": false,
							"internalType": "uint256",
							"name": "value",
							"type": "uint256"
						}
					],
					"name": "Approval",
					"type": "event"
				},
				{
					"anonymous": false,
					"inputs": [
						{
							"indexed": true,
							"internalType": "uint256",
							"name": "proposalId",
							"type": "uint256"
						},
						{
							"indexed": false,
							"internalType": "string",
							"name": "description",
							"type": "string"
						},
						{
							"indexed": false,
							"internalType": "uint256",
							"name": "duration",
							"type": "uint256"
						}
					],
					"name": "ProposalCreated",
					"type": "event"
				},
				{
					"anonymous": false,
					"inputs": [
						{
							"indexed": true,
							"internalType": "uint256",
							"name": "proposalId",
							"type": "uint256"
						}
					],
					"name": "ProposalExecuted",
					"type": "event"
				},
				{
					"anonymous": false,
					"inputs": [
						{
							"indexed": true,
							"internalType": "address",
							"name": "from",
							"type": "address"
						},
						{
							"indexed": true,
							"internalType": "address",
							"name": "to",
							"type": "address"
						},
						{
							"indexed": false,
							"internalType": "uint256",
							"name": "value",
							"type": "uint256"
						}
					],
					"name": "Transfer",
					"type": "event"
				},
				{
					"anonymous": false,
					"inputs": [
						{
							"indexed": true,
							"internalType": "address",
							"name": "voter",
							"type": "address"
						},
						{
							"indexed": true,
							"internalType": "uint256",
							"name": "proposalId",
							"type": "uint256"
						}
					],
					"name": "Voted",
					"type": "event"
				},
				{
					"inputs": [],
					"name": "MIN_PROPOSAL_DURATION",
					"outputs": [
						{
							"internalType": "uint256",
							"name": "",
							"type": "uint256"
						}
					],
					"stateMutability": "view",
					"type": "function"
				},
				{
					"inputs": [],
					"name": "TOTAL_SUPPLY",
					"outputs": [
						{
							"internalType": "uint256",
							"name": "",
							"type": "uint256"
						}
					],
					"stateMutability": "view",
					"type": "function"
				},
				{
					"inputs": [],
					"name": "VOTE_THRESHOLD",
					"outputs": [
						{
							"internalType": "uint256",
							"name": "",
							"type": "uint256"
						}
					],
					"stateMutability": "view",
					"type": "function"
				},
				{
					"inputs": [
						{
							"internalType": "address",
							"name": "_owner",
							"type": "address"
						},
						{
							"internalType": "address",
							"name": "spender",
							"type": "address"
						}
					],
					"name": "allowance",
					"outputs": [
						{
							"internalType": "uint256",
							"name": "",
							"type": "uint256"
						}
					],
					"stateMutability": "view",
					"type": "function"
				},
				{
					"inputs": [
						{
							"internalType": "address",
							"name": "spender",
							"type": "address"
						},
						{
							"internalType": "uint256",
							"name": "amount",
							"type": "uint256"
						}
					],
					"name": "approve",
					"outputs": [
						{
							"internalType": "bool",
							"name": "",
							"type": "bool"
						}
					],
					"stateMutability": "nonpayable",
					"type": "function"
				},
				{
					"inputs": [
						{
							"internalType": "address",
							"name": "account",
							"type": "address"
						}
					],
					"name": "balanceOf",
					"outputs": [
						{
							"internalType": "uint256",
							"name": "",
							"type": "uint256"
						}
					],
					"stateMutability": "view",
					"type": "function"
				},
				{
					"inputs": [
						{
							"internalType": "uint256",
							"name": "amount",
							"type": "uint256"
						}
					],
					"name": "burn",
					"outputs": [],
					"stateMutability": "nonpayable",
					"type": "function"
				},
				{
					"inputs": [
						{
							"internalType": "string",
							"name": "description",
							"type": "string"
						},
						{
							"internalType": "uint256",
							"name": "duration",
							"type": "uint256"
						}
					],
					"name": "createProposal",
					"outputs": [],
					"stateMutability": "nonpayable",
					"type": "function"
				},
				{
					"inputs": [],
					"name": "decimals",
					"outputs": [
						{
							"internalType": "uint8",
							"name": "",
							"type": "uint8"
						}
					],
					"stateMutability": "view",
					"type": "function"
				},
				{
					"inputs": [
						{
							"internalType": "uint256",
							"name": "proposalId",
							"type": "uint256"
						}
					],
					"name": "executeProposal",
					"outputs": [],
					"stateMutability": "nonpayable",
					"type": "function"
				},
				{
					"inputs": [],
					"name": "getProposalCount",
					"outputs": [
						{
							"internalType": "uint256",
							"name": "",
							"type": "uint256"
						}
					],
					"stateMutability": "view",
					"type": "function"
				},
				{
					"inputs": [
						{
							"internalType": "uint256",
							"name": "proposalId",
							"type": "uint256"
						}
					],
					"name": "getProposalDetails",
					"outputs": [
						{
							"internalType": "uint256",
							"name": "id",
							"type": "uint256"
						},
						{
							"internalType": "string",
							"name": "description",
							"type": "string"
						},
						{
							"internalType": "uint256",
							"name": "voteCount",
							"type": "uint256"
						},
						{
							"internalType": "uint256",
							"name": "endTime",
							"type": "uint256"
						},
						{
							"internalType": "bool",
							"name": "executed",
							"type": "bool"
						}
					],
					"stateMutability": "view",
					"type": "function"
				},
				{
					"inputs": [
						{
							"internalType": "uint256",
							"name": "",
							"type": "uint256"
						},
						{
							"internalType": "address",
							"name": "",
							"type": "address"
						}
					],
					"name": "hasVoted",
					"outputs": [
						{
							"internalType": "bool",
							"name": "",
							"type": "bool"
						}
					],
					"stateMutability": "view",
					"type": "function"
				},
				{
					"inputs": [
						{
							"internalType": "address",
							"name": "to",
							"type": "address"
						},
						{
							"internalType": "uint256",
							"name": "amount",
							"type": "uint256"
						}
					],
					"name": "mint",
					"outputs": [],
					"stateMutability": "nonpayable",
					"type": "function"
				},
				{
					"inputs": [],
					"name": "name",
					"outputs": [
						{
							"internalType": "string",
							"name": "",
							"type": "string"
						}
					],
					"stateMutability": "view",
					"type": "function"
				},
				{
					"inputs": [],
					"name": "owner",
					"outputs": [
						{
							"internalType": "address",
							"name": "",
							"type": "address"
						}
					],
					"stateMutability": "view",
					"type": "function"
				},
				{
					"inputs": [
						{
							"internalType": "uint256",
							"name": "",
							"type": "uint256"
						}
					],
					"name": "proposals",
					"outputs": [
						{
							"internalType": "uint256",
							"name": "id",
							"type": "uint256"
						},
						{
							"internalType": "string",
							"name": "description",
							"type": "string"
						},
						{
							"internalType": "uint256",
							"name": "voteCount",
							"type": "uint256"
						},
						{
							"internalType": "uint256",
							"name": "endTime",
							"type": "uint256"
						},
						{
							"internalType": "bool",
							"name": "executed",
							"type": "bool"
						}
					],
					"stateMutability": "view",
					"type": "function"
				},
				{
					"inputs": [],
					"name": "symbol",
					"outputs": [
						{
							"internalType": "string",
							"name": "",
							"type": "string"
						}
					],
					"stateMutability": "view",
					"type": "function"
				},
				{
					"inputs": [],
					"name": "totalProposals",
					"outputs": [
						{
							"internalType": "uint256",
							"name": "",
							"type": "uint256"
						}
					],
					"stateMutability": "view",
					"type": "function"
				},
				{
					"inputs": [
						{
							"internalType": "address",
							"name": "recipient",
							"type": "address"
						},
						{
							"internalType": "uint256",
							"name": "amount",
							"type": "uint256"
						}
					],
					"name": "transfer",
					"outputs": [
						{
							"internalType": "bool",
							"name": "",
							"type": "bool"
						}
					],
					"stateMutability": "nonpayable",
					"type": "function"
				},
				{
					"inputs": [
						{
							"internalType": "address",
							"name": "sender",
							"type": "address"
						},
						{
							"internalType": "address",
							"name": "recipient",
							"type": "address"
						},
						{
							"internalType": "uint256",
							"name": "amount",
							"type": "uint256"
						}
					],
					"name": "transferFrom",
					"outputs": [
						{
							"internalType": "bool",
							"name": "",
							"type": "bool"
						}
					],
					"stateMutability": "nonpayable",
					"type": "function"
				},
				{
					"inputs": [
						{
							"internalType": "address",
							"name": "newOwner",
							"type": "address"
						}
					],
					"name": "transferOwnership",
					"outputs": [],
					"stateMutability": "nonpayable",
					"type": "function"
				},
				{
					"inputs": [
						{
							"internalType": "uint256",
							"name": "proposalId",
							"type": "uint256"
						}
					],
					"name": "vote",
					"outputs": [],
					"stateMutability": "nonpayable",
					"type": "function"
				},
				{
					"inputs": [
						{
							"internalType": "address",
							"name": "",
							"type": "address"
						}
					],
					"name": "voters",
					"outputs": [
						{
							"internalType": "uint256",
							"name": "weight",
							"type": "uint256"
						},
						{
							"internalType": "bool",
							"name": "voted",
							"type": "bool"
						},
						{
							"internalType": "uint256",
							"name": "vote",
							"type": "uint256"
						}
					],
					"stateMutability": "view",
					"type": "function"
				}
			],
			"devdoc": {
				"details": "Комбинира ERC20 токен с система за гласуване",
				"kind": "dev",
				"methods": {},
				"title": "Advanced Token and Voting System",
				"version": 1
			},
			"evm": {
				"assembly": "    /* \"AdvContract.sol\":201:7097  contract AdvContract {... */\n  mstore(0x40, 0x80)\n    /* \"AdvContract.sol\":1250:1287  string public name = \"Advanced Token\" */\n  mload(0x40)\n  dup1\n  0x40\n  add\n  0x40\n  mstore\n  dup1\n  0x0e\n  dup2\n  mstore\n  0x20\n  add\n  0x416476616e63656420546f6b656e000000000000000000000000000000000000\n  dup2\n  mstore\n  pop\n  0x00\n  swap1\n  dup2\n  tag_1\n  swap2\n  swap1\n  tag_2\n  jump\t// in\ntag_1:\n  pop\n    /* \"AdvContract.sol\":1294:1322  string public symbol = \"ADV\" */\n  mload(0x40)\n  dup1\n  0x40\n  add\n  0x40\n  mstore\n  dup1\n  0x03\n  dup2\n  mstore\n  0x20\n  add\n  0x4144560000000000000000000000000000000000000000000000000000000000\n  dup2\n  mstore\n  pop\n  0x01\n  swap1\n  dup2\n  tag_3\n  swap2\n  swap1\n  tag_2\n  jump\t// in\ntag_3:\n  pop\n    /* \"AdvContract.sol\":1353:1355  18 */\n  0x12\n    /* \"AdvContract.sol\":1329:1355  uint8 public decimals = 18 */\n  0x02\n  exp(0x0100, 0x00)\n  dup2\n  sload\n  dup2\n  0xff\n  mul\n  not\n  and\n  swap1\n  dup4\n  0xff\n  and\n  mul\n  or\n  swap1\n  sstore\n  pop\n    /* \"AdvContract.sol\":2285:2445  constructor() {... */\n  callvalue\n  dup1\n  iszero\n  tag_4\n  jumpi\n  0x00\n  dup1\n  revert\ntag_4:\n  pop\n    /* \"AdvContract.sol\":2318:2328  msg.sender */\n  caller\n    /* \"AdvContract.sol\":2310:2315  owner */\n  0x08\n  0x00\n    /* \"AdvContract.sol\":2310:2328  owner = msg.sender */\n  0x0100\n  exp\n  dup2\n  sload\n  dup2\n  0xffffffffffffffffffffffffffffffffffffffff\n  mul\n  not\n  and\n  swap1\n  dup4\n  0xffffffffffffffffffffffffffffffffffffffff\n  and\n  mul\n  or\n  swap1\n  sstore\n  pop\n    /* \"AdvContract.sol\":999:1017  1_000_000 * 10**18 */\n  0xd3c21bcecceda1000000\n    /* \"AdvContract.sol\":2339:2348  _balances */\n  0x03\n    /* \"AdvContract.sol\":2339:2360  _balances[msg.sender] */\n  0x00\n    /* \"AdvContract.sol\":2349:2359  msg.sender */\n  caller\n    /* \"AdvContract.sol\":2339:2360  _balances[msg.sender] */\n  0xffffffffffffffffffffffffffffffffffffffff\n  and\n  0xffffffffffffffffffffffffffffffffffffffff\n  and\n  dup2\n  mstore\n  0x20\n  add\n  swap1\n  dup2\n  mstore\n  0x20\n  add\n  0x00\n  keccak256\n    /* \"AdvContract.sol\":2339:2375  _balances[msg.sender] = TOTAL_SUPPLY */\n  dup2\n  swap1\n  sstore\n  pop\n    /* \"AdvContract.sol\":2412:2422  msg.sender */\n  caller\n    /* \"AdvContract.sol\":2391:2437  Transfer(address(0), msg.sender, TOTAL_SUPPLY) */\n  0xffffffffffffffffffffffffffffffffffffffff\n  and\n    /* \"AdvContract.sol\":2408:2409  0 */\n  0x00\n    /* \"AdvContract.sol\":2391:2437  Transfer(address(0), msg.sender, TOTAL_SUPPLY) */\n  0xffffffffffffffffffffffffffffffffffffffff\n  and\n  0xddf252ad1be2c89b69c2b068fc378daa952ba7f163c4a11628f55a4df523b3ef\n    /* \"AdvContract.sol\":999:1017  1_000_000 * 10**18 */\n  0xd3c21bcecceda1000000\n    /* \"AdvContract.sol\":2391:2437  Transfer(address(0), msg.sender, TOTAL_SUPPLY) */\n  mload(0x40)\n  tag_7\n  swap2\n  swap1\n  tag_8\n  jump\t// in\ntag_7:\n  mload(0x40)\n  dup1\n  swap2\n  sub\n  swap1\n  log3\n    /* \"AdvContract.sol\":201:7097  contract AdvContract {... */\n  jump(tag_9)\n    /* \"#utility.yul\":7:106   */\ntag_10:\n    /* \"#utility.yul\":59:65   */\n  0x00\n    /* \"#utility.yul\":93:98   */\n  dup2\n    /* \"#utility.yul\":87:99   */\n  mload\n    /* \"#utility.yul\":77:99   */\n  swap1\n  pop\n    /* \"#utility.yul\":7:106   */\n  swap2\n  swap1\n  pop\n  jump\t// out\n    /* \"#utility.yul\":112:292   */\ntag_11:\n    /* \"#utility.yul\":160:237   */\n  0x4e487b7100000000000000000000000000000000000000000000000000000000\n    /* \"#utility.yul\":157:158   */\n  0x00\n    /* \"#utility.yul\":150:238   */\n  mstore\n    /* \"#utility.yul\":257:261   */\n  0x41\n    /* \"#utility.yul\":254:255   */\n  0x04\n    /* \"#utility.yul\":247:262   */\n  mstore\n    /* \"#utility.yul\":281:285   */\n  0x24\n    /* \"#utility.yul\":278:279   */\n  0x00\n    /* \"#utility.yul\":271:286   */\n  revert\n    /* \"#utility.yul\":298:478   */\ntag_12:\n    /* \"#utility.yul\":346:423   */\n  0x4e487b7100000000000000000000000000000000000000000000000000000000\n    /* \"#utility.yul\":343:344   */\n  0x00\n    /* \"#utility.yul\":336:424   */\n  mstore\n    /* \"#utility.yul\":443:447   */\n  0x22\n    /* \"#utility.yul\":440:441   */\n  0x04\n    /* \"#utility.yul\":433:448   */\n  mstore\n    /* \"#utility.yul\":467:471   */\n  0x24\n    /* \"#utility.yul\":464:465   */\n  0x00\n    /* \"#utility.yul\":457:472   */\n  revert\n    /* \"#utility.yul\":484:804   */\ntag_13:\n    /* \"#utility.yul\":528:534   */\n  0x00\n    /* \"#utility.yul\":565:566   */\n  0x02\n    /* \"#utility.yul\":559:563   */\n  dup3\n    /* \"#utility.yul\":555:567   */\n  div\n    /* \"#utility.yul\":545:567   */\n  swap1\n  pop\n    /* \"#utility.yul\":612:613   */\n  0x01\n    /* \"#utility.yul\":606:610   */\n  dup3\n    /* \"#utility.yul\":602:614   */\n  and\n    /* \"#utility.yul\":633:651   */\n  dup1\n    /* \"#utility.yul\":623:704   */\n  tag_36\n  jumpi\n    /* \"#utility.yul\":689:693   */\n  0x7f\n    /* \"#utility.yul\":681:687   */\n  dup3\n    /* \"#utility.yul\":677:694   */\n  and\n    /* \"#utility.yul\":667:694   */\n  swap2\n  pop\n    /* \"#utility.yul\":623:704   */\ntag_36:\n    /* \"#utility.yul\":751:753   */\n  0x20\n    /* \"#utility.yul\":743:749   */\n  dup3\n    /* \"#utility.yul\":740:754   */\n  lt\n    /* \"#utility.yul\":720:738   */\n  dup2\n    /* \"#utility.yul\":717:755   */\n  sub\n    /* \"#utility.yul\":714:798   */\n  tag_37\n  jumpi\n    /* \"#utility.yul\":770:788   */\n  tag_38\n  tag_12\n  jump\t// in\ntag_38:\n    /* \"#utility.yul\":714:798   */\ntag_37:\n    /* \"#utility.yul\":535:804   */\n  pop\n    /* \"#utility.yul\":484:804   */\n  swap2\n  swap1\n  pop\n  jump\t// out\n    /* \"#utility.yul\":810:951   */\ntag_14:\n    /* \"#utility.yul\":859:863   */\n  0x00\n    /* \"#utility.yul\":882:885   */\n  dup2\n    /* \"#utility.yul\":874:885   */\n  swap1\n  pop\n    /* \"#utility.yul\":905:908   */\n  dup2\n    /* \"#utility.yul\":902:903   */\n  0x00\n    /* \"#utility.yul\":895:909   */\n  mstore\n    /* \"#utility.yul\":939:943   */\n  0x20\n    /* \"#utility.yul\":936:937   */\n  0x00\n    /* \"#utility.yul\":926:944   */\n  keccak256\n    /* \"#utility.yul\":918:944   */\n  swap1\n  pop\n    /* \"#utility.yul\":810:951   */\n  swap2\n  swap1\n  pop\n  jump\t// out\n    /* \"#utility.yul\":957:1050   */\ntag_15:\n    /* \"#utility.yul\":994:1000   */\n  0x00\n    /* \"#utility.yul\":1041:1043   */\n  0x20\n    /* \"#utility.yul\":1036:1038   */\n  0x1f\n    /* \"#utility.yul\":1029:1034   */\n  dup4\n    /* \"#utility.yul\":1025:1039   */\n  add\n    /* \"#utility.yul\":1021:1044   */\n  div\n    /* \"#utility.yul\":1011:1044   */\n  swap1\n  pop\n    /* \"#utility.yul\":957:1050   */\n  swap2\n  swap1\n  pop\n  jump\t// out\n    /* \"#utility.yul\":1056:1163   */\ntag_16:\n    /* \"#utility.yul\":1100:1108   */\n  0x00\n    /* \"#utility.yul\":1150:1155   */\n  dup3\n    /* \"#utility.yul\":1144:1148   */\n  dup3\n    /* \"#utility.yul\":1140:1156   */\n  shl\n    /* \"#utility.yul\":1119:1156   */\n  swap1\n  pop\n    /* \"#utility.yul\":1056:1163   */\n  swap3\n  swap2\n  pop\n  pop\n  jump\t// out\n    /* \"#utility.yul\":1169:1562   */\ntag_17:\n    /* \"#utility.yul\":1238:1244   */\n  0x00\n    /* \"#utility.yul\":1288:1289   */\n  0x08\n    /* \"#utility.yul\":1276:1286   */\n  dup4\n    /* \"#utility.yul\":1272:1290   */\n  mul\n    /* \"#utility.yul\":1311:1408   */\n  tag_43\n    /* \"#utility.yul\":1341:1407   */\n  0xffffffffffffffffffffffffffffffffffffffffffffffffffffffffffffffff\n    /* \"#utility.yul\":1330:1339   */\n  dup3\n    /* \"#utility.yul\":1311:1408   */\n  tag_16\n  jump\t// in\ntag_43:\n    /* \"#utility.yul\":1429:1468   */\n  tag_44\n    /* \"#utility.yul\":1459:1467   */\n  dup7\n    /* \"#utility.yul\":1448:1457   */\n  dup4\n    /* \"#utility.yul\":1429:1468   */\n  tag_16\n  jump\t// in\ntag_44:\n    /* \"#utility.yul\":1417:1468   */\n  swap6\n  pop\n    /* \"#utility.yul\":1501:1505   */\n  dup1\n    /* \"#utility.yul\":1497:1506   */\n  not\n    /* \"#utility.yul\":1490:1495   */\n  dup5\n    /* \"#utility.yul\":1486:1507   */\n  and\n    /* \"#utility.yul\":1477:1507   */\n  swap4\n  pop\n    /* \"#utility.yul\":1550:1554   */\n  dup1\n    /* \"#utility.yul\":1540:1548   */\n  dup7\n    /* \"#utility.yul\":1536:1555   */\n  and\n    /* \"#utility.yul\":1529:1534   */\n  dup5\n    /* \"#utility.yul\":1526:1556   */\n  or\n    /* \"#utility.yul\":1516:1556   */\n  swap3\n  pop\n    /* \"#utility.yul\":1245:1562   */\n  pop\n  pop\n    /* \"#utility.yul\":1169:1562   */\n  swap4\n  swap3\n  pop\n  pop\n  pop\n  jump\t// out\n    /* \"#utility.yul\":1568:1645   */\ntag_18:\n    /* \"#utility.yul\":1605:1612   */\n  0x00\n    /* \"#utility.yul\":1634:1639   */\n  dup2\n    /* \"#utility.yul\":1623:1639   */\n  swap1\n  pop\n    /* \"#utility.yul\":1568:1645   */\n  swap2\n  swap1\n  pop\n  jump\t// out\n    /* \"#utility.yul\":1651:1711   */\ntag_19:\n    /* \"#utility.yul\":1679:1682   */\n  0x00\n    /* \"#utility.yul\":1700:1705   */\n  dup2\n    /* \"#utility.yul\":1693:1705   */\n  swap1\n  pop\n    /* \"#utility.yul\":1651:1711   */\n  swap2\n  swap1\n  pop\n  jump\t// out\n    /* \"#utility.yul\":1717:1859   */\ntag_20:\n    /* \"#utility.yul\":1767:1776   */\n  0x00\n    /* \"#utility.yul\":1800:1853   */\n  tag_48\n    /* \"#utility.yul\":1818:1852   */\n  tag_49\n    /* \"#utility.yul\":1827:1851   */\n  tag_50\n    /* \"#utility.yul\":1845:1850   */\n  dup5\n    /* \"#utility.yul\":1827:1851   */\n  tag_18\n  jump\t// in\ntag_50:\n    /* \"#utility.yul\":1818:1852   */\n  tag_19\n  jump\t// in\ntag_49:\n    /* \"#utility.yul\":1800:1853   */\n  tag_18\n  jump\t// in\ntag_48:\n    /* \"#utility.yul\":1787:1853   */\n  swap1\n  pop\n    /* \"#utility.yul\":1717:1859   */\n  swap2\n  swap1\n  pop\n  jump\t// out\n    /* \"#utility.yul\":1865:1940   */\ntag_21:\n    /* \"#utility.yul\":1908:1911   */\n  0x00\n    /* \"#utility.yul\":1929:1934   */\n  dup2\n    /* \"#utility.yul\":1922:1934   */\n  swap1\n  pop\n    /* \"#utility.yul\":1865:1940   */\n  swap2\n  swap1\n  pop\n  jump\t// out\n    /* \"#utility.yul\":1946:2215   */\ntag_22:\n    /* \"#utility.yul\":2056:2095   */\n  tag_53\n    /* \"#utility.yul\":2087:2094   */\n  dup4\n    /* \"#utility.yul\":2056:2095   */\n  tag_20\n  jump\t// in\ntag_53:\n    /* \"#utility.yul\":2117:2208   */\n  tag_54\n    /* \"#utility.yul\":2166:2207   */\n  tag_55\n    /* \"#utility.yul\":2190:2206   */\n  dup3\n    /* \"#utility.yul\":2166:2207   */\n  tag_21\n  jump\t// in\ntag_55:\n    /* \"#utility.yul\":2158:2164   */\n  dup5\n    /* \"#utility.yul\":2151:2155   */\n  dup5\n    /* \"#utility.yul\":2145:2156   */\n  sload\n    /* \"#utility.yul\":2117:2208   */\n  tag_17\n  jump\t// in\ntag_54:\n    /* \"#utility.yul\":2111:2115   */\n  dup3\n    /* \"#utility.yul\":2104:2209   */\n  sstore\n    /* \"#utility.yul\":2022:2215   */\n  pop\n    /* \"#utility.yul\":1946:2215   */\n  pop\n  pop\n  pop\n  jump\t// out\n    /* \"#utility.yul\":2221:2294   */\ntag_23:\n    /* \"#utility.yul\":2266:2269   */\n  0x00\n    /* \"#utility.yul\":2221:2294   */\n  swap1\n  jump\t// out\n    /* \"#utility.yul\":2300:2489   */\ntag_24:\n    /* \"#utility.yul\":2377:2409   */\n  tag_58\n  tag_23\n  jump\t// in\ntag_58:\n    /* \"#utility.yul\":2418:2483   */\n  tag_59\n    /* \"#utility.yul\":2476:2482   */\n  dup2\n    /* \"#utility.yul\":2468:2474   */\n  dup5\n    /* \"#utility.yul\":2462:2466   */\n  dup5\n    /* \"#utility.yul\":2418:2483   */\n  tag_22\n  jump\t// in\ntag_59:\n    /* \"#utility.yul\":2353:2489   */\n  pop\n    /* \"#utility.yul\":2300:2489   */\n  pop\n  pop\n  jump\t// out\n    /* \"#utility.yul\":2495:2681   */\ntag_25:\n    /* \"#utility.yul\":2555:2675   */\ntag_61:\n    /* \"#utility.yul\":2572:2575   */\n  dup2\n    /* \"#utility.yul\":2565:2570   */\n  dup2\n    /* \"#utility.yul\":2562:2576   */\n  lt\n    /* \"#utility.yul\":2555:2675   */\n  iszero\n  tag_63\n  jumpi\n    /* \"#utility.yul\":2626:2665   */\n  tag_64\n    /* \"#utility.yul\":2663:2664   */\n  0x00\n    /* \"#utility.yul\":2656:2661   */\n  dup3\n    /* \"#utility.yul\":2626:2665   */\n  tag_24\n  jump\t// in\ntag_64:\n    /* \"#utility.yul\":2599:2600   */\n  0x01\n    /* \"#utility.yul\":2592:2597   */\n  dup2\n    /* \"#utility.yul\":2588:2601   */\n  add\n    /* \"#utility.yul\":2579:2601   */\n  swap1\n  pop\n    /* \"#utility.yul\":2555:2675   */\n  jump(tag_61)\ntag_63:\n    /* \"#utility.yul\":2495:2681   */\n  pop\n  pop\n  jump\t// out\n    /* \"#utility.yul\":2687:3230   */\ntag_26:\n    /* \"#utility.yul\":2788:2790   */\n  0x1f\n    /* \"#utility.yul\":2783:2786   */\n  dup3\n    /* \"#utility.yul\":2780:2791   */\n  gt\n    /* \"#utility.yul\":2777:3223   */\n  iszero\n  tag_66\n  jumpi\n    /* \"#utility.yul\":2822:2860   */\n  tag_67\n    /* \"#utility.yul\":2854:2859   */\n  dup2\n    /* \"#utility.yul\":2822:2860   */\n  tag_14\n  jump\t// in\ntag_67:\n    /* \"#utility.yul\":2906:2935   */\n  tag_68\n    /* \"#utility.yul\":2924:2934   */\n  dup5\n    /* \"#utility.yul\":2906:2935   */\n  tag_15\n  jump\t// in\ntag_68:\n    /* \"#utility.yul\":2896:2904   */\n  dup2\n    /* \"#utility.yul\":2892:2936   */\n  add\n    /* \"#utility.yul\":3089:3091   */\n  0x20\n    /* \"#utility.yul\":3077:3087   */\n  dup6\n    /* \"#utility.yul\":3074:3092   */\n  lt\n    /* \"#utility.yul\":3071:3120   */\n  iszero\n  tag_69\n  jumpi\n    /* \"#utility.yul\":3110:3118   */\n  dup2\n    /* \"#utility.yul\":3095:3118   */\n  swap1\n  pop\n    /* \"#utility.yul\":3071:3120   */\ntag_69:\n    /* \"#utility.yul\":3133:3213   */\n  tag_70\n    /* \"#utility.yul\":3189:3211   */\n  tag_71\n    /* \"#utility.yul\":3207:3210   */\n  dup6\n    /* \"#utility.yul\":3189:3211   */\n  tag_15\n  jump\t// in\ntag_71:\n    /* \"#utility.yul\":3179:3187   */\n  dup4\n    /* \"#utility.yul\":3175:3212   */\n  add\n    /* \"#utility.yul\":3162:3173   */\n  dup3\n    /* \"#utility.yul\":3133:3213   */\n  tag_25\n  jump\t// in\ntag_70:\n    /* \"#utility.yul\":2792:3223   */\n  pop\n  pop\n    /* \"#utility.yul\":2777:3223   */\ntag_66:\n    /* \"#utility.yul\":2687:3230   */\n  pop\n  pop\n  pop\n  jump\t// out\n    /* \"#utility.yul\":3236:3353   */\ntag_27:\n    /* \"#utility.yul\":3290:3298   */\n  0x00\n    /* \"#utility.yul\":3340:3345   */\n  dup3\n    /* \"#utility.yul\":3334:3338   */\n  dup3\n    /* \"#utility.yul\":3330:3346   */\n  shr\n    /* \"#utility.yul\":3309:3346   */\n  swap1\n  pop\n    /* \"#utility.yul\":3236:3353   */\n  swap3\n  swap2\n  pop\n  pop\n  jump\t// out\n    /* \"#utility.yul\":3359:3528   */\ntag_28:\n    /* \"#utility.yul\":3403:3409   */\n  0x00\n    /* \"#utility.yul\":3436:3487   */\n  tag_74\n    /* \"#utility.yul\":3484:3485   */\n  0x00\n    /* \"#utility.yul\":3480:3486   */\n  not\n    /* \"#utility.yul\":3472:3477   */\n  dup5\n    /* \"#utility.yul\":3469:3470   */\n  0x08\n    /* \"#utility.yul\":3465:3478   */\n  mul\n    /* \"#utility.yul\":3436:3487   */\n  tag_27\n  jump\t// in\ntag_74:\n    /* \"#utility.yul\":3432:3488   */\n  not\n    /* \"#utility.yul\":3517:3521   */\n  dup1\n    /* \"#utility.yul\":3511:3515   */\n  dup4\n    /* \"#utility.yul\":3507:3522   */\n  and\n    /* \"#utility.yul\":3497:3522   */\n  swap2\n  pop\n    /* \"#utility.yul\":3410:3528   */\n  pop\n    /* \"#utility.yul\":3359:3528   */\n  swap3\n  swap2\n  pop\n  pop\n  jump\t// out\n    /* \"#utility.yul\":3533:3828   */\ntag_29:\n    /* \"#utility.yul\":3609:3613   */\n  0x00\n    /* \"#utility.yul\":3755:3784   */\n  tag_76\n    /* \"#utility.yul\":3780:3783   */\n  dup4\n    /* \"#utility.yul\":3774:3778   */\n  dup4\n    /* \"#utility.yul\":3755:3784   */\n  tag_28\n  jump\t// in\ntag_76:\n    /* \"#utility.yul\":3747:3784   */\n  swap2\n  pop\n    /* \"#utility.yul\":3817:3820   */\n  dup3\n    /* \"#utility.yul\":3814:3815   */\n  0x02\n    /* \"#utility.yul\":3810:3821   */\n  mul\n    /* \"#utility.yul\":3804:3808   */\n  dup3\n    /* \"#utility.yul\":3801:3822   */\n  or\n    /* \"#utility.yul\":3793:3822   */\n  swap1\n  pop\n    /* \"#utility.yul\":3533:3828   */\n  swap3\n  swap2\n  pop\n  pop\n  jump\t// out\n    /* \"#utility.yul\":3833:5228   */\ntag_2:\n    /* \"#utility.yul\":3950:3987   */\n  tag_78\n    /* \"#utility.yul\":3983:3986   */\n  dup3\n    /* \"#utility.yul\":3950:3987   */\n  tag_10\n  jump\t// in\ntag_78:\n    /* \"#utility.yul\":4052:4070   */\n  0xffffffffffffffff\n    /* \"#utility.yul\":4044:4050   */\n  dup2\n    /* \"#utility.yul\":4041:4071   */\n  gt\n    /* \"#utility.yul\":4038:4094   */\n  iszero\n  tag_79\n  jumpi\n    /* \"#utility.yul\":4074:4092   */\n  tag_80\n  tag_11\n  jump\t// in\ntag_80:\n    /* \"#utility.yul\":4038:4094   */\ntag_79:\n    /* \"#utility.yul\":4118:4156   */\n  tag_81\n    /* \"#utility.yul\":4150:4154   */\n  dup3\n    /* \"#utility.yul\":4144:4155   */\n  sload\n    /* \"#utility.yul\":4118:4156   */\n  tag_13\n  jump\t// in\ntag_81:\n    /* \"#utility.yul\":4203:4270   */\n  tag_82\n    /* \"#utility.yul\":4263:4269   */\n  dup3\n    /* \"#utility.yul\":4255:4261   */\n  dup3\n    /* \"#utility.yul\":4249:4253   */\n  dup6\n    /* \"#utility.yul\":4203:4270   */\n  tag_26\n  jump\t// in\ntag_82:\n    /* \"#utility.yul\":4297:4298   */\n  0x00\n    /* \"#utility.yul\":4321:4325   */\n  0x20\n    /* \"#utility.yul\":4308:4325   */\n  swap1\n  pop\n    /* \"#utility.yul\":4353:4355   */\n  0x1f\n    /* \"#utility.yul\":4345:4351   */\n  dup4\n    /* \"#utility.yul\":4342:4356   */\n  gt\n    /* \"#utility.yul\":4370:4371   */\n  0x01\n    /* \"#utility.yul\":4365:4983   */\n  dup2\n  eq\n  tag_84\n  jumpi\n    /* \"#utility.yul\":5027:5028   */\n  0x00\n    /* \"#utility.yul\":5044:5050   */\n  dup5\n    /* \"#utility.yul\":5041:5118   */\n  iszero\n  tag_85\n  jumpi\n    /* \"#utility.yul\":5093:5102   */\n  dup3\n    /* \"#utility.yul\":5088:5091   */\n  dup8\n    /* \"#utility.yul\":5084:5103   */\n  add\n    /* \"#utility.yul\":5078:5104   */\n  mload\n    /* \"#utility.yul\":5069:5104   */\n  swap1\n  pop\n    /* \"#utility.yul\":5041:5118   */\ntag_85:\n    /* \"#utility.yul\":5144:5211   */\n  tag_86\n    /* \"#utility.yul\":5204:5210   */\n  dup6\n    /* \"#utility.yul\":5197:5202   */\n  dup3\n    /* \"#utility.yul\":5144:5211   */\n  tag_29\n  jump\t// in\ntag_86:\n    /* \"#utility.yul\":5138:5142   */\n  dup7\n    /* \"#utility.yul\":5131:5212   */\n  sstore\n    /* \"#utility.yul\":5000:5222   */\n  pop\n    /* \"#utility.yul\":4335:5222   */\n  jump(tag_83)\n    /* \"#utility.yul\":4365:4983   */\ntag_84:\n    /* \"#utility.yul\":4417:4421   */\n  0x1f\n    /* \"#utility.yul\":4413:4422   */\n  not\n    /* \"#utility.yul\":4405:4411   */\n  dup5\n    /* \"#utility.yul\":4401:4423   */\n  and\n    /* \"#utility.yul\":4451:4488   */\n  tag_87\n    /* \"#utility.yul\":4483:4487   */\n  dup7\n    /* \"#utility.yul\":4451:4488   */\n  tag_14\n  jump\t// in\ntag_87:\n    /* \"#utility.yul\":4510:4511   */\n  0x00\n    /* \"#utility.yul\":4524:4732   */\ntag_88:\n    /* \"#utility.yul\":4538:4545   */\n  dup3\n    /* \"#utility.yul\":4535:4536   */\n  dup2\n    /* \"#utility.yul\":4532:4546   */\n  lt\n    /* \"#utility.yul\":4524:4732   */\n  iszero\n  tag_90\n  jumpi\n    /* \"#utility.yul\":4617:4626   */\n  dup5\n    /* \"#utility.yul\":4612:4615   */\n  dup10\n    /* \"#utility.yul\":4608:4627   */\n  add\n    /* \"#utility.yul\":4602:4628   */\n  mload\n    /* \"#utility.yul\":4594:4600   */\n  dup3\n    /* \"#utility.yul\":4587:4629   */\n  sstore\n    /* \"#utility.yul\":4668:4669   */\n  0x01\n    /* \"#utility.yul\":4660:4666   */\n  dup3\n    /* \"#utility.yul\":4656:4670   */\n  add\n    /* \"#utility.yul\":4646:4670   */\n  swap2\n  pop\n    /* \"#utility.yul\":4715:4717   */\n  0x20\n    /* \"#utility.yul\":4704:4713   */\n  dup6\n    /* \"#utility.yul\":4700:4718   */\n  add\n    /* \"#utility.yul\":4687:4718   */\n  swap5\n  pop\n    /* \"#utility.yul\":4561:4565   */\n  0x20\n    /* \"#utility.yul\":4558:4559   */\n  dup2\n    /* \"#utility.yul\":4554:4566   */\n  add\n    /* \"#utility.yul\":4549:4566   */\n  swap1\n  pop\n    /* \"#utility.yul\":4524:4732   */\n  jump(tag_88)\ntag_90:\n    /* \"#utility.yul\":4760:4766   */\n  dup7\n    /* \"#utility.yul\":4751:4758   */\n  dup4\n    /* \"#utility.yul\":4748:4767   */\n  lt\n    /* \"#utility.yul\":4745:4924   */\n  iszero\n  tag_91\n  jumpi\n    /* \"#utility.yul\":4818:4827   */\n  dup5\n    /* \"#utility.yul\":4813:4816   */\n  dup10\n    /* \"#utility.yul\":4809:4828   */\n  add\n    /* \"#utility.yul\":4803:4829   */\n  mload\n    /* \"#utility.yul\":4861:4909   */\n  tag_92\n    /* \"#utility.yul\":4903:4907   */\n  0x1f\n    /* \"#utility.yul\":4895:4901   */\n  dup10\n    /* \"#utility.yul\":4891:4908   */\n  and\n    /* \"#utility.yul\":4880:4889   */\n  dup3\n    /* \"#utility.yul\":4861:4909   */\n  tag_28\n  jump\t// in\ntag_92:\n    /* \"#utility.yul\":4853:4859   */\n  dup4\n    /* \"#utility.yul\":4846:4910   */\n  sstore\n    /* \"#utility.yul\":4768:4924   */\n  pop\n    /* \"#utility.yul\":4745:4924   */\ntag_91:\n    /* \"#utility.yul\":4970:4971   */\n  0x01\n    /* \"#utility.yul\":4966:4967   */\n  0x02\n    /* \"#utility.yul\":4958:4964   */\n  dup9\n    /* \"#utility.yul\":4954:4968   */\n  mul\n    /* \"#utility.yul\":4950:4972   */\n  add\n    /* \"#utility.yul\":4944:4948   */\n  dup9\n    /* \"#utility.yul\":4937:4973   */\n  sstore\n    /* \"#utility.yul\":4372:4983   */\n  pop\n  pop\n  pop\n    /* \"#utility.yul\":4335:5222   */\ntag_83:\n  pop\n    /* \"#utility.yul\":3925:5228   */\n  pop\n  pop\n  pop\n    /* \"#utility.yul\":3833:5228   */\n  pop\n  pop\n  jump\t// out\n    /* \"#utility.yul\":5234:5352   */\ntag_30:\n    /* \"#utility.yul\":5321:5345   */\n  tag_94\n    /* \"#utility.yul\":5339:5344   */\n  dup2\n    /* \"#utility.yul\":5321:5345   */\n  tag_18\n  jump\t// in\ntag_94:\n    /* \"#utility.yul\":5316:5319   */\n  dup3\n    /* \"#utility.yul\":5309:5346   */\n  mstore\n    /* \"#utility.yul\":5234:5352   */\n  pop\n  pop\n  jump\t// out\n    /* \"#utility.yul\":5358:5580   */\ntag_8:\n    /* \"#utility.yul\":5451:5455   */\n  0x00\n    /* \"#utility.yul\":5489:5491   */\n  0x20\n    /* \"#utility.yul\":5478:5487   */\n  dup3\n    /* \"#utility.yul\":5474:5492   */\n  add\n    /* \"#utility.yul\":5466:5492   */\n  swap1\n  pop\n    /* \"#utility.yul\":5502:5573   */\n  tag_96\n    /* \"#utility.yul\":5570:5571   */\n  0x00\n    /* \"#utility.yul\":5559:5568   */\n  dup4\n    /* \"#utility.yul\":5555:5572   */\n  add\n    /* \"#utility.yul\":5546:5552   */\n  dup5\n    /* \"#utility.yul\":5502:5573   */\n  tag_30\n  jump\t// in\ntag_96:\n    /* \"#utility.yul\":5358:5580   */\n  swap3\n  swap2\n  pop\n  pop\n  jump\t// out\n    /* \"AdvContract.sol\":201:7097  contract AdvContract {... */\ntag_9:\n  dataSize(sub_0)\n  dup1\n  dataOffset(sub_0)\n  0x00\n  codecopy\n  0x00\n  return\nstop\n\nsub_0: assembly {\n        /* \"AdvContract.sol\":201:7097  contract AdvContract {... */\n      mstore(0x40, 0x80)\n      callvalue\n      dup1\n      iszero\n      tag_1\n      jumpi\n      0x00\n      dup1\n      revert\n    tag_1:\n      pop\n      jumpi(tag_2, lt(calldatasize, 0x04))\n      shr(0xe0, calldataload(0x00))\n      dup1\n      0x70a08231\n      gt\n      tag_27\n      jumpi\n      dup1\n      0xa3ec138d\n      gt\n      tag_28\n      jumpi\n      dup1\n      0xa3ec138d\n      eq\n      tag_21\n      jumpi\n      dup1\n      0xa78d80fc\n      eq\n      tag_22\n      jumpi\n      dup1\n      0xa9059cbb\n      eq\n      tag_23\n      jumpi\n      dup1\n      0xc08cc02d\n      eq\n      tag_24\n      jumpi\n      dup1\n      0xdd62ed3e\n      eq\n      tag_25\n      jumpi\n      dup1\n      0xf2fde38b\n      eq\n      tag_26\n      jumpi\n      jump(tag_2)\n    tag_28:\n      dup1\n      0x70a08231\n      eq\n      tag_15\n      jumpi\n      dup1\n      0x8da5cb5b\n      eq\n      tag_16\n      jumpi\n      dup1\n      0x902d55a5\n      eq\n      tag_17\n      jumpi\n      dup1\n      0x944ee22d\n      eq\n      tag_18\n      jumpi\n      dup1\n      0x95d89b41\n      eq\n      tag_19\n      jumpi\n      dup1\n      0xa0ef4d0e\n      eq\n      tag_20\n      jumpi\n      jump(tag_2)\n    tag_27:\n      dup1\n      0x313ce567\n      gt\n      tag_29\n      jumpi\n      dup1\n      0x313ce567\n      eq\n      tag_9\n      jumpi\n      dup1\n      0x35facf78\n      eq\n      tag_10\n      jumpi\n      dup1\n      0x3b4d01a7\n      eq\n      tag_11\n      jumpi\n      dup1\n      0x40c10f19\n      eq\n      tag_12\n      jumpi\n      dup1\n      0x42966c68\n      eq\n      tag_13\n      jumpi\n      dup1\n      0x43859632\n      eq\n      tag_14\n      jumpi\n      jump(tag_2)\n    tag_29:\n      dup1\n      0x0121b93f\n      eq\n      tag_3\n      jumpi\n      dup1\n      0x013cf08b\n      eq\n      tag_4\n      jumpi\n      dup1\n      0x06fdde03\n      eq\n      tag_5\n      jumpi\n      dup1\n      0x095ea7b3\n      eq\n      tag_6\n      jumpi\n      dup1\n      0x0d61b519\n      eq\n      tag_7\n      jumpi\n      dup1\n      0x23b872dd\n      eq\n      tag_8\n      jumpi\n    tag_2:\n      0x00\n      dup1\n      revert\n        /* \"AdvContract.sol\":3992:4437  function vote(uint256 proposalId) public proposalExists(proposalId) activeProposal(proposalId) {... */\n    tag_3:\n      tag_30\n      0x04\n      dup1\n      calldatasize\n      sub\n      dup2\n      add\n      swap1\n      tag_31\n      swap2\n      swap1\n      tag_32\n      jump\t// in\n    tag_31:\n      tag_33\n      jump\t// in\n    tag_30:\n      stop\n        /* \"AdvContract.sol\":1500:1527  Proposal[] public proposals */\n    tag_4:\n      tag_34\n      0x04\n      dup1\n      calldatasize\n      sub\n      dup2\n      add\n      swap1\n      tag_35\n      swap2\n      swap1\n      tag_32\n      jump\t// in\n    tag_35:\n      tag_36\n      jump\t// in\n    tag_34:\n      mload(0x40)\n      tag_37\n      swap6\n      swap5\n      swap4\n      swap3\n      swap2\n      swap1\n      tag_38\n      jump\t// in\n    tag_37:\n      mload(0x40)\n      dup1\n      swap2\n      sub\n      swap1\n      return\n        /* \"AdvContract.sol\":1250:1287  string public name = \"Advanced Token\" */\n    tag_5:\n      tag_39\n      tag_40\n      jump\t// in\n    tag_39:\n      mload(0x40)\n      tag_41\n      swap2\n      swap1\n      tag_42\n      jump\t// in\n    tag_41:\n      mload(0x40)\n      dup1\n      swap2\n      sub\n      swap1\n      return\n        /* \"AdvContract.sol\":2924:3074  function approve(address spender, uint256 amount) public returns (bool) {... */\n    tag_6:\n      tag_43\n      0x04\n      dup1\n      calldatasize\n      sub\n      dup2\n      add\n      swap1\n      tag_44\n      swap2\n      swap1\n      tag_45\n      jump\t// in\n    tag_44:\n      tag_46\n      jump\t// in\n    tag_43:\n      mload(0x40)\n      tag_47\n      swap2\n      swap1\n      tag_48\n      jump\t// in\n    tag_47:\n      mload(0x40)\n      dup1\n      swap2\n      sub\n      swap1\n      return\n        /* \"AdvContract.sol\":4449:5056  function executeProposal(uint256 proposalId) public proposalExists(proposalId) {... */\n    tag_7:\n      tag_49\n      0x04\n      dup1\n      calldatasize\n      sub\n      dup2\n      add\n      swap1\n      tag_50\n      swap2\n      swap1\n      tag_32\n      jump\t// in\n    tag_50:\n      tag_51\n      jump\t// in\n    tag_49:\n      stop\n        /* \"AdvContract.sol\":3086:3339  function transferFrom(address sender, address recipient, uint256 amount) public returns (bool) {... */\n    tag_8:\n      tag_52\n      0x04\n      dup1\n      calldatasize\n      sub\n      dup2\n      add\n      swap1\n      tag_53\n      swap2\n      swap1\n      tag_54\n      jump\t// in\n    tag_53:\n      tag_55\n      jump\t// in\n    tag_52:\n      mload(0x40)\n      tag_56\n      swap2\n      swap1\n      tag_48\n      jump\t// in\n    tag_56:\n      mload(0x40)\n      dup1\n      swap2\n      sub\n      swap1\n      return\n        /* \"AdvContract.sol\":1329:1355  uint8 public decimals = 18 */\n    tag_9:\n      tag_57\n      tag_58\n      jump\t// in\n    tag_57:\n      mload(0x40)\n      tag_59\n      swap2\n      swap1\n      tag_60\n      jump\t// in\n    tag_59:\n      mload(0x40)\n      dup1\n      swap2\n      sub\n      swap1\n      return\n        /* \"AdvContract.sol\":3381:3980  function createProposal(string memory description, uint256 duration) public onlyOwner {... */\n    tag_10:\n      tag_61\n      0x04\n      dup1\n      calldatasize\n      sub\n      dup2\n      add\n      swap1\n      tag_62\n      swap2\n      swap1\n      tag_63\n      jump\t// in\n    tag_62:\n      tag_64\n      jump\t// in\n    tag_61:\n      stop\n        /* \"AdvContract.sol\":6540:6914  function getProposalDetails(uint256 proposalId) public view proposalExists(proposalId) returns (... */\n    tag_11:\n      tag_65\n      0x04\n      dup1\n      calldatasize\n      sub\n      dup2\n      add\n      swap1\n      tag_66\n      swap2\n      swap1\n      tag_32\n      jump\t// in\n    tag_66:\n      tag_67\n      jump\t// in\n    tag_65:\n      mload(0x40)\n      tag_68\n      swap6\n      swap5\n      swap4\n      swap3\n      swap2\n      swap1\n      tag_38\n      jump\t// in\n    tag_68:\n      mload(0x40)\n      dup1\n      swap2\n      sub\n      swap1\n      return\n        /* \"AdvContract.sol\":5957:6176  function mint(address to, uint256 amount) public onlyOwner {... */\n    tag_12:\n      tag_69\n      0x04\n      dup1\n      calldatasize\n      sub\n      dup2\n      add\n      swap1\n      tag_70\n      swap2\n      swap1\n      tag_45\n      jump\t// in\n    tag_70:\n      tag_71\n      jump\t// in\n    tag_69:\n      stop\n        /* \"AdvContract.sol\":6188:6416  function burn(uint256 amount) public {... */\n    tag_13:\n      tag_72\n      0x04\n      dup1\n      calldatasize\n      sub\n      dup2\n      add\n      swap1\n      tag_73\n      swap2\n      swap1\n      tag_32\n      jump\t// in\n    tag_73:\n      tag_74\n      jump\t// in\n    tag_72:\n      stop\n        /* \"AdvContract.sol\":1580:1640  mapping(uint256 => mapping(address => bool)) public hasVoted */\n    tag_14:\n      tag_75\n      0x04\n      dup1\n      calldatasize\n      sub\n      dup2\n      add\n      swap1\n      tag_76\n      swap2\n      swap1\n      tag_77\n      jump\t// in\n    tag_76:\n      tag_78\n      jump\t// in\n    tag_75:\n      mload(0x40)\n      tag_79\n      swap2\n      swap1\n      tag_48\n      jump\t// in\n    tag_79:\n      mload(0x40)\n      dup1\n      swap2\n      sub\n      swap1\n      return\n        /* \"AdvContract.sol\":2486:2596  function balanceOf(address account) public view returns (uint256) {... */\n    tag_15:\n      tag_80\n      0x04\n      dup1\n      calldatasize\n      sub\n      dup2\n      add\n      swap1\n      tag_81\n      swap2\n      swap1\n      tag_82\n      jump\t// in\n    tag_81:\n      tag_83\n      jump\t// in\n    tag_80:\n      mload(0x40)\n      tag_84\n      swap2\n      swap1\n      tag_85\n      jump\t// in\n    tag_84:\n      mload(0x40)\n      dup1\n      swap2\n      sub\n      swap1\n      return\n        /* \"AdvContract.sol\":1653:1673  address public owner */\n    tag_16:\n      tag_86\n      tag_87\n      jump\t// in\n    tag_86:\n      mload(0x40)\n      tag_88\n      swap2\n      swap1\n      tag_89\n      jump\t// in\n    tag_88:\n      mload(0x40)\n      dup1\n      swap2\n      sub\n      swap1\n      return\n        /* \"AdvContract.sol\":960:1017  uint256 public constant TOTAL_SUPPLY = 1_000_000 * 10**18 */\n    tag_17:\n      tag_90\n      tag_91\n      jump\t// in\n    tag_90:\n      mload(0x40)\n      tag_92\n      swap2\n      swap1\n      tag_85\n      jump\t// in\n    tag_92:\n      mload(0x40)\n      dup1\n      swap2\n      sub\n      swap1\n      return\n        /* \"AdvContract.sol\":1024:1078  uint256 public constant MIN_PROPOSAL_DURATION = 1 days */\n    tag_18:\n      tag_93\n      tag_94\n      jump\t// in\n    tag_93:\n      mload(0x40)\n      tag_95\n      swap2\n      swap1\n      tag_85\n      jump\t// in\n    tag_95:\n      mload(0x40)\n      dup1\n      swap2\n      sub\n      swap1\n      return\n        /* \"AdvContract.sol\":1294:1322  string public symbol = \"ADV\" */\n    tag_19:\n      tag_96\n      tag_97\n      jump\t// in\n    tag_96:\n      mload(0x40)\n      tag_98\n      swap2\n      swap1\n      tag_42\n      jump\t// in\n    tag_98:\n      mload(0x40)\n      dup1\n      swap2\n      sub\n      swap1\n      return\n        /* \"AdvContract.sol\":1085:1137  uint256 public constant VOTE_THRESHOLD = 10 * 10**18 */\n    tag_20:\n      tag_99\n      tag_100\n      jump\t// in\n    tag_99:\n      mload(0x40)\n      tag_101\n      swap2\n      swap1\n      tag_85\n      jump\t// in\n    tag_101:\n      mload(0x40)\n      dup1\n      swap2\n      sub\n      swap1\n      return\n        /* \"AdvContract.sol\":1534:1573  mapping(address => Voter) public voters */\n    tag_21:\n      tag_102\n      0x04\n      dup1\n      calldatasize\n      sub\n      dup2\n      add\n      swap1\n      tag_103\n      swap2\n      swap1\n      tag_82\n      jump\t// in\n    tag_103:\n      tag_104\n      jump\t// in\n    tag_102:\n      mload(0x40)\n      tag_105\n      swap4\n      swap3\n      swap2\n      swap1\n      tag_106\n      jump\t// in\n    tag_105:\n      mload(0x40)\n      dup1\n      swap2\n      sub\n      swap1\n      return\n        /* \"AdvContract.sol\":1680:1709  uint256 public totalProposals */\n    tag_22:\n      tag_107\n      tag_108\n      jump\t// in\n    tag_107:\n      mload(0x40)\n      tag_109\n      swap2\n      swap1\n      tag_85\n      jump\t// in\n    tag_109:\n      mload(0x40)\n      dup1\n      swap2\n      sub\n      swap1\n      return\n        /* \"AdvContract.sol\":2608:2764  function transfer(address recipient, uint256 amount) public returns (bool) {... */\n    tag_23:\n      tag_110\n      0x04\n      dup1\n      calldatasize\n      sub\n      dup2\n      add\n      swap1\n      tag_111\n      swap2\n      swap1\n      tag_45\n      jump\t// in\n    tag_111:\n      tag_112\n      jump\t// in\n    tag_110:\n      mload(0x40)\n      tag_113\n      swap2\n      swap1\n      tag_48\n      jump\t// in\n    tag_113:\n      mload(0x40)\n      dup1\n      swap2\n      sub\n      swap1\n      return\n        /* \"AdvContract.sol\":6428:6528  function getProposalCount() public view returns (uint256) {... */\n    tag_24:\n      tag_114\n      tag_115\n      jump\t// in\n    tag_114:\n      mload(0x40)\n      tag_116\n      swap2\n      swap1\n      tag_85\n      jump\t// in\n    tag_116:\n      mload(0x40)\n      dup1\n      swap2\n      sub\n      swap1\n      return\n        /* \"AdvContract.sol\":2776:2912  function allowance(address _owner, address spender) public view returns (uint256) {... */\n    tag_25:\n      tag_117\n      0x04\n      dup1\n      calldatasize\n      sub\n      dup2\n      add\n      swap1\n      tag_118\n      swap2\n      swap1\n      tag_119\n      jump\t// in\n    tag_118:\n      tag_120\n      jump\t// in\n    tag_117:\n      mload(0x40)\n      tag_121\n      swap2\n      swap1\n      tag_85\n      jump\t// in\n    tag_121:\n      mload(0x40)\n      dup1\n      swap2\n      sub\n      swap1\n      return\n        /* \"AdvContract.sol\":6926:7094  function transferOwnership(address newOwner) public onlyOwner {... */\n    tag_26:\n      tag_122\n      0x04\n      dup1\n      calldatasize\n      sub\n      dup2\n      add\n      swap1\n      tag_123\n      swap2\n      swap1\n      tag_82\n      jump\t// in\n    tag_123:\n      tag_124\n      jump\t// in\n    tag_122:\n      stop\n        /* \"AdvContract.sol\":3992:4437  function vote(uint256 proposalId) public proposalExists(proposalId) activeProposal(proposalId) {... */\n    tag_33:\n        /* \"AdvContract.sol\":4048:4058  proposalId */\n      dup1\n        /* \"AdvContract.sol\":1936:1945  proposals */\n      0x05\n        /* \"AdvContract.sol\":1936:1952  proposals.length */\n      dup1\n      sload\n      swap1\n      pop\n        /* \"AdvContract.sol\":1923:1933  proposalId */\n      dup2\n        /* \"AdvContract.sol\":1923:1952  proposalId < proposals.length */\n      lt\n        /* \"AdvContract.sol\":1915:1979  require(proposalId < proposals.length, \"Proposal doesn't exist\") */\n      tag_126\n      jumpi\n      mload(0x40)\n      0x08c379a000000000000000000000000000000000000000000000000000000000\n      dup2\n      mstore\n      0x04\n      add\n      tag_127\n      swap1\n      tag_128\n      jump\t// in\n    tag_127:\n      mload(0x40)\n      dup1\n      swap2\n      sub\n      swap1\n      revert\n    tag_126:\n        /* \"AdvContract.sol\":4075:4085  proposalId */\n      dup2\n        /* \"AdvContract.sol\":2106:2121  block.timestamp */\n      timestamp\n        /* \"AdvContract.sol\":2074:2083  proposals */\n      0x05\n        /* \"AdvContract.sol\":2084:2094  proposalId */\n      dup3\n        /* \"AdvContract.sol\":2074:2095  proposals[proposalId] */\n      dup2\n      sload\n      dup2\n      lt\n      tag_130\n      jumpi\n      tag_131\n      tag_132\n      jump\t// in\n    tag_131:\n    tag_130:\n      swap1\n      0x00\n      mstore\n      keccak256(0x00, 0x20)\n      swap1\n      0x05\n      mul\n      add\n        /* \"AdvContract.sol\":2074:2103  proposals[proposalId].endTime */\n      0x03\n      add\n      sload\n        /* \"AdvContract.sol\":2074:2121  proposals[proposalId].endTime > block.timestamp */\n      gt\n        /* \"AdvContract.sol\":2066:2142  require(proposals[proposalId].endTime > block.timestamp, \"Proposal expired\") */\n      tag_134\n      jumpi\n      mload(0x40)\n      0x08c379a000000000000000000000000000000000000000000000000000000000\n      dup2\n      mstore\n      0x04\n      add\n      tag_135\n      swap1\n      tag_136\n      jump\t// in\n    tag_135:\n      mload(0x40)\n      dup1\n      swap2\n      sub\n      swap1\n      revert\n    tag_134:\n        /* \"AdvContract.sol\":2162:2171  proposals */\n      0x05\n        /* \"AdvContract.sol\":2172:2182  proposalId */\n      dup2\n        /* \"AdvContract.sol\":2162:2183  proposals[proposalId] */\n      dup2\n      sload\n      dup2\n      lt\n      tag_137\n      jumpi\n      tag_138\n      tag_132\n      jump\t// in\n    tag_138:\n    tag_137:\n      swap1\n      0x00\n      mstore\n      keccak256(0x00, 0x20)\n      swap1\n      0x05\n      mul\n      add\n        /* \"AdvContract.sol\":2162:2192  proposals[proposalId].executed */\n      0x04\n      add\n      0x00\n      swap1\n      sload\n      swap1\n      0x0100\n      exp\n      swap1\n      div\n      0xff\n      and\n        /* \"AdvContract.sol\":2161:2192  !proposals[proposalId].executed */\n      iszero\n        /* \"AdvContract.sol\":2153:2222  require(!proposals[proposalId].executed, \"Proposal already executed\") */\n      tag_140\n      jumpi\n      mload(0x40)\n      0x08c379a000000000000000000000000000000000000000000000000000000000\n      dup2\n      mstore\n      0x04\n      add\n      tag_141\n      swap1\n      tag_142\n      jump\t// in\n    tag_141:\n      mload(0x40)\n      dup1\n      swap2\n      sub\n      swap1\n      revert\n    tag_140:\n        /* \"AdvContract.sol\":1126:1137  10 * 10**18 */\n      0x8ac7230489e80000\n        /* \"AdvContract.sol\":4106:4115  _balances */\n      0x03\n        /* \"AdvContract.sol\":4106:4127  _balances[msg.sender] */\n      0x00\n        /* \"AdvContract.sol\":4116:4126  msg.sender */\n      caller\n        /* \"AdvContract.sol\":4106:4127  _balances[msg.sender] */\n      0xffffffffffffffffffffffffffffffffffffffff\n      and\n      0xffffffffffffffffffffffffffffffffffffffff\n      and\n      dup2\n      mstore\n      0x20\n      add\n      swap1\n      dup2\n      mstore\n      0x20\n      add\n      0x00\n      keccak256\n      sload\n        /* \"AdvContract.sol\":4106:4145  _balances[msg.sender] >= VOTE_THRESHOLD */\n      lt\n      iszero\n        /* \"AdvContract.sol\":4098:4177  require(_balances[msg.sender] >= VOTE_THRESHOLD, \"Insufficient tokens to vote\") */\n      tag_144\n      jumpi\n      mload(0x40)\n      0x08c379a000000000000000000000000000000000000000000000000000000000\n      dup2\n      mstore\n      0x04\n      add\n      tag_145\n      swap1\n      tag_146\n      jump\t// in\n    tag_145:\n      mload(0x40)\n      dup1\n      swap2\n      sub\n      swap1\n      revert\n    tag_144:\n        /* \"AdvContract.sol\":4197:4205  hasVoted */\n      0x07\n        /* \"AdvContract.sol\":4197:4217  hasVoted[proposalId] */\n      0x00\n        /* \"AdvContract.sol\":4206:4216  proposalId */\n      dup5\n        /* \"AdvContract.sol\":4197:4217  hasVoted[proposalId] */\n      dup2\n      mstore\n      0x20\n      add\n      swap1\n      dup2\n      mstore\n      0x20\n      add\n      0x00\n      keccak256\n        /* \"AdvContract.sol\":4197:4229  hasVoted[proposalId][msg.sender] */\n      0x00\n        /* \"AdvContract.sol\":4218:4228  msg.sender */\n      caller\n        /* \"AdvContract.sol\":4197:4229  hasVoted[proposalId][msg.sender] */\n      0xffffffffffffffffffffffffffffffffffffffff\n      and\n      0xffffffffffffffffffffffffffffffffffffffff\n      and\n      dup2\n      mstore\n      0x20\n      add\n      swap1\n      dup2\n      mstore\n      0x20\n      add\n      0x00\n      keccak256\n      0x00\n      swap1\n      sload\n      swap1\n      0x0100\n      exp\n      swap1\n      div\n      0xff\n      and\n        /* \"AdvContract.sol\":4196:4229  !hasVoted[proposalId][msg.sender] */\n      iszero\n        /* \"AdvContract.sol\":4188:4247  require(!hasVoted[proposalId][msg.sender], \"Already voted\") */\n      tag_147\n      jumpi\n      mload(0x40)\n      0x08c379a000000000000000000000000000000000000000000000000000000000\n      dup2\n      mstore\n      0x04\n      add\n      tag_148\n      swap1\n      tag_149\n      jump\t// in\n    tag_148:\n      mload(0x40)\n      dup1\n      swap2\n      sub\n      swap1\n      revert\n    tag_147:\n        /* \"AdvContract.sol\":4303:4312  _balances */\n      0x03\n        /* \"AdvContract.sol\":4303:4324  _balances[msg.sender] */\n      0x00\n        /* \"AdvContract.sol\":4313:4323  msg.sender */\n      caller\n        /* \"AdvContract.sol\":4303:4324  _balances[msg.sender] */\n      0xffffffffffffffffffffffffffffffffffffffff\n      and\n      0xffffffffffffffffffffffffffffffffffffffff\n      and\n      dup2\n      mstore\n      0x20\n      add\n      swap1\n      dup2\n      mstore\n      0x20\n      add\n      0x00\n      keccak256\n      sload\n        /* \"AdvContract.sol\":4268:4277  proposals */\n      0x05\n        /* \"AdvContract.sol\":4278:4288  proposalId */\n      dup5\n        /* \"AdvContract.sol\":4268:4289  proposals[proposalId] */\n      dup2\n      sload\n      dup2\n      lt\n      tag_150\n      jumpi\n      tag_151\n      tag_132\n      jump\t// in\n    tag_151:\n    tag_150:\n      swap1\n      0x00\n      mstore\n      keccak256(0x00, 0x20)\n      swap1\n      0x05\n      mul\n      add\n        /* \"AdvContract.sol\":4268:4299  proposals[proposalId].voteCount */\n      0x02\n      add\n      0x00\n        /* \"AdvContract.sol\":4268:4324  proposals[proposalId].voteCount += _balances[msg.sender] */\n      dup3\n      dup3\n      sload\n      tag_153\n      swap2\n      swap1\n      tag_154\n      jump\t// in\n    tag_153:\n      swap3\n      pop\n      pop\n      dup2\n      swap1\n      sstore\n      pop\n        /* \"AdvContract.sol\":4370:4374  true */\n      0x01\n        /* \"AdvContract.sol\":4335:4343  hasVoted */\n      0x07\n        /* \"AdvContract.sol\":4335:4355  hasVoted[proposalId] */\n      0x00\n        /* \"AdvContract.sol\":4344:4354  proposalId */\n      dup6\n        /* \"AdvContract.sol\":4335:4355  hasVoted[proposalId] */\n      dup2\n      mstore\n      0x20\n      add\n      swap1\n      dup2\n      mstore\n      0x20\n      add\n      0x00\n      keccak256\n        /* \"AdvContract.sol\":4335:4367  hasVoted[proposalId][msg.sender] */\n      0x00\n        /* \"AdvContract.sol\":4356:4366  msg.sender */\n      caller\n        /* \"AdvContract.sol\":4335:4367  hasVoted[proposalId][msg.sender] */\n      0xffffffffffffffffffffffffffffffffffffffff\n      and\n      0xffffffffffffffffffffffffffffffffffffffff\n      and\n      dup2\n      mstore\n      0x20\n      add\n      swap1\n      dup2\n      mstore\n      0x20\n      add\n      0x00\n      keccak256\n      0x00\n        /* \"AdvContract.sol\":4335:4374  hasVoted[proposalId][msg.sender] = true */\n      0x0100\n      exp\n      dup2\n      sload\n      dup2\n      0xff\n      mul\n      not\n      and\n      swap1\n      dup4\n      iszero\n      iszero\n      mul\n      or\n      swap1\n      sstore\n      pop\n        /* \"AdvContract.sol\":4418:4428  proposalId */\n      dup3\n        /* \"AdvContract.sol\":4406:4416  msg.sender */\n      caller\n        /* \"AdvContract.sol\":4400:4429  Voted(msg.sender, proposalId) */\n      0xffffffffffffffffffffffffffffffffffffffff\n      and\n      0x4d99b957a2bc29a30ebd96a7be8e68fe50a3c701db28a91436490b7d53870ca4\n      mload(0x40)\n      mload(0x40)\n      dup1\n      swap2\n      sub\n      swap1\n      log3\n        /* \"AdvContract.sol\":1990:1991  _ */\n      pop\n        /* \"AdvContract.sol\":3992:4437  function vote(uint256 proposalId) public proposalExists(proposalId) activeProposal(proposalId) {... */\n      pop\n      pop\n      jump\t// out\n        /* \"AdvContract.sol\":1500:1527  Proposal[] public proposals */\n    tag_36:\n      0x05\n      dup2\n      dup2\n      sload\n      dup2\n      lt\n      tag_155\n      jumpi\n      0x00\n      dup1\n      revert\n    tag_155:\n      swap1\n      0x00\n      mstore\n      keccak256(0x00, 0x20)\n      swap1\n      0x05\n      mul\n      add\n      0x00\n      swap2\n      pop\n      swap1\n      pop\n      dup1\n      0x00\n      add\n      sload\n      swap1\n      dup1\n      0x01\n      add\n      dup1\n      sload\n      tag_157\n      swap1\n      tag_158\n      jump\t// in\n    tag_157:\n      dup1\n      0x1f\n      add\n      0x20\n      dup1\n      swap2\n      div\n      mul\n      0x20\n      add\n      mload(0x40)\n      swap1\n      dup2\n      add\n      0x40\n      mstore\n      dup1\n      swap3\n      swap2\n      swap1\n      dup2\n      dup2\n      mstore\n      0x20\n      add\n      dup3\n      dup1\n      sload\n      tag_159\n      swap1\n      tag_158\n      jump\t// in\n    tag_159:\n      dup1\n      iszero\n      tag_160\n      jumpi\n      dup1\n      0x1f\n      lt\n      tag_161\n      jumpi\n      0x0100\n      dup1\n      dup4\n      sload\n      div\n      mul\n      dup4\n      mstore\n      swap2\n      0x20\n      add\n      swap2\n      jump(tag_160)\n    tag_161:\n      dup3\n      add\n      swap2\n      swap1\n      0x00\n      mstore\n      keccak256(0x00, 0x20)\n      swap1\n    tag_162:\n      dup2\n      sload\n      dup2\n      mstore\n      swap1\n      0x01\n      add\n      swap1\n      0x20\n      add\n      dup1\n      dup4\n      gt\n      tag_162\n      jumpi\n      dup3\n      swap1\n      sub\n      0x1f\n      and\n      dup3\n      add\n      swap2\n    tag_160:\n      pop\n      pop\n      pop\n      pop\n      pop\n      swap1\n      dup1\n      0x02\n      add\n      sload\n      swap1\n      dup1\n      0x03\n      add\n      sload\n      swap1\n      dup1\n      0x04\n      add\n      0x00\n      swap1\n      sload\n      swap1\n      0x0100\n      exp\n      swap1\n      div\n      0xff\n      and\n      swap1\n      pop\n      dup6\n      jump\t// out\n        /* \"AdvContract.sol\":1250:1287  string public name = \"Advanced Token\" */\n    tag_40:\n      0x00\n      dup1\n      sload\n      tag_163\n      swap1\n      tag_158\n      jump\t// in\n    tag_163:\n      dup1\n      0x1f\n      add\n      0x20\n      dup1\n      swap2\n      div\n      mul\n      0x20\n      add\n      mload(0x40)\n      swap1\n      dup2\n      add\n      0x40\n      mstore\n      dup1\n      swap3\n      swap2\n      swap1\n      dup2\n      dup2\n      mstore\n      0x20\n      add\n      dup3\n      dup1\n      sload\n      tag_164\n      swap1\n      tag_158\n      jump\t// in\n    tag_164:\n      dup1\n      iszero\n      tag_165\n      jumpi\n      dup1\n      0x1f\n      lt\n      tag_166\n      jumpi\n      0x0100\n      dup1\n      dup4\n      sload\n      div\n      mul\n      dup4\n      mstore\n      swap2\n      0x20\n      add\n      swap2\n      jump(tag_165)\n    tag_166:\n      dup3\n      add\n      swap2\n      swap1\n      0x00\n      mstore\n      keccak256(0x00, 0x20)\n      swap1\n    tag_167:\n      dup2\n      sload\n      dup2\n      mstore\n      swap1\n      0x01\n      add\n      swap1\n      0x20\n      add\n      dup1\n      dup4\n      gt\n      tag_167\n      jumpi\n      dup3\n      swap1\n      sub\n      0x1f\n      and\n      dup3\n      add\n      swap2\n    tag_165:\n      pop\n      pop\n      pop\n      pop\n      pop\n      dup2\n      jump\t// out\n        /* \"AdvContract.sol\":2924:3074  function approve(address spender, uint256 amount) public returns (bool) {... */\n    tag_46:\n        /* \"AdvContract.sol\":2990:2994  bool */\n      0x00\n        /* \"AdvContract.sol\":3007:3044  _approve(msg.sender, spender, amount) */\n      tag_169\n        /* \"AdvContract.sol\":3016:3026  msg.sender */\n      caller\n        /* \"AdvContract.sol\":3028:3035  spender */\n      dup5\n        /* \"AdvContract.sol\":3037:3043  amount */\n      dup5\n        /* \"AdvContract.sol\":3007:3015  _approve */\n      tag_170\n        /* \"AdvContract.sol\":3007:3044  _approve(msg.sender, spender, amount) */\n      jump\t// in\n    tag_169:\n        /* \"AdvContract.sol\":3062:3066  true */\n      0x01\n        /* \"AdvContract.sol\":3055:3066  return true */\n      swap1\n      pop\n        /* \"AdvContract.sol\":2924:3074  function approve(address spender, uint256 amount) public returns (bool) {... */\n      swap3\n      swap2\n      pop\n      pop\n      jump\t// out\n        /* \"AdvContract.sol\":4449:5056  function executeProposal(uint256 proposalId) public proposalExists(proposalId) {... */\n    tag_51:\n        /* \"AdvContract.sol\":4516:4526  proposalId */\n      dup1\n        /* \"AdvContract.sol\":1936:1945  proposals */\n      0x05\n        /* \"AdvContract.sol\":1936:1952  proposals.length */\n      dup1\n      sload\n      swap1\n      pop\n        /* \"AdvContract.sol\":1923:1933  proposalId */\n      dup2\n        /* \"AdvContract.sol\":1923:1952  proposalId < proposals.length */\n      lt\n        /* \"AdvContract.sol\":1915:1979  require(proposalId < proposals.length, \"Proposal doesn't exist\") */\n      tag_172\n      jumpi\n      mload(0x40)\n      0x08c379a000000000000000000000000000000000000000000000000000000000\n      dup2\n      mstore\n      0x04\n      add\n      tag_173\n      swap1\n      tag_128\n      jump\t// in\n    tag_173:\n      mload(0x40)\n      dup1\n      swap2\n      sub\n      swap1\n      revert\n    tag_172:\n        /* \"AdvContract.sol\":4539:4564  Proposal storage proposal */\n      0x00\n        /* \"AdvContract.sol\":4567:4576  proposals */\n      0x05\n        /* \"AdvContract.sol\":4577:4587  proposalId */\n      dup4\n        /* \"AdvContract.sol\":4567:4588  proposals[proposalId] */\n      dup2\n      sload\n      dup2\n      lt\n      tag_175\n      jumpi\n      tag_176\n      tag_132\n      jump\t// in\n    tag_176:\n    tag_175:\n      swap1\n      0x00\n      mstore\n      keccak256(0x00, 0x20)\n      swap1\n      0x05\n      mul\n      add\n        /* \"AdvContract.sol\":4539:4588  Proposal storage proposal = proposals[proposalId] */\n      swap1\n      pop\n        /* \"AdvContract.sol\":4626:4634  proposal */\n      dup1\n        /* \"AdvContract.sol\":4626:4642  proposal.endTime */\n      0x03\n      add\n      sload\n        /* \"AdvContract.sol\":4607:4622  block.timestamp */\n      timestamp\n        /* \"AdvContract.sol\":4607:4642  block.timestamp >= proposal.endTime */\n      lt\n      iszero\n        /* \"AdvContract.sol\":4599:4667  require(block.timestamp >= proposal.endTime, \"Voting still ongoing\") */\n      tag_178\n      jumpi\n      mload(0x40)\n      0x08c379a000000000000000000000000000000000000000000000000000000000\n      dup2\n      mstore\n      0x04\n      add\n      tag_179\n      swap1\n      tag_180\n      jump\t// in\n    tag_179:\n      mload(0x40)\n      dup1\n      swap2\n      sub\n      swap1\n      revert\n    tag_178:\n        /* \"AdvContract.sol\":4687:4695  proposal */\n      dup1\n        /* \"AdvContract.sol\":4687:4704  proposal.executed */\n      0x04\n      add\n      0x00\n      swap1\n      sload\n      swap1\n      0x0100\n      exp\n      swap1\n      div\n      0xff\n      and\n        /* \"AdvContract.sol\":4686:4704  !proposal.executed */\n      iszero\n        /* \"AdvContract.sol\":4678:4734  require(!proposal.executed, \"Proposal already executed\") */\n      tag_181\n      jumpi\n      mload(0x40)\n      0x08c379a000000000000000000000000000000000000000000000000000000000\n      dup2\n      mstore\n      0x04\n      add\n      tag_182\n      swap1\n      tag_142\n      jump\t// in\n    tag_182:\n      mload(0x40)\n      dup1\n      swap2\n      sub\n      swap1\n      revert\n    tag_181:\n        /* \"AdvContract.sol\":4796:4799  100 */\n      0x64\n        /* \"AdvContract.sol\":4790:4792  20 */\n      0x14\n        /* \"AdvContract.sol\":999:1017  1_000_000 * 10**18 */\n      0xd3c21bcecceda1000000\n        /* \"AdvContract.sol\":4775:4792  TOTAL_SUPPLY * 20 */\n      tag_183\n      swap2\n      swap1\n      tag_184\n      jump\t// in\n    tag_183:\n        /* \"AdvContract.sol\":4774:4799  (TOTAL_SUPPLY * 20) / 100 */\n      tag_185\n      swap2\n      swap1\n      tag_186\n      jump\t// in\n    tag_185:\n        /* \"AdvContract.sol\":4753:4761  proposal */\n      dup2\n        /* \"AdvContract.sol\":4753:4771  proposal.voteCount */\n      0x02\n      add\n      sload\n        /* \"AdvContract.sol\":4753:4799  proposal.voteCount > (TOTAL_SUPPLY * 20) / 100 */\n      gt\n        /* \"AdvContract.sol\":4745:4820  require(proposal.voteCount > (TOTAL_SUPPLY * 20) / 100, \"Not enough votes\") */\n      tag_187\n      jumpi\n      mload(0x40)\n      0x08c379a000000000000000000000000000000000000000000000000000000000\n      dup2\n      mstore\n      0x04\n      add\n      tag_188\n      swap1\n      tag_189\n      jump\t// in\n    tag_188:\n      mload(0x40)\n      dup1\n      swap2\n      sub\n      swap1\n      revert\n    tag_187:\n        /* \"AdvContract.sol\":4886:4890  true */\n      0x01\n        /* \"AdvContract.sol\":4866:4874  proposal */\n      dup2\n        /* \"AdvContract.sol\":4866:4883  proposal.executed */\n      0x04\n      add\n      0x00\n        /* \"AdvContract.sol\":4866:4890  proposal.executed = true */\n      0x0100\n      exp\n      dup2\n      sload\n      dup2\n      0xff\n      mul\n      not\n      and\n      swap1\n      dup4\n      iszero\n      iszero\n      mul\n      or\n      swap1\n      sstore\n      pop\n        /* \"AdvContract.sol\":5037:5047  proposalId */\n      dup3\n        /* \"AdvContract.sol\":5020:5048  ProposalExecuted(proposalId) */\n      0x712ae1383f79ac853f8d882153778e0260ef8f03b504e2866e0593e04d2b291f\n      mload(0x40)\n      mload(0x40)\n      dup1\n      swap2\n      sub\n      swap1\n      log2\n        /* \"AdvContract.sol\":4528:5056  {... */\n      pop\n        /* \"AdvContract.sol\":4449:5056  function executeProposal(uint256 proposalId) public proposalExists(proposalId) {... */\n      pop\n      pop\n      jump\t// out\n        /* \"AdvContract.sol\":3086:3339  function transferFrom(address sender, address recipient, uint256 amount) public returns (bool) {... */\n    tag_55:\n        /* \"AdvContract.sol\":3175:3179  bool */\n      0x00\n        /* \"AdvContract.sol\":3192:3228  _transfer(sender, recipient, amount) */\n      tag_191\n        /* \"AdvContract.sol\":3202:3208  sender */\n      dup5\n        /* \"AdvContract.sol\":3210:3219  recipient */\n      dup5\n        /* \"AdvContract.sol\":3221:3227  amount */\n      dup5\n        /* \"AdvContract.sol\":3192:3201  _transfer */\n      tag_192\n        /* \"AdvContract.sol\":3192:3228  _transfer(sender, recipient, amount) */\n      jump\t// in\n    tag_191:\n        /* \"AdvContract.sol\":3239:3309  _approve(sender, msg.sender, _allowances[sender][msg.sender] - amount) */\n      tag_193\n        /* \"AdvContract.sol\":3248:3254  sender */\n      dup5\n        /* \"AdvContract.sol\":3256:3266  msg.sender */\n      caller\n        /* \"AdvContract.sol\":3302:3308  amount */\n      dup5\n        /* \"AdvContract.sol\":3268:3279  _allowances */\n      0x04\n        /* \"AdvContract.sol\":3268:3287  _allowances[sender] */\n      0x00\n        /* \"AdvContract.sol\":3280:3286  sender */\n      dup10\n        /* \"AdvContract.sol\":3268:3287  _allowances[sender] */\n      0xffffffffffffffffffffffffffffffffffffffff\n      and\n      0xffffffffffffffffffffffffffffffffffffffff\n      and\n      dup2\n      mstore\n      0x20\n      add\n      swap1\n      dup2\n      mstore\n      0x20\n      add\n      0x00\n      keccak256\n        /* \"AdvContract.sol\":3268:3299  _allowances[sender][msg.sender] */\n      0x00\n        /* \"AdvContract.sol\":3288:3298  msg.sender */\n      caller\n        /* \"AdvContract.sol\":3268:3299  _allowances[sender][msg.sender] */\n      0xffffffffffffffffffffffffffffffffffffffff\n      and\n      0xffffffffffffffffffffffffffffffffffffffff\n      and\n      dup2\n      mstore\n      0x20\n      add\n      swap1\n      dup2\n      mstore\n      0x20\n      add\n      0x00\n      keccak256\n      sload\n        /* \"AdvContract.sol\":3268:3308  _allowances[sender][msg.sender] - amount */\n      tag_194\n      swap2\n      swap1\n      tag_195\n      jump\t// in\n    tag_194:\n        /* \"AdvContract.sol\":3239:3247  _approve */\n      tag_170\n        /* \"AdvContract.sol\":3239:3309  _approve(sender, msg.sender, _allowances[sender][msg.sender] - amount) */\n      jump\t// in\n    tag_193:\n        /* \"AdvContract.sol\":3327:3331  true */\n      0x01\n        /* \"AdvContract.sol\":3320:3331  return true */\n      swap1\n      pop\n        /* \"AdvContract.sol\":3086:3339  function transferFrom(address sender, address recipient, uint256 amount) public returns (bool) {... */\n      swap4\n      swap3\n      pop\n      pop\n      pop\n      jump\t// out\n        /* \"AdvContract.sol\":1329:1355  uint8 public decimals = 18 */\n    tag_58:\n      0x02\n      0x00\n      swap1\n      sload\n      swap1\n      0x0100\n      exp\n      swap1\n      div\n      0xff\n      and\n      dup2\n      jump\t// out\n        /* \"AdvContract.sol\":3381:3980  function createProposal(string memory description, uint256 duration) public onlyOwner {... */\n    tag_64:\n        /* \"AdvContract.sol\":1809:1814  owner */\n      0x08\n      0x00\n      swap1\n      sload\n      swap1\n      0x0100\n      exp\n      swap1\n      div\n      0xffffffffffffffffffffffffffffffffffffffff\n      and\n        /* \"AdvContract.sol\":1795:1814  msg.sender == owner */\n      0xffffffffffffffffffffffffffffffffffffffff\n      and\n        /* \"AdvContract.sol\":1795:1805  msg.sender */\n      caller\n        /* \"AdvContract.sol\":1795:1814  msg.sender == owner */\n      0xffffffffffffffffffffffffffffffffffffffff\n      and\n      eq\n        /* \"AdvContract.sol\":1787:1828  require(msg.sender == owner, \"Not owner\") */\n      tag_197\n      jumpi\n      mload(0x40)\n      0x08c379a000000000000000000000000000000000000000000000000000000000\n      dup2\n      mstore\n      0x04\n      add\n      tag_198\n      swap1\n      tag_199\n      jump\t// in\n    tag_198:\n      mload(0x40)\n      dup1\n      swap2\n      sub\n      swap1\n      revert\n    tag_197:\n        /* \"AdvContract.sol\":1072:1078  1 days */\n      0x015180\n        /* \"AdvContract.sol\":3486:3494  duration */\n      dup2\n        /* \"AdvContract.sol\":3486:3519  duration >= MIN_PROPOSAL_DURATION */\n      lt\n      iszero\n        /* \"AdvContract.sol\":3478:3542  require(duration >= MIN_PROPOSAL_DURATION, \"Duration too short\") */\n      tag_201\n      jumpi\n      mload(0x40)\n      0x08c379a000000000000000000000000000000000000000000000000000000000\n      dup2\n      mstore\n      0x04\n      add\n      tag_202\n      swap1\n      tag_203\n      jump\t// in\n    tag_202:\n      mload(0x40)\n      dup1\n      swap2\n      sub\n      swap1\n      revert\n    tag_201:\n        /* \"AdvContract.sol\":3563:3581  uint256 proposalId */\n      0x00\n        /* \"AdvContract.sol\":3584:3593  proposals */\n      0x05\n        /* \"AdvContract.sol\":3584:3600  proposals.length */\n      dup1\n      sload\n      swap1\n      pop\n        /* \"AdvContract.sol\":3563:3600  uint256 proposalId = proposals.length */\n      swap1\n      pop\n        /* \"AdvContract.sol\":3611:3626  uint256 endTime */\n      0x00\n        /* \"AdvContract.sol\":3647:3655  duration */\n      dup3\n        /* \"AdvContract.sol\":3629:3644  block.timestamp */\n      timestamp\n        /* \"AdvContract.sol\":3629:3655  block.timestamp + duration */\n      tag_204\n      swap2\n      swap1\n      tag_154\n      jump\t// in\n    tag_204:\n        /* \"AdvContract.sol\":3611:3655  uint256 endTime = block.timestamp + duration */\n      swap1\n      pop\n        /* \"AdvContract.sol\":3676:3685  proposals */\n      0x05\n        /* \"AdvContract.sol\":3691:3868  Proposal({... */\n      mload(0x40)\n      dup1\n      0xa0\n      add\n      0x40\n      mstore\n      dup1\n        /* \"AdvContract.sol\":3719:3729  proposalId */\n      dup5\n        /* \"AdvContract.sol\":3691:3868  Proposal({... */\n      dup2\n      mstore\n      0x20\n      add\n        /* \"AdvContract.sol\":3757:3768  description */\n      dup7\n        /* \"AdvContract.sol\":3691:3868  Proposal({... */\n      dup2\n      mstore\n      0x20\n      add\n        /* \"AdvContract.sol\":3794:3795  0 */\n      0x00\n        /* \"AdvContract.sol\":3691:3868  Proposal({... */\n      dup2\n      mstore\n      0x20\n      add\n        /* \"AdvContract.sol\":3819:3826  endTime */\n      dup4\n        /* \"AdvContract.sol\":3691:3868  Proposal({... */\n      dup2\n      mstore\n      0x20\n      add\n        /* \"AdvContract.sol\":3851:3856  false */\n      0x00\n        /* \"AdvContract.sol\":3691:3868  Proposal({... */\n      iszero\n      iszero\n      dup2\n      mstore\n      pop\n        /* \"AdvContract.sol\":3676:3869  proposals.push(Proposal({... */\n      swap1\n      dup1\n      0x01\n      dup2\n      sload\n      add\n      dup1\n      dup3\n      sstore\n      dup1\n      swap2\n      pop\n      pop\n      0x01\n      swap1\n      sub\n      swap1\n      0x00\n      mstore\n      keccak256(0x00, 0x20)\n      swap1\n      0x05\n      mul\n      add\n      0x00\n      swap1\n      swap2\n      swap1\n      swap2\n      swap1\n      swap2\n      pop\n      0x00\n      dup3\n      add\n      mload\n      dup2\n      0x00\n      add\n      sstore\n      0x20\n      dup3\n      add\n      mload\n      dup2\n      0x01\n      add\n      swap1\n      dup2\n      tag_206\n      swap2\n      swap1\n      tag_207\n      jump\t// in\n    tag_206:\n      pop\n      0x40\n      dup3\n      add\n      mload\n      dup2\n      0x02\n      add\n      sstore\n      0x60\n      dup3\n      add\n      mload\n      dup2\n      0x03\n      add\n      sstore\n      0x80\n      dup3\n      add\n      mload\n      dup2\n      0x04\n      add\n      exp(0x0100, 0x00)\n      dup2\n      sload\n      dup2\n      0xff\n      mul\n      not\n      and\n      swap1\n      dup4\n      iszero\n      iszero\n      mul\n      or\n      swap1\n      sstore\n      pop\n      pop\n      pop\n        /* \"AdvContract.sol\":3890:3904  totalProposals */\n      0x09\n      0x00\n        /* \"AdvContract.sol\":3890:3906  totalProposals++ */\n      dup2\n      sload\n      dup1\n      swap3\n      swap2\n      swap1\n      tag_208\n      swap1\n      tag_209\n      jump\t// in\n    tag_208:\n      swap2\n      swap1\n      pop\n      sstore\n      pop\n        /* \"AdvContract.sol\":3938:3948  proposalId */\n      dup2\n        /* \"AdvContract.sol\":3922:3972  ProposalCreated(proposalId, description, duration) */\n      0xf5dc0da9afa6d080780a49fd8c680f03d2ddf3c067cd6d0c85360c096644d2d3\n        /* \"AdvContract.sol\":3950:3961  description */\n      dup6\n        /* \"AdvContract.sol\":3963:3971  duration */\n      dup6\n        /* \"AdvContract.sol\":3922:3972  ProposalCreated(proposalId, description, duration) */\n      mload(0x40)\n      tag_210\n      swap3\n      swap2\n      swap1\n      tag_211\n      jump\t// in\n    tag_210:\n      mload(0x40)\n      dup1\n      swap2\n      sub\n      swap1\n      log2\n        /* \"AdvContract.sol\":3467:3980  {... */\n      pop\n      pop\n        /* \"AdvContract.sol\":3381:3980  function createProposal(string memory description, uint256 duration) public onlyOwner {... */\n      pop\n      pop\n      jump\t// out\n        /* \"AdvContract.sol\":6540:6914  function getProposalDetails(uint256 proposalId) public view proposalExists(proposalId) returns (... */\n    tag_67:\n        /* \"AdvContract.sol\":6646:6656  uint256 id */\n      0x00\n        /* \"AdvContract.sol\":6667:6692  string memory description */\n      0x60\n        /* \"AdvContract.sol\":6703:6720  uint256 voteCount */\n      0x00\n        /* \"AdvContract.sol\":6731:6746  uint256 endTime */\n      dup1\n        /* \"AdvContract.sol\":6757:6770  bool executed */\n      0x00\n        /* \"AdvContract.sol\":6615:6625  proposalId */\n      dup6\n        /* \"AdvContract.sol\":1936:1945  proposals */\n      0x05\n        /* \"AdvContract.sol\":1936:1952  proposals.length */\n      dup1\n      sload\n      swap1\n      pop\n        /* \"AdvContract.sol\":1923:1933  proposalId */\n      dup2\n        /* \"AdvContract.sol\":1923:1952  proposalId < proposals.length */\n      lt\n        /* \"AdvContract.sol\":1915:1979  require(proposalId < proposals.length, \"Proposal doesn't exist\") */\n      tag_213\n      jumpi\n      mload(0x40)\n      0x08c379a000000000000000000000000000000000000000000000000000000000\n      dup2\n      mstore\n      0x04\n      add\n      tag_214\n      swap1\n      tag_128\n      jump\t// in\n    tag_214:\n      mload(0x40)\n      dup1\n      swap2\n      sub\n      swap1\n      revert\n    tag_213:\n        /* \"AdvContract.sol\":6789:6807  Proposal storage p */\n      0x00\n        /* \"AdvContract.sol\":6810:6819  proposals */\n      0x05\n        /* \"AdvContract.sol\":6820:6830  proposalId */\n      dup9\n        /* \"AdvContract.sol\":6810:6831  proposals[proposalId] */\n      dup2\n      sload\n      dup2\n      lt\n      tag_216\n      jumpi\n      tag_217\n      tag_132\n      jump\t// in\n    tag_217:\n    tag_216:\n      swap1\n      0x00\n      mstore\n      keccak256(0x00, 0x20)\n      swap1\n      0x05\n      mul\n      add\n        /* \"AdvContract.sol\":6789:6831  Proposal storage p = proposals[proposalId] */\n      swap1\n      pop\n        /* \"AdvContract.sol\":6850:6851  p */\n      dup1\n        /* \"AdvContract.sol\":6850:6854  p.id */\n      0x00\n      add\n      sload\n        /* \"AdvContract.sol\":6856:6857  p */\n      dup2\n        /* \"AdvContract.sol\":6856:6869  p.description */\n      0x01\n      add\n        /* \"AdvContract.sol\":6871:6872  p */\n      dup3\n        /* \"AdvContract.sol\":6871:6882  p.voteCount */\n      0x02\n      add\n      sload\n        /* \"AdvContract.sol\":6884:6885  p */\n      dup4\n        /* \"AdvContract.sol\":6884:6893  p.endTime */\n      0x03\n      add\n      sload\n        /* \"AdvContract.sol\":6895:6896  p */\n      dup5\n        /* \"AdvContract.sol\":6895:6905  p.executed */\n      0x04\n      add\n      0x00\n      swap1\n      sload\n      swap1\n      0x0100\n      exp\n      swap1\n      div\n      0xff\n      and\n        /* \"AdvContract.sol\":6842:6906  return (p.id, p.description, p.voteCount, p.endTime, p.executed) */\n      dup4\n      dup1\n      sload\n      tag_219\n      swap1\n      tag_158\n      jump\t// in\n    tag_219:\n      dup1\n      0x1f\n      add\n      0x20\n      dup1\n      swap2\n      div\n      mul\n      0x20\n      add\n      mload(0x40)\n      swap1\n      dup2\n      add\n      0x40\n      mstore\n      dup1\n      swap3\n      swap2\n      swap1\n      dup2\n      dup2\n      mstore\n      0x20\n      add\n      dup3\n      dup1\n      sload\n      tag_220\n      swap1\n      tag_158\n      jump\t// in\n    tag_220:\n      dup1\n      iszero\n      tag_221\n      jumpi\n      dup1\n      0x1f\n      lt\n      tag_222\n      jumpi\n      0x0100\n      dup1\n      dup4\n      sload\n      div\n      mul\n      dup4\n      mstore\n      swap2\n      0x20\n      add\n      swap2\n      jump(tag_221)\n    tag_222:\n      dup3\n      add\n      swap2\n      swap1\n      0x00\n      mstore\n      keccak256(0x00, 0x20)\n      swap1\n    tag_223:\n      dup2\n      sload\n      dup2\n      mstore\n      swap1\n      0x01\n      add\n      swap1\n      0x20\n      add\n      dup1\n      dup4\n      gt\n      tag_223\n      jumpi\n      dup3\n      swap1\n      sub\n      0x1f\n      and\n      dup3\n      add\n      swap2\n    tag_221:\n      pop\n      pop\n      pop\n      pop\n      pop\n      swap4\n      pop\n      swap7\n      pop\n      swap7\n      pop\n      swap7\n      pop\n      swap7\n      pop\n      swap7\n      pop\n      pop\n        /* \"AdvContract.sol\":6540:6914  function getProposalDetails(uint256 proposalId) public view proposalExists(proposalId) returns (... */\n      pop\n      swap2\n      swap4\n      swap6\n      swap1\n      swap3\n      swap5\n      pop\n      jump\t// out\n        /* \"AdvContract.sol\":5957:6176  function mint(address to, uint256 amount) public onlyOwner {... */\n    tag_71:\n        /* \"AdvContract.sol\":1809:1814  owner */\n      0x08\n      0x00\n      swap1\n      sload\n      swap1\n      0x0100\n      exp\n      swap1\n      div\n      0xffffffffffffffffffffffffffffffffffffffff\n      and\n        /* \"AdvContract.sol\":1795:1814  msg.sender == owner */\n      0xffffffffffffffffffffffffffffffffffffffff\n      and\n        /* \"AdvContract.sol\":1795:1805  msg.sender */\n      caller\n        /* \"AdvContract.sol\":1795:1814  msg.sender == owner */\n      0xffffffffffffffffffffffffffffffffffffffff\n      and\n      eq\n        /* \"AdvContract.sol\":1787:1828  require(msg.sender == owner, \"Not owner\") */\n      tag_225\n      jumpi\n      mload(0x40)\n      0x08c379a000000000000000000000000000000000000000000000000000000000\n      dup2\n      mstore\n      0x04\n      add\n      tag_226\n      swap1\n      tag_199\n      jump\t// in\n    tag_226:\n      mload(0x40)\n      dup1\n      swap2\n      sub\n      swap1\n      revert\n    tag_225:\n        /* \"AdvContract.sol\":6049:6050  0 */\n      0x00\n        /* \"AdvContract.sol\":6035:6051  to != address(0) */\n      0xffffffffffffffffffffffffffffffffffffffff\n      and\n        /* \"AdvContract.sol\":6035:6037  to */\n      dup3\n        /* \"AdvContract.sol\":6035:6051  to != address(0) */\n      0xffffffffffffffffffffffffffffffffffffffff\n      and\n      sub\n        /* \"AdvContract.sol\":6027:6076  require(to != address(0), \"Mint to zero address\") */\n      tag_228\n      jumpi\n      mload(0x40)\n      0x08c379a000000000000000000000000000000000000000000000000000000000\n      dup2\n      mstore\n      0x04\n      add\n      tag_229\n      swap1\n      tag_230\n      jump\t// in\n    tag_229:\n      mload(0x40)\n      dup1\n      swap2\n      sub\n      swap1\n      revert\n    tag_228:\n        /* \"AdvContract.sol\":6114:6120  amount */\n      dup1\n        /* \"AdvContract.sol\":6097:6106  _balances */\n      0x03\n        /* \"AdvContract.sol\":6097:6110  _balances[to] */\n      0x00\n        /* \"AdvContract.sol\":6107:6109  to */\n      dup5\n        /* \"AdvContract.sol\":6097:6110  _balances[to] */\n      0xffffffffffffffffffffffffffffffffffffffff\n      and\n      0xffffffffffffffffffffffffffffffffffffffff\n      and\n      dup2\n      mstore\n      0x20\n      add\n      swap1\n      dup2\n      mstore\n      0x20\n      add\n      0x00\n      keccak256\n      0x00\n        /* \"AdvContract.sol\":6097:6120  _balances[to] += amount */\n      dup3\n      dup3\n      sload\n      tag_231\n      swap2\n      swap1\n      tag_154\n      jump\t// in\n    tag_231:\n      swap3\n      pop\n      pop\n      dup2\n      swap1\n      sstore\n      pop\n        /* \"AdvContract.sol\":6157:6159  to */\n      dup2\n        /* \"AdvContract.sol\":6136:6168  Transfer(address(0), to, amount) */\n      0xffffffffffffffffffffffffffffffffffffffff\n      and\n        /* \"AdvContract.sol\":6153:6154  0 */\n      0x00\n        /* \"AdvContract.sol\":6136:6168  Transfer(address(0), to, amount) */\n      0xffffffffffffffffffffffffffffffffffffffff\n      and\n      0xddf252ad1be2c89b69c2b068fc378daa952ba7f163c4a11628f55a4df523b3ef\n        /* \"AdvContract.sol\":6161:6167  amount */\n      dup4\n        /* \"AdvContract.sol\":6136:6168  Transfer(address(0), to, amount) */\n      mload(0x40)\n      tag_232\n      swap2\n      swap1\n      tag_85\n      jump\t// in\n    tag_232:\n      mload(0x40)\n      dup1\n      swap2\n      sub\n      swap1\n      log3\n        /* \"AdvContract.sol\":5957:6176  function mint(address to, uint256 amount) public onlyOwner {... */\n      pop\n      pop\n      jump\t// out\n        /* \"AdvContract.sol\":6188:6416  function burn(uint256 amount) public {... */\n    tag_74:\n        /* \"AdvContract.sol\":6269:6275  amount */\n      dup1\n        /* \"AdvContract.sol\":6244:6253  _balances */\n      0x03\n        /* \"AdvContract.sol\":6244:6265  _balances[msg.sender] */\n      0x00\n        /* \"AdvContract.sol\":6254:6264  msg.sender */\n      caller\n        /* \"AdvContract.sol\":6244:6265  _balances[msg.sender] */\n      0xffffffffffffffffffffffffffffffffffffffff\n      and\n      0xffffffffffffffffffffffffffffffffffffffff\n      and\n      dup2\n      mstore\n      0x20\n      add\n      swap1\n      dup2\n      mstore\n      0x20\n      add\n      0x00\n      keccak256\n      sload\n        /* \"AdvContract.sol\":6244:6275  _balances[msg.sender] >= amount */\n      lt\n      iszero\n        /* \"AdvContract.sol\":6236:6300  require(_balances[msg.sender] >= amount, \"Insufficient balance\") */\n      tag_234\n      jumpi\n      mload(0x40)\n      0x08c379a000000000000000000000000000000000000000000000000000000000\n      dup2\n      mstore\n      0x04\n      add\n      tag_235\n      swap1\n      tag_236\n      jump\t// in\n    tag_235:\n      mload(0x40)\n      dup1\n      swap2\n      sub\n      swap1\n      revert\n    tag_234:\n        /* \"AdvContract.sol\":6346:6352  amount */\n      dup1\n        /* \"AdvContract.sol\":6321:6330  _balances */\n      0x03\n        /* \"AdvContract.sol\":6321:6342  _balances[msg.sender] */\n      0x00\n        /* \"AdvContract.sol\":6331:6341  msg.sender */\n      caller\n        /* \"AdvContract.sol\":6321:6342  _balances[msg.sender] */\n      0xffffffffffffffffffffffffffffffffffffffff\n      and\n      0xffffffffffffffffffffffffffffffffffffffff\n      and\n      dup2\n      mstore\n      0x20\n      add\n      swap1\n      dup2\n      mstore\n      0x20\n      add\n      0x00\n      keccak256\n      0x00\n        /* \"AdvContract.sol\":6321:6352  _balances[msg.sender] -= amount */\n      dup3\n      dup3\n      sload\n      tag_237\n      swap2\n      swap1\n      tag_195\n      jump\t// in\n    tag_237:\n      swap3\n      pop\n      pop\n      dup2\n      swap1\n      sstore\n      pop\n        /* \"AdvContract.sol\":6397:6398  0 */\n      0x00\n        /* \"AdvContract.sol\":6368:6408  Transfer(msg.sender, address(0), amount) */\n      0xffffffffffffffffffffffffffffffffffffffff\n      and\n        /* \"AdvContract.sol\":6377:6387  msg.sender */\n      caller\n        /* \"AdvContract.sol\":6368:6408  Transfer(msg.sender, address(0), amount) */\n      0xffffffffffffffffffffffffffffffffffffffff\n      and\n      0xddf252ad1be2c89b69c2b068fc378daa952ba7f163c4a11628f55a4df523b3ef\n        /* \"AdvContract.sol\":6401:6407  amount */\n      dup4\n        /* \"AdvContract.sol\":6368:6408  Transfer(msg.sender, address(0), amount) */\n      mload(0x40)\n      tag_238\n      swap2\n      swap1\n      tag_85\n      jump\t// in\n    tag_238:\n      mload(0x40)\n      dup1\n      swap2\n      sub\n      swap1\n      log3\n        /* \"AdvContract.sol\":6188:6416  function burn(uint256 amount) public {... */\n      pop\n      jump\t// out\n        /* \"AdvContract.sol\":1580:1640  mapping(uint256 => mapping(address => bool)) public hasVoted */\n    tag_78:\n      mstore(0x20, 0x07)\n      dup2\n      0x00\n      mstore\n      mstore(0x20, keccak256(0x00, 0x40))\n      dup1\n      0x00\n      mstore\n      keccak256(0x00, 0x40)\n      0x00\n      swap2\n      pop\n      swap2\n      pop\n      swap1\n      sload\n      swap1\n      0x0100\n      exp\n      swap1\n      div\n      0xff\n      and\n      dup2\n      jump\t// out\n        /* \"AdvContract.sol\":2486:2596  function balanceOf(address account) public view returns (uint256) {... */\n    tag_83:\n        /* \"AdvContract.sol\":2543:2550  uint256 */\n      0x00\n        /* \"AdvContract.sol\":2570:2579  _balances */\n      0x03\n        /* \"AdvContract.sol\":2570:2588  _balances[account] */\n      0x00\n        /* \"AdvContract.sol\":2580:2587  account */\n      dup4\n        /* \"AdvContract.sol\":2570:2588  _balances[account] */\n      0xffffffffffffffffffffffffffffffffffffffff\n      and\n      0xffffffffffffffffffffffffffffffffffffffff\n      and\n      dup2\n      mstore\n      0x20\n      add\n      swap1\n      dup2\n      mstore\n      0x20\n      add\n      0x00\n      keccak256\n      sload\n        /* \"AdvContract.sol\":2563:2588  return _balances[account] */\n      swap1\n      pop\n        /* \"AdvContract.sol\":2486:2596  function balanceOf(address account) public view returns (uint256) {... */\n      swap2\n      swap1\n      pop\n      jump\t// out\n        /* \"AdvContract.sol\":1653:1673  address public owner */\n    tag_87:\n      0x08\n      0x00\n      swap1\n      sload\n      swap1\n      0x0100\n      exp\n      swap1\n      div\n      0xffffffffffffffffffffffffffffffffffffffff\n      and\n      dup2\n      jump\t// out\n        /* \"AdvContract.sol\":960:1017  uint256 public constant TOTAL_SUPPLY = 1_000_000 * 10**18 */\n    tag_91:\n        /* \"AdvContract.sol\":999:1017  1_000_000 * 10**18 */\n      0xd3c21bcecceda1000000\n        /* \"AdvContract.sol\":960:1017  uint256 public constant TOTAL_SUPPLY = 1_000_000 * 10**18 */\n      dup2\n      jump\t// out\n        /* \"AdvContract.sol\":1024:1078  uint256 public constant MIN_PROPOSAL_DURATION = 1 days */\n    tag_94:\n        /* \"AdvContract.sol\":1072:1078  1 days */\n      0x015180\n        /* \"AdvContract.sol\":1024:1078  uint256 public constant MIN_PROPOSAL_DURATION = 1 days */\n      dup2\n      jump\t// out\n        /* \"AdvContract.sol\":1294:1322  string public symbol = \"ADV\" */\n    tag_97:\n      0x01\n      dup1\n      sload\n      tag_240\n      swap1\n      tag_158\n      jump\t// in\n    tag_240:\n      dup1\n      0x1f\n      add\n      0x20\n      dup1\n      swap2\n      div\n      mul\n      0x20\n      add\n      mload(0x40)\n      swap1\n      dup2\n      add\n      0x40\n      mstore\n      dup1\n      swap3\n      swap2\n      swap1\n      dup2\n      dup2\n      mstore\n      0x20\n      add\n      dup3\n      dup1\n      sload\n      tag_241\n      swap1\n      tag_158\n      jump\t// in\n    tag_241:\n      dup1\n      iszero\n      tag_242\n      jumpi\n      dup1\n      0x1f\n      lt\n      tag_243\n      jumpi\n      0x0100\n      dup1\n      dup4\n      sload\n      div\n      mul\n      dup4\n      mstore\n      swap2\n      0x20\n      add\n      swap2\n      jump(tag_242)\n    tag_243:\n      dup3\n      add\n      swap2\n      swap1\n      0x00\n      mstore\n      keccak256(0x00, 0x20)\n      swap1\n    tag_244:\n      dup2\n      sload\n      dup2\n      mstore\n      swap1\n      0x01\n      add\n      swap1\n      0x20\n      add\n      dup1\n      dup4\n      gt\n      tag_244\n      jumpi\n      dup3\n      swap1\n      sub\n      0x1f\n      and\n      dup3\n      add\n      swap2\n    tag_242:\n      pop\n      pop\n      pop\n      pop\n      pop\n      dup2\n      jump\t// out\n        /* \"AdvContract.sol\":1085:1137  uint256 public constant VOTE_THRESHOLD = 10 * 10**18 */\n    tag_100:\n        /* \"AdvContract.sol\":1126:1137  10 * 10**18 */\n      0x8ac7230489e80000\n        /* \"AdvContract.sol\":1085:1137  uint256 public constant VOTE_THRESHOLD = 10 * 10**18 */\n      dup2\n      jump\t// out\n        /* \"AdvContract.sol\":1534:1573  mapping(address => Voter) public voters */\n    tag_104:\n      mstore(0x20, 0x06)\n      dup1\n      0x00\n      mstore\n      keccak256(0x00, 0x40)\n      0x00\n      swap2\n      pop\n      swap1\n      pop\n      dup1\n      0x00\n      add\n      sload\n      swap1\n      dup1\n      0x01\n      add\n      0x00\n      swap1\n      sload\n      swap1\n      0x0100\n      exp\n      swap1\n      div\n      0xff\n      and\n      swap1\n      dup1\n      0x02\n      add\n      sload\n      swap1\n      pop\n      dup4\n      jump\t// out\n        /* \"AdvContract.sol\":1680:1709  uint256 public totalProposals */\n    tag_108:\n      sload(0x09)\n      dup2\n      jump\t// out\n        /* \"AdvContract.sol\":2608:2764  function transfer(address recipient, uint256 amount) public returns (bool) {... */\n    tag_112:\n        /* \"AdvContract.sol\":2677:2681  bool */\n      0x00\n        /* \"AdvContract.sol\":2694:2734  _transfer(msg.sender, recipient, amount) */\n      tag_246\n        /* \"AdvContract.sol\":2704:2714  msg.sender */\n      caller\n        /* \"AdvContract.sol\":2716:2725  recipient */\n      dup5\n        /* \"AdvContract.sol\":2727:2733  amount */\n      dup5\n        /* \"AdvContract.sol\":2694:2703  _transfer */\n      tag_192\n        /* \"AdvContract.sol\":2694:2734  _transfer(msg.sender, recipient, amount) */\n      jump\t// in\n    tag_246:\n        /* \"AdvContract.sol\":2752:2756  true */\n      0x01\n        /* \"AdvContract.sol\":2745:2756  return true */\n      swap1\n      pop\n        /* \"AdvContract.sol\":2608:2764  function transfer(address recipient, uint256 amount) public returns (bool) {... */\n      swap3\n      swap2\n      pop\n      pop\n      jump\t// out\n        /* \"AdvContract.sol\":6428:6528  function getProposalCount() public view returns (uint256) {... */\n    tag_115:\n        /* \"AdvContract.sol\":6477:6484  uint256 */\n      0x00\n        /* \"AdvContract.sol\":6504:6513  proposals */\n      0x05\n        /* \"AdvContract.sol\":6504:6520  proposals.length */\n      dup1\n      sload\n      swap1\n      pop\n        /* \"AdvContract.sol\":6497:6520  return proposals.length */\n      swap1\n      pop\n        /* \"AdvContract.sol\":6428:6528  function getProposalCount() public view returns (uint256) {... */\n      swap1\n      jump\t// out\n        /* \"AdvContract.sol\":2776:2912  function allowance(address _owner, address spender) public view returns (uint256) {... */\n    tag_120:\n        /* \"AdvContract.sol\":2849:2856  uint256 */\n      0x00\n        /* \"AdvContract.sol\":2876:2887  _allowances */\n      0x04\n        /* \"AdvContract.sol\":2876:2895  _allowances[_owner] */\n      0x00\n        /* \"AdvContract.sol\":2888:2894  _owner */\n      dup5\n        /* \"AdvContract.sol\":2876:2895  _allowances[_owner] */\n      0xffffffffffffffffffffffffffffffffffffffff\n      and\n      0xffffffffffffffffffffffffffffffffffffffff\n      and\n      dup2\n      mstore\n      0x20\n      add\n      swap1\n      dup2\n      mstore\n      0x20\n      add\n      0x00\n      keccak256\n        /* \"AdvContract.sol\":2876:2904  _allowances[_owner][spender] */\n      0x00\n        /* \"AdvContract.sol\":2896:2903  spender */\n      dup4\n        /* \"AdvContract.sol\":2876:2904  _allowances[_owner][spender] */\n      0xffffffffffffffffffffffffffffffffffffffff\n      and\n      0xffffffffffffffffffffffffffffffffffffffff\n      and\n      dup2\n      mstore\n      0x20\n      add\n      swap1\n      dup2\n      mstore\n      0x20\n      add\n      0x00\n      keccak256\n      sload\n        /* \"AdvContract.sol\":2869:2904  return _allowances[_owner][spender] */\n      swap1\n      pop\n        /* \"AdvContract.sol\":2776:2912  function allowance(address _owner, address spender) public view returns (uint256) {... */\n      swap3\n      swap2\n      pop\n      pop\n      jump\t// out\n        /* \"AdvContract.sol\":6926:7094  function transferOwnership(address newOwner) public onlyOwner {... */\n    tag_124:\n        /* \"AdvContract.sol\":1809:1814  owner */\n      0x08\n      0x00\n      swap1\n      sload\n      swap1\n      0x0100\n      exp\n      swap1\n      div\n      0xffffffffffffffffffffffffffffffffffffffff\n      and\n        /* \"AdvContract.sol\":1795:1814  msg.sender == owner */\n      0xffffffffffffffffffffffffffffffffffffffff\n      and\n        /* \"AdvContract.sol\":1795:1805  msg.sender */\n      caller\n        /* \"AdvContract.sol\":1795:1814  msg.sender == owner */\n      0xffffffffffffffffffffffffffffffffffffffff\n      and\n      eq\n        /* \"AdvContract.sol\":1787:1828  require(msg.sender == owner, \"Not owner\") */\n      tag_250\n      jumpi\n      mload(0x40)\n      0x08c379a000000000000000000000000000000000000000000000000000000000\n      dup2\n      mstore\n      0x04\n      add\n      tag_251\n      swap1\n      tag_199\n      jump\t// in\n    tag_251:\n      mload(0x40)\n      dup1\n      swap2\n      sub\n      swap1\n      revert\n    tag_250:\n        /* \"AdvContract.sol\":7027:7028  0 */\n      0x00\n        /* \"AdvContract.sol\":7007:7029  newOwner != address(0) */\n      0xffffffffffffffffffffffffffffffffffffffff\n      and\n        /* \"AdvContract.sol\":7007:7015  newOwner */\n      dup2\n        /* \"AdvContract.sol\":7007:7029  newOwner != address(0) */\n      0xffffffffffffffffffffffffffffffffffffffff\n      and\n      sub\n        /* \"AdvContract.sol\":6999:7059  require(newOwner != address(0), \"New owner is zero address\") */\n      tag_253\n      jumpi\n      mload(0x40)\n      0x08c379a000000000000000000000000000000000000000000000000000000000\n      dup2\n      mstore\n      0x04\n      add\n      tag_254\n      swap1\n      tag_255\n      jump\t// in\n    tag_254:\n      mload(0x40)\n      dup1\n      swap2\n      sub\n      swap1\n      revert\n    tag_253:\n        /* \"AdvContract.sol\":7078:7086  newOwner */\n      dup1\n        /* \"AdvContract.sol\":7070:7075  owner */\n      0x08\n      0x00\n        /* \"AdvContract.sol\":7070:7086  owner = newOwner */\n      0x0100\n      exp\n      dup2\n      sload\n      dup2\n      0xffffffffffffffffffffffffffffffffffffffff\n      mul\n      not\n      and\n      swap1\n      dup4\n      0xffffffffffffffffffffffffffffffffffffffff\n      and\n      mul\n      or\n      swap1\n      sstore\n      pop\n        /* \"AdvContract.sol\":6926:7094  function transferOwnership(address newOwner) public onlyOwner {... */\n      pop\n      jump\t// out\n        /* \"AdvContract.sol\":5569:5897  function _approve(address _owner, address spender, uint256 amount) internal {... */\n    tag_170:\n        /* \"AdvContract.sol\":5682:5683  0 */\n      0x00\n        /* \"AdvContract.sol\":5664:5684  _owner != address(0) */\n      0xffffffffffffffffffffffffffffffffffffffff\n      and\n        /* \"AdvContract.sol\":5664:5670  _owner */\n      dup4\n        /* \"AdvContract.sol\":5664:5684  _owner != address(0) */\n      0xffffffffffffffffffffffffffffffffffffffff\n      and\n      sub\n        /* \"AdvContract.sol\":5656:5714  require(_owner != address(0), \"Approve from zero address\") */\n      tag_257\n      jumpi\n      mload(0x40)\n      0x08c379a000000000000000000000000000000000000000000000000000000000\n      dup2\n      mstore\n      0x04\n      add\n      tag_258\n      swap1\n      tag_259\n      jump\t// in\n    tag_258:\n      mload(0x40)\n      dup1\n      swap2\n      sub\n      swap1\n      revert\n    tag_257:\n        /* \"AdvContract.sol\":5752:5753  0 */\n      0x00\n        /* \"AdvContract.sol\":5733:5754  spender != address(0) */\n      0xffffffffffffffffffffffffffffffffffffffff\n      and\n        /* \"AdvContract.sol\":5733:5740  spender */\n      dup3\n        /* \"AdvContract.sol\":5733:5754  spender != address(0) */\n      0xffffffffffffffffffffffffffffffffffffffff\n      and\n      sub\n        /* \"AdvContract.sol\":5725:5782  require(spender != address(0), \"Approve to zero address\") */\n      tag_260\n      jumpi\n      mload(0x40)\n      0x08c379a000000000000000000000000000000000000000000000000000000000\n      dup2\n      mstore\n      0x04\n      add\n      tag_261\n      swap1\n      tag_262\n      jump\t// in\n    tag_261:\n      mload(0x40)\n      dup1\n      swap2\n      sub\n      swap1\n      revert\n    tag_260:\n        /* \"AdvContract.sol\":5834:5840  amount */\n      dup1\n        /* \"AdvContract.sol\":5803:5814  _allowances */\n      0x04\n        /* \"AdvContract.sol\":5803:5822  _allowances[_owner] */\n      0x00\n        /* \"AdvContract.sol\":5815:5821  _owner */\n      dup6\n        /* \"AdvContract.sol\":5803:5822  _allowances[_owner] */\n      0xffffffffffffffffffffffffffffffffffffffff\n      and\n      0xffffffffffffffffffffffffffffffffffffffff\n      and\n      dup2\n      mstore\n      0x20\n      add\n      swap1\n      dup2\n      mstore\n      0x20\n      add\n      0x00\n      keccak256\n        /* \"AdvContract.sol\":5803:5831  _allowances[_owner][spender] */\n      0x00\n        /* \"AdvContract.sol\":5823:5830  spender */\n      dup5\n        /* \"AdvContract.sol\":5803:5831  _allowances[_owner][spender] */\n      0xffffffffffffffffffffffffffffffffffffffff\n      and\n      0xffffffffffffffffffffffffffffffffffffffff\n      and\n      dup2\n      mstore\n      0x20\n      add\n      swap1\n      dup2\n      mstore\n      0x20\n      add\n      0x00\n      keccak256\n        /* \"AdvContract.sol\":5803:5840  _allowances[_owner][spender] = amount */\n      dup2\n      swap1\n      sstore\n      pop\n        /* \"AdvContract.sol\":5873:5880  spender */\n      dup2\n        /* \"AdvContract.sol\":5856:5889  Approval(_owner, spender, amount) */\n      0xffffffffffffffffffffffffffffffffffffffff\n      and\n        /* \"AdvContract.sol\":5865:5871  _owner */\n      dup4\n        /* \"AdvContract.sol\":5856:5889  Approval(_owner, spender, amount) */\n      0xffffffffffffffffffffffffffffffffffffffff\n      and\n      0x8c5be1e5ebec7d5bd14f71427d1e84f3dd0314c0f7b2291e5b200ac8c7c3b925\n        /* \"AdvContract.sol\":5882:5888  amount */\n      dup4\n        /* \"AdvContract.sol\":5856:5889  Approval(_owner, spender, amount) */\n      mload(0x40)\n      tag_263\n      swap2\n      swap1\n      tag_85\n      jump\t// in\n    tag_263:\n      mload(0x40)\n      dup1\n      swap2\n      sub\n      swap1\n      log3\n        /* \"AdvContract.sol\":5569:5897  function _approve(address _owner, address spender, uint256 amount) internal {... */\n      pop\n      pop\n      pop\n      jump\t// out\n        /* \"AdvContract.sol\":5108:5557  function _transfer(address sender, address recipient, uint256 amount) internal {... */\n    tag_192:\n        /* \"AdvContract.sol\":5224:5225  0 */\n      0x00\n        /* \"AdvContract.sol\":5206:5226  sender != address(0) */\n      0xffffffffffffffffffffffffffffffffffffffff\n      and\n        /* \"AdvContract.sol\":5206:5212  sender */\n      dup4\n        /* \"AdvContract.sol\":5206:5226  sender != address(0) */\n      0xffffffffffffffffffffffffffffffffffffffff\n      and\n      sub\n        /* \"AdvContract.sol\":5198:5257  require(sender != address(0), \"Transfer from zero address\") */\n      tag_265\n      jumpi\n      mload(0x40)\n      0x08c379a000000000000000000000000000000000000000000000000000000000\n      dup2\n      mstore\n      0x04\n      add\n      tag_266\n      swap1\n      tag_267\n      jump\t// in\n    tag_266:\n      mload(0x40)\n      dup1\n      swap2\n      sub\n      swap1\n      revert\n    tag_265:\n        /* \"AdvContract.sol\":5297:5298  0 */\n      0x00\n        /* \"AdvContract.sol\":5276:5299  recipient != address(0) */\n      0xffffffffffffffffffffffffffffffffffffffff\n      and\n        /* \"AdvContract.sol\":5276:5285  recipient */\n      dup3\n        /* \"AdvContract.sol\":5276:5299  recipient != address(0) */\n      0xffffffffffffffffffffffffffffffffffffffff\n      and\n      sub\n        /* \"AdvContract.sol\":5268:5328  require(recipient != address(0), \"Transfer to zero address\") */\n      tag_268\n      jumpi\n      mload(0x40)\n      0x08c379a000000000000000000000000000000000000000000000000000000000\n      dup2\n      mstore\n      0x04\n      add\n      tag_269\n      swap1\n      tag_270\n      jump\t// in\n    tag_269:\n      mload(0x40)\n      dup1\n      swap2\n      sub\n      swap1\n      revert\n    tag_268:\n        /* \"AdvContract.sol\":5368:5374  amount */\n      dup1\n        /* \"AdvContract.sol\":5347:5356  _balances */\n      0x03\n        /* \"AdvContract.sol\":5347:5364  _balances[sender] */\n      0x00\n        /* \"AdvContract.sol\":5357:5363  sender */\n      dup6\n        /* \"AdvContract.sol\":5347:5364  _balances[sender] */\n      0xffffffffffffffffffffffffffffffffffffffff\n      and\n      0xffffffffffffffffffffffffffffffffffffffff\n      and\n      dup2\n      mstore\n      0x20\n      add\n      swap1\n      dup2\n      mstore\n      0x20\n      add\n      0x00\n      keccak256\n      sload\n        /* \"AdvContract.sol\":5347:5374  _balances[sender] >= amount */\n      lt\n      iszero\n        /* \"AdvContract.sol\":5339:5399  require(_balances[sender] >= amount, \"Insufficient balance\") */\n      tag_271\n      jumpi\n      mload(0x40)\n      0x08c379a000000000000000000000000000000000000000000000000000000000\n      dup2\n      mstore\n      0x04\n      add\n      tag_272\n      swap1\n      tag_236\n      jump\t// in\n    tag_272:\n      mload(0x40)\n      dup1\n      swap2\n      sub\n      swap1\n      revert\n    tag_271:\n        /* \"AdvContract.sol\":5441:5447  amount */\n      dup1\n        /* \"AdvContract.sol\":5420:5429  _balances */\n      0x03\n        /* \"AdvContract.sol\":5420:5437  _balances[sender] */\n      0x00\n        /* \"AdvContract.sol\":5430:5436  sender */\n      dup6\n        /* \"AdvContract.sol\":5420:5437  _balances[sender] */\n      0xffffffffffffffffffffffffffffffffffffffff\n      and\n      0xffffffffffffffffffffffffffffffffffffffff\n      and\n      dup2\n      mstore\n      0x20\n      add\n      swap1\n      dup2\n      mstore\n      0x20\n      add\n      0x00\n      keccak256\n      0x00\n        /* \"AdvContract.sol\":5420:5447  _balances[sender] -= amount */\n      dup3\n      dup3\n      sload\n      tag_273\n      swap2\n      swap1\n      tag_195\n      jump\t// in\n    tag_273:\n      swap3\n      pop\n      pop\n      dup2\n      swap1\n      sstore\n      pop\n        /* \"AdvContract.sol\":5482:5488  amount */\n      dup1\n        /* \"AdvContract.sol\":5458:5467  _balances */\n      0x03\n        /* \"AdvContract.sol\":5458:5478  _balances[recipient] */\n      0x00\n        /* \"AdvContract.sol\":5468:5477  recipient */\n      dup5\n        /* \"AdvContract.sol\":5458:5478  _balances[recipient] */\n      0xffffffffffffffffffffffffffffffffffffffff\n      and\n      0xffffffffffffffffffffffffffffffffffffffff\n      and\n      dup2\n      mstore\n      0x20\n      add\n      swap1\n      dup2\n      mstore\n      0x20\n      add\n      0x00\n      keccak256\n      0x00\n        /* \"AdvContract.sol\":5458:5488  _balances[recipient] += amount */\n      dup3\n      dup3\n      sload\n      tag_274\n      swap2\n      swap1\n      tag_154\n      jump\t// in\n    tag_274:\n      swap3\n      pop\n      pop\n      dup2\n      swap1\n      sstore\n      pop\n        /* \"AdvContract.sol\":5531:5540  recipient */\n      dup2\n        /* \"AdvContract.sol\":5514:5549  Transfer(sender, recipient, amount) */\n      0xffffffffffffffffffffffffffffffffffffffff\n      and\n        /* \"AdvContract.sol\":5523:5529  sender */\n      dup4\n        /* \"AdvContract.sol\":5514:5549  Transfer(sender, recipient, amount) */\n      0xffffffffffffffffffffffffffffffffffffffff\n      and\n      0xddf252ad1be2c89b69c2b068fc378daa952ba7f163c4a11628f55a4df523b3ef\n        /* \"AdvContract.sol\":5542:5548  amount */\n      dup4\n        /* \"AdvContract.sol\":5514:5549  Transfer(sender, recipient, amount) */\n      mload(0x40)\n      tag_275\n      swap2\n      swap1\n      tag_85\n      jump\t// in\n    tag_275:\n      mload(0x40)\n      dup1\n      swap2\n      sub\n      swap1\n      log3\n        /* \"AdvContract.sol\":5108:5557  function _transfer(address sender, address recipient, uint256 amount) internal {... */\n      pop\n      pop\n      pop\n      jump\t// out\n        /* \"#utility.yul\":7:82   */\n    tag_276:\n        /* \"#utility.yul\":40:46   */\n      0x00\n        /* \"#utility.yul\":73:75   */\n      0x40\n        /* \"#utility.yul\":67:76   */\n      mload\n        /* \"#utility.yul\":57:76   */\n      swap1\n      pop\n        /* \"#utility.yul\":7:82   */\n      swap1\n      jump\t// out\n        /* \"#utility.yul\":88:205   */\n    tag_277:\n        /* \"#utility.yul\":197:198   */\n      0x00\n        /* \"#utility.yul\":194:195   */\n      dup1\n        /* \"#utility.yul\":187:199   */\n      revert\n        /* \"#utility.yul\":211:328   */\n    tag_278:\n        /* \"#utility.yul\":320:321   */\n      0x00\n        /* \"#utility.yul\":317:318   */\n      dup1\n        /* \"#utility.yul\":310:322   */\n      revert\n        /* \"#utility.yul\":334:411   */\n    tag_279:\n        /* \"#utility.yul\":371:378   */\n      0x00\n        /* \"#utility.yul\":400:405   */\n      dup2\n        /* \"#utility.yul\":389:405   */\n      swap1\n      pop\n        /* \"#utility.yul\":334:411   */\n      swap2\n      swap1\n      pop\n      jump\t// out\n        /* \"#utility.yul\":417:539   */\n    tag_280:\n        /* \"#utility.yul\":490:514   */\n      tag_362\n        /* \"#utility.yul\":508:513   */\n      dup2\n        /* \"#utility.yul\":490:514   */\n      tag_279\n      jump\t// in\n    tag_362:\n        /* \"#utility.yul\":483:488   */\n      dup2\n        /* \"#utility.yul\":480:515   */\n      eq\n        /* \"#utility.yul\":470:533   */\n      tag_363\n      jumpi\n        /* \"#utility.yul\":529:530   */\n      0x00\n        /* \"#utility.yul\":526:527   */\n      dup1\n        /* \"#utility.yul\":519:531   */\n      revert\n        /* \"#utility.yul\":470:533   */\n    tag_363:\n        /* \"#utility.yul\":417:539   */\n      pop\n      jump\t// out\n        /* \"#utility.yul\":545:684   */\n    tag_281:\n        /* \"#utility.yul\":591:596   */\n      0x00\n        /* \"#utility.yul\":629:635   */\n      dup2\n        /* \"#utility.yul\":616:636   */\n      calldataload\n        /* \"#utility.yul\":607:636   */\n      swap1\n      pop\n        /* \"#utility.yul\":645:678   */\n      tag_365\n        /* \"#utility.yul\":672:677   */\n      dup2\n        /* \"#utility.yul\":645:678   */\n      tag_280\n      jump\t// in\n    tag_365:\n        /* \"#utility.yul\":545:684   */\n      swap3\n      swap2\n      pop\n      pop\n      jump\t// out\n        /* \"#utility.yul\":690:1019   */\n    tag_32:\n        /* \"#utility.yul\":749:755   */\n      0x00\n        /* \"#utility.yul\":798:800   */\n      0x20\n        /* \"#utility.yul\":786:795   */\n      dup3\n        /* \"#utility.yul\":777:784   */\n      dup5\n        /* \"#utility.yul\":773:796   */\n      sub\n        /* \"#utility.yul\":769:801   */\n      slt\n        /* \"#utility.yul\":766:885   */\n      iszero\n      tag_367\n      jumpi\n        /* \"#utility.yul\":804:883   */\n      tag_368\n      tag_277\n      jump\t// in\n    tag_368:\n        /* \"#utility.yul\":766:885   */\n    tag_367:\n        /* \"#utility.yul\":924:925   */\n      0x00\n        /* \"#utility.yul\":949:1002   */\n      tag_369\n        /* \"#utility.yul\":994:1001   */\n      dup5\n        /* \"#utility.yul\":985:991   */\n      dup3\n        /* \"#utility.yul\":974:983   */\n      dup6\n        /* \"#utility.yul\":970:992   */\n      add\n        /* \"#utility.yul\":949:1002   */\n      tag_281\n      jump\t// in\n    tag_369:\n        /* \"#utility.yul\":939:1002   */\n      swap2\n      pop\n        /* \"#utility.yul\":895:1012   */\n      pop\n        /* \"#utility.yul\":690:1019   */\n      swap3\n      swap2\n      pop\n      pop\n      jump\t// out\n        /* \"#utility.yul\":1025:1143   */\n    tag_282:\n        /* \"#utility.yul\":1112:1136   */\n      tag_371\n        /* \"#utility.yul\":1130:1135   */\n      dup2\n        /* \"#utility.yul\":1112:1136   */\n      tag_279\n      jump\t// in\n    tag_371:\n        /* \"#utility.yul\":1107:1110   */\n      dup3\n        /* \"#utility.yul\":1100:1137   */\n      mstore\n        /* \"#utility.yul\":1025:1143   */\n      pop\n      pop\n      jump\t// out\n        /* \"#utility.yul\":1149:1248   */\n    tag_283:\n        /* \"#utility.yul\":1201:1207   */\n      0x00\n        /* \"#utility.yul\":1235:1240   */\n      dup2\n        /* \"#utility.yul\":1229:1241   */\n      mload\n        /* \"#utility.yul\":1219:1241   */\n      swap1\n      pop\n        /* \"#utility.yul\":1149:1248   */\n      swap2\n      swap1\n      pop\n      jump\t// out\n        /* \"#utility.yul\":1254:1423   */\n    tag_284:\n        /* \"#utility.yul\":1338:1349   */\n      0x00\n        /* \"#utility.yul\":1372:1378   */\n      dup3\n        /* \"#utility.yul\":1367:1370   */\n      dup3\n        /* \"#utility.yul\":1360:1379   */\n      mstore\n        /* \"#utility.yul\":1412:1416   */\n      0x20\n        /* \"#utility.yul\":1407:1410   */\n      dup3\n        /* \"#utility.yul\":1403:1417   */\n      add\n        /* \"#utility.yul\":1388:1417   */\n      swap1\n      pop\n        /* \"#utility.yul\":1254:1423   */\n      swap3\n      swap2\n      pop\n      pop\n      jump\t// out\n        /* \"#utility.yul\":1429:1568   */\n    tag_285:\n        /* \"#utility.yul\":1518:1524   */\n      dup3\n        /* \"#utility.yul\":1513:1516   */\n      dup2\n        /* \"#utility.yul\":1508:1511   */\n      dup4\n        /* \"#utility.yul\":1502:1525   */\n      mcopy\n        /* \"#utility.yul\":1559:1560   */\n      0x00\n        /* \"#utility.yul\":1550:1556   */\n      dup4\n        /* \"#utility.yul\":1545:1548   */\n      dup4\n        /* \"#utility.yul\":1541:1557   */\n      add\n        /* \"#utility.yul\":1534:1561   */\n      mstore\n        /* \"#utility.yul\":1429:1568   */\n      pop\n      pop\n      pop\n      jump\t// out\n        /* \"#utility.yul\":1574:1676   */\n    tag_286:\n        /* \"#utility.yul\":1615:1621   */\n      0x00\n        /* \"#utility.yul\":1666:1668   */\n      0x1f\n        /* \"#utility.yul\":1662:1669   */\n      not\n        /* \"#utility.yul\":1657:1659   */\n      0x1f\n        /* \"#utility.yul\":1650:1655   */\n      dup4\n        /* \"#utility.yul\":1646:1660   */\n      add\n        /* \"#utility.yul\":1642:1670   */\n      and\n        /* \"#utility.yul\":1632:1670   */\n      swap1\n      pop\n        /* \"#utility.yul\":1574:1676   */\n      swap2\n      swap1\n      pop\n      jump\t// out\n        /* \"#utility.yul\":1682:2059   */\n    tag_287:\n        /* \"#utility.yul\":1770:1773   */\n      0x00\n        /* \"#utility.yul\":1798:1837   */\n      tag_377\n        /* \"#utility.yul\":1831:1836   */\n      dup3\n        /* \"#utility.yul\":1798:1837   */\n      tag_283\n      jump\t// in\n    tag_377:\n        /* \"#utility.yul\":1853:1924   */\n      tag_378\n        /* \"#utility.yul\":1917:1923   */\n      dup2\n        /* \"#utility.yul\":1912:1915   */\n      dup6\n        /* \"#utility.yul\":1853:1924   */\n      tag_284\n      jump\t// in\n    tag_378:\n        /* \"#utility.yul\":1846:1924   */\n      swap4\n      pop\n        /* \"#utility.yul\":1933:1998   */\n      tag_379\n        /* \"#utility.yul\":1991:1997   */\n      dup2\n        /* \"#utility.yul\":1986:1989   */\n      dup6\n        /* \"#utility.yul\":1979:1983   */\n      0x20\n        /* \"#utility.yul\":1972:1977   */\n      dup7\n        /* \"#utility.yul\":1968:1984   */\n      add\n        /* \"#utility.yul\":1933:1998   */\n      tag_285\n      jump\t// in\n    tag_379:\n        /* \"#utility.yul\":2023:2052   */\n      tag_380\n        /* \"#utility.yul\":2045:2051   */\n      dup2\n        /* \"#utility.yul\":2023:2052   */\n      tag_286\n      jump\t// in\n    tag_380:\n        /* \"#utility.yul\":2018:2021   */\n      dup5\n        /* \"#utility.yul\":2014:2053   */\n      add\n        /* \"#utility.yul\":2007:2053   */\n      swap2\n      pop\n        /* \"#utility.yul\":1774:2059   */\n      pop\n        /* \"#utility.yul\":1682:2059   */\n      swap3\n      swap2\n      pop\n      pop\n      jump\t// out\n        /* \"#utility.yul\":2065:2155   */\n    tag_288:\n        /* \"#utility.yul\":2099:2106   */\n      0x00\n        /* \"#utility.yul\":2142:2147   */\n      dup2\n        /* \"#utility.yul\":2135:2148   */\n      iszero\n        /* \"#utility.yul\":2128:2149   */\n      iszero\n        /* \"#utility.yul\":2117:2149   */\n      swap1\n      pop\n        /* \"#utility.yul\":2065:2155   */\n      swap2\n      swap1\n      pop\n      jump\t// out\n        /* \"#utility.yul\":2161:2270   */\n    tag_289:\n        /* \"#utility.yul\":2242:2263   */\n      tag_383\n        /* \"#utility.yul\":2257:2262   */\n      dup2\n        /* \"#utility.yul\":2242:2263   */\n      tag_288\n      jump\t// in\n    tag_383:\n        /* \"#utility.yul\":2237:2240   */\n      dup3\n        /* \"#utility.yul\":2230:2264   */\n      mstore\n        /* \"#utility.yul\":2161:2270   */\n      pop\n      pop\n      jump\t// out\n        /* \"#utility.yul\":2276:3019   */\n    tag_38:\n        /* \"#utility.yul\":2495:2499   */\n      0x00\n        /* \"#utility.yul\":2533:2536   */\n      0xa0\n        /* \"#utility.yul\":2522:2531   */\n      dup3\n        /* \"#utility.yul\":2518:2537   */\n      add\n        /* \"#utility.yul\":2510:2537   */\n      swap1\n      pop\n        /* \"#utility.yul\":2547:2618   */\n      tag_385\n        /* \"#utility.yul\":2615:2616   */\n      0x00\n        /* \"#utility.yul\":2604:2613   */\n      dup4\n        /* \"#utility.yul\":2600:2617   */\n      add\n        /* \"#utility.yul\":2591:2597   */\n      dup9\n        /* \"#utility.yul\":2547:2618   */\n      tag_282\n      jump\t// in\n    tag_385:\n        /* \"#utility.yul\":2665:2674   */\n      dup2\n        /* \"#utility.yul\":2659:2663   */\n      dup2\n        /* \"#utility.yul\":2655:2675   */\n      sub\n        /* \"#utility.yul\":2650:2652   */\n      0x20\n        /* \"#utility.yul\":2639:2648   */\n      dup4\n        /* \"#utility.yul\":2635:2653   */\n      add\n        /* \"#utility.yul\":2628:2676   */\n      mstore\n        /* \"#utility.yul\":2693:2771   */\n      tag_386\n        /* \"#utility.yul\":2766:2770   */\n      dup2\n        /* \"#utility.yul\":2757:2763   */\n      dup8\n        /* \"#utility.yul\":2693:2771   */\n      tag_287\n      jump\t// in\n    tag_386:\n        /* \"#utility.yul\":2685:2771   */\n      swap1\n      pop\n        /* \"#utility.yul\":2781:2853   */\n      tag_387\n        /* \"#utility.yul\":2849:2851   */\n      0x40\n        /* \"#utility.yul\":2838:2847   */\n      dup4\n        /* \"#utility.yul\":2834:2852   */\n      add\n        /* \"#utility.yul\":2825:2831   */\n      dup7\n        /* \"#utility.yul\":2781:2853   */\n      tag_282\n      jump\t// in\n    tag_387:\n        /* \"#utility.yul\":2863:2935   */\n      tag_388\n        /* \"#utility.yul\":2931:2933   */\n      0x60\n        /* \"#utility.yul\":2920:2929   */\n      dup4\n        /* \"#utility.yul\":2916:2934   */\n      add\n        /* \"#utility.yul\":2907:2913   */\n      dup6\n        /* \"#utility.yul\":2863:2935   */\n      tag_282\n      jump\t// in\n    tag_388:\n        /* \"#utility.yul\":2945:3012   */\n      tag_389\n        /* \"#utility.yul\":3007:3010   */\n      0x80\n        /* \"#utility.yul\":2996:3005   */\n      dup4\n        /* \"#utility.yul\":2992:3011   */\n      add\n        /* \"#utility.yul\":2983:2989   */\n      dup5\n        /* \"#utility.yul\":2945:3012   */\n      tag_289\n      jump\t// in\n    tag_389:\n        /* \"#utility.yul\":2276:3019   */\n      swap7\n      swap6\n      pop\n      pop\n      pop\n      pop\n      pop\n      pop\n      jump\t// out\n        /* \"#utility.yul\":3025:3338   */\n    tag_42:\n        /* \"#utility.yul\":3138:3142   */\n      0x00\n        /* \"#utility.yul\":3176:3178   */\n      0x20\n        /* \"#utility.yul\":3165:3174   */\n      dup3\n        /* \"#utility.yul\":3161:3179   */\n      add\n        /* \"#utility.yul\":3153:3179   */\n      swap1\n      pop\n        /* \"#utility.yul\":3225:3234   */\n      dup2\n        /* \"#utility.yul\":3219:3223   */\n      dup2\n        /* \"#utility.yul\":3215:3235   */\n      sub\n        /* \"#utility.yul\":3211:3212   */\n      0x00\n        /* \"#utility.yul\":3200:3209   */\n      dup4\n        /* \"#utility.yul\":3196:3213   */\n      add\n        /* \"#utility.yul\":3189:3236   */\n      mstore\n        /* \"#utility.yul\":3253:3331   */\n      tag_391\n        /* \"#utility.yul\":3326:3330   */\n      dup2\n        /* \"#utility.yul\":3317:3323   */\n      dup5\n        /* \"#utility.yul\":3253:3331   */\n      tag_287\n      jump\t// in\n    tag_391:\n        /* \"#utility.yul\":3245:3331   */\n      swap1\n      pop\n        /* \"#utility.yul\":3025:3338   */\n      swap3\n      swap2\n      pop\n      pop\n      jump\t// out\n        /* \"#utility.yul\":3344:3470   */\n    tag_290:\n        /* \"#utility.yul\":3381:3388   */\n      0x00\n        /* \"#utility.yul\":3421:3463   */\n      0xffffffffffffffffffffffffffffffffffffffff\n        /* \"#utility.yul\":3414:3419   */\n      dup3\n        /* \"#utility.yul\":3410:3464   */\n      and\n        /* \"#utility.yul\":3399:3464   */\n      swap1\n      pop\n        /* \"#utility.yul\":3344:3470   */\n      swap2\n      swap1\n      pop\n      jump\t// out\n        /* \"#utility.yul\":3476:3572   */\n    tag_291:\n        /* \"#utility.yul\":3513:3520   */\n      0x00\n        /* \"#utility.yul\":3542:3566   */\n      tag_394\n        /* \"#utility.yul\":3560:3565   */\n      dup3\n        /* \"#utility.yul\":3542:3566   */\n      tag_290\n      jump\t// in\n    tag_394:\n        /* \"#utility.yul\":3531:3566   */\n      swap1\n      pop\n        /* \"#utility.yul\":3476:3572   */\n      swap2\n      swap1\n      pop\n      jump\t// out\n        /* \"#utility.yul\":3578:3700   */\n    tag_292:\n        /* \"#utility.yul\":3651:3675   */\n      tag_396\n        /* \"#utility.yul\":3669:3674   */\n      dup2\n        /* \"#utility.yul\":3651:3675   */\n      tag_291\n      jump\t// in\n    tag_396:\n        /* \"#utility.yul\":3644:3649   */\n      dup2\n        /* \"#utility.yul\":3641:3676   */\n      eq\n        /* \"#utility.yul\":3631:3694   */\n      tag_397\n      jumpi\n        /* \"#utility.yul\":3690:3691   */\n      0x00\n        /* \"#utility.yul\":3687:3688   */\n      dup1\n        /* \"#utility.yul\":3680:3692   */\n      revert\n        /* \"#utility.yul\":3631:3694   */\n    tag_397:\n        /* \"#utility.yul\":3578:3700   */\n      pop\n      jump\t// out\n        /* \"#utility.yul\":3706:3845   */\n    tag_293:\n        /* \"#utility.yul\":3752:3757   */\n      0x00\n        /* \"#utility.yul\":3790:3796   */\n      dup2\n        /* \"#utility.yul\":3777:3797   */\n      calldataload\n        /* \"#utility.yul\":3768:3797   */\n      swap1\n      pop\n        /* \"#utility.yul\":3806:3839   */\n      tag_399\n        /* \"#utility.yul\":3833:3838   */\n      dup2\n        /* \"#utility.yul\":3806:3839   */\n      tag_292\n      jump\t// in\n    tag_399:\n        /* \"#utility.yul\":3706:3845   */\n      swap3\n      swap2\n      pop\n      pop\n      jump\t// out\n        /* \"#utility.yul\":3851:4325   */\n    tag_45:\n        /* \"#utility.yul\":3919:3925   */\n      0x00\n        /* \"#utility.yul\":3927:3933   */\n      dup1\n        /* \"#utility.yul\":3976:3978   */\n      0x40\n        /* \"#utility.yul\":3964:3973   */\n      dup4\n        /* \"#utility.yul\":3955:3962   */\n      dup6\n        /* \"#utility.yul\":3951:3974   */\n      sub\n        /* \"#utility.yul\":3947:3979   */\n      slt\n        /* \"#utility.yul\":3944:4063   */\n      iszero\n      tag_401\n      jumpi\n        /* \"#utility.yul\":3982:4061   */\n      tag_402\n      tag_277\n      jump\t// in\n    tag_402:\n        /* \"#utility.yul\":3944:4063   */\n    tag_401:\n        /* \"#utility.yul\":4102:4103   */\n      0x00\n        /* \"#utility.yul\":4127:4180   */\n      tag_403\n        /* \"#utility.yul\":4172:4179   */\n      dup6\n        /* \"#utility.yul\":4163:4169   */\n      dup3\n        /* \"#utility.yul\":4152:4161   */\n      dup7\n        /* \"#utility.yul\":4148:4170   */\n      add\n        /* \"#utility.yul\":4127:4180   */\n      tag_293\n      jump\t// in\n    tag_403:\n        /* \"#utility.yul\":4117:4180   */\n      swap3\n      pop\n        /* \"#utility.yul\":4073:4190   */\n      pop\n        /* \"#utility.yul\":4229:4231   */\n      0x20\n        /* \"#utility.yul\":4255:4308   */\n      tag_404\n        /* \"#utility.yul\":4300:4307   */\n      dup6\n        /* \"#utility.yul\":4291:4297   */\n      dup3\n        /* \"#utility.yul\":4280:4289   */\n      dup7\n        /* \"#utility.yul\":4276:4298   */\n      add\n        /* \"#utility.yul\":4255:4308   */\n      tag_281\n      jump\t// in\n    tag_404:\n        /* \"#utility.yul\":4245:4308   */\n      swap2\n      pop\n        /* \"#utility.yul\":4200:4318   */\n      pop\n        /* \"#utility.yul\":3851:4325   */\n      swap3\n      pop\n      swap3\n      swap1\n      pop\n      jump\t// out\n        /* \"#utility.yul\":4331:4541   */\n    tag_48:\n        /* \"#utility.yul\":4418:4422   */\n      0x00\n        /* \"#utility.yul\":4456:4458   */\n      0x20\n        /* \"#utility.yul\":4445:4454   */\n      dup3\n        /* \"#utility.yul\":4441:4459   */\n      add\n        /* \"#utility.yul\":4433:4459   */\n      swap1\n      pop\n        /* \"#utility.yul\":4469:4534   */\n      tag_406\n        /* \"#utility.yul\":4531:4532   */\n      0x00\n        /* \"#utility.yul\":4520:4529   */\n      dup4\n        /* \"#utility.yul\":4516:4533   */\n      add\n        /* \"#utility.yul\":4507:4513   */\n      dup5\n        /* \"#utility.yul\":4469:4534   */\n      tag_289\n      jump\t// in\n    tag_406:\n        /* \"#utility.yul\":4331:4541   */\n      swap3\n      swap2\n      pop\n      pop\n      jump\t// out\n        /* \"#utility.yul\":4547:5166   */\n    tag_54:\n        /* \"#utility.yul\":4624:4630   */\n      0x00\n        /* \"#utility.yul\":4632:4638   */\n      dup1\n        /* \"#utility.yul\":4640:4646   */\n      0x00\n        /* \"#utility.yul\":4689:4691   */\n      0x60\n        /* \"#utility.yul\":4677:4686   */\n      dup5\n        /* \"#utility.yul\":4668:4675   */\n      dup7\n        /* \"#utility.yul\":4664:4687   */\n      sub\n        /* \"#utility.yul\":4660:4692   */\n      slt\n        /* \"#utility.yul\":4657:4776   */\n      iszero\n      tag_408\n      jumpi\n        /* \"#utility.yul\":4695:4774   */\n      tag_409\n      tag_277\n      jump\t// in\n    tag_409:\n        /* \"#utility.yul\":4657:4776   */\n    tag_408:\n        /* \"#utility.yul\":4815:4816   */\n      0x00\n        /* \"#utility.yul\":4840:4893   */\n      tag_410\n        /* \"#utility.yul\":4885:4892   */\n      dup7\n        /* \"#utility.yul\":4876:4882   */\n      dup3\n        /* \"#utility.yul\":4865:4874   */\n      dup8\n        /* \"#utility.yul\":4861:4883   */\n      add\n        /* \"#utility.yul\":4840:4893   */\n      tag_293\n      jump\t// in\n    tag_410:\n        /* \"#utility.yul\":4830:4893   */\n      swap4\n      pop\n        /* \"#utility.yul\":4786:4903   */\n      pop\n        /* \"#utility.yul\":4942:4944   */\n      0x20\n        /* \"#utility.yul\":4968:5021   */\n      tag_411\n        /* \"#utility.yul\":5013:5020   */\n      dup7\n        /* \"#utility.yul\":5004:5010   */\n      dup3\n        /* \"#utility.yul\":4993:5002   */\n      dup8\n        /* \"#utility.yul\":4989:5011   */\n      add\n        /* \"#utility.yul\":4968:5021   */\n      tag_293\n      jump\t// in\n    tag_411:\n        /* \"#utility.yul\":4958:5021   */\n      swap3\n      pop\n        /* \"#utility.yul\":4913:5031   */\n      pop\n        /* \"#utility.yul\":5070:5072   */\n      0x40\n        /* \"#utility.yul\":5096:5149   */\n      tag_412\n        /* \"#utility.yul\":5141:5148   */\n      dup7\n        /* \"#utility.yul\":5132:5138   */\n      dup3\n        /* \"#utility.yul\":5121:5130   */\n      dup8\n        /* \"#utility.yul\":5117:5139   */\n      add\n        /* \"#utility.yul\":5096:5149   */\n      tag_281\n      jump\t// in\n    tag_412:\n        /* \"#utility.yul\":5086:5149   */\n      swap2\n      pop\n        /* \"#utility.yul\":5041:5159   */\n      pop\n        /* \"#utility.yul\":4547:5166   */\n      swap3\n      pop\n      swap3\n      pop\n      swap3\n      jump\t// out\n        /* \"#utility.yul\":5172:5258   */\n    tag_294:\n        /* \"#utility.yul\":5207:5214   */\n      0x00\n        /* \"#utility.yul\":5247:5251   */\n      0xff\n        /* \"#utility.yul\":5240:5245   */\n      dup3\n        /* \"#utility.yul\":5236:5252   */\n      and\n        /* \"#utility.yul\":5225:5252   */\n      swap1\n      pop\n        /* \"#utility.yul\":5172:5258   */\n      swap2\n      swap1\n      pop\n      jump\t// out\n        /* \"#utility.yul\":5264:5376   */\n    tag_295:\n        /* \"#utility.yul\":5347:5369   */\n      tag_415\n        /* \"#utility.yul\":5363:5368   */\n      dup2\n        /* \"#utility.yul\":5347:5369   */\n      tag_294\n      jump\t// in\n    tag_415:\n        /* \"#utility.yul\":5342:5345   */\n      dup3\n        /* \"#utility.yul\":5335:5370   */\n      mstore\n        /* \"#utility.yul\":5264:5376   */\n      pop\n      pop\n      jump\t// out\n        /* \"#utility.yul\":5382:5596   */\n    tag_60:\n        /* \"#utility.yul\":5471:5475   */\n      0x00\n        /* \"#utility.yul\":5509:5511   */\n      0x20\n        /* \"#utility.yul\":5498:5507   */\n      dup3\n        /* \"#utility.yul\":5494:5512   */\n      add\n        /* \"#utility.yul\":5486:5512   */\n      swap1\n      pop\n        /* \"#utility.yul\":5522:5589   */\n      tag_417\n        /* \"#utility.yul\":5586:5587   */\n      0x00\n        /* \"#utility.yul\":5575:5584   */\n      dup4\n        /* \"#utility.yul\":5571:5588   */\n      add\n        /* \"#utility.yul\":5562:5568   */\n      dup5\n        /* \"#utility.yul\":5522:5589   */\n      tag_295\n      jump\t// in\n    tag_417:\n        /* \"#utility.yul\":5382:5596   */\n      swap3\n      swap2\n      pop\n      pop\n      jump\t// out\n        /* \"#utility.yul\":5602:5719   */\n    tag_296:\n        /* \"#utility.yul\":5711:5712   */\n      0x00\n        /* \"#utility.yul\":5708:5709   */\n      dup1\n        /* \"#utility.yul\":5701:5713   */\n      revert\n        /* \"#utility.yul\":5725:5842   */\n    tag_297:\n        /* \"#utility.yul\":5834:5835   */\n      0x00\n        /* \"#utility.yul\":5831:5832   */\n      dup1\n        /* \"#utility.yul\":5824:5836   */\n      revert\n        /* \"#utility.yul\":5848:6028   */\n    tag_298:\n        /* \"#utility.yul\":5896:5973   */\n      0x4e487b7100000000000000000000000000000000000000000000000000000000\n        /* \"#utility.yul\":5893:5894   */\n      0x00\n        /* \"#utility.yul\":5886:5974   */\n      mstore\n        /* \"#utility.yul\":5993:5997   */\n      0x41\n        /* \"#utility.yul\":5990:5991   */\n      0x04\n        /* \"#utility.yul\":5983:5998   */\n      mstore\n        /* \"#utility.yul\":6017:6021   */\n      0x24\n        /* \"#utility.yul\":6014:6015   */\n      0x00\n        /* \"#utility.yul\":6007:6022   */\n      revert\n        /* \"#utility.yul\":6034:6315   */\n    tag_299:\n        /* \"#utility.yul\":6117:6144   */\n      tag_422\n        /* \"#utility.yul\":6139:6143   */\n      dup3\n        /* \"#utility.yul\":6117:6144   */\n      tag_286\n      jump\t// in\n    tag_422:\n        /* \"#utility.yul\":6109:6115   */\n      dup2\n        /* \"#utility.yul\":6105:6145   */\n      add\n        /* \"#utility.yul\":6247:6253   */\n      dup2\n        /* \"#utility.yul\":6235:6245   */\n      dup2\n        /* \"#utility.yul\":6232:6254   */\n      lt\n        /* \"#utility.yul\":6211:6229   */\n      0xffffffffffffffff\n        /* \"#utility.yul\":6199:6209   */\n      dup3\n        /* \"#utility.yul\":6196:6230   */\n      gt\n        /* \"#utility.yul\":6193:6255   */\n      or\n        /* \"#utility.yul\":6190:6278   */\n      iszero\n      tag_423\n      jumpi\n        /* \"#utility.yul\":6258:6276   */\n      tag_424\n      tag_298\n      jump\t// in\n    tag_424:\n        /* \"#utility.yul\":6190:6278   */\n    tag_423:\n        /* \"#utility.yul\":6298:6308   */\n      dup1\n        /* \"#utility.yul\":6294:6296   */\n      0x40\n        /* \"#utility.yul\":6287:6309   */\n      mstore\n        /* \"#utility.yul\":6077:6315   */\n      pop\n        /* \"#utility.yul\":6034:6315   */\n      pop\n      pop\n      jump\t// out\n        /* \"#utility.yul\":6321:6450   */\n    tag_300:\n        /* \"#utility.yul\":6355:6361   */\n      0x00\n        /* \"#utility.yul\":6382:6402   */\n      tag_426\n      tag_276\n      jump\t// in\n    tag_426:\n        /* \"#utility.yul\":6372:6402   */\n      swap1\n      pop\n        /* \"#utility.yul\":6411:6444   */\n      tag_427\n        /* \"#utility.yul\":6439:6443   */\n      dup3\n        /* \"#utility.yul\":6431:6437   */\n      dup3\n        /* \"#utility.yul\":6411:6444   */\n      tag_299\n      jump\t// in\n    tag_427:\n        /* \"#utility.yul\":6321:6450   */\n      swap2\n      swap1\n      pop\n      jump\t// out\n        /* \"#utility.yul\":6456:6764   */\n    tag_301:\n        /* \"#utility.yul\":6518:6522   */\n      0x00\n        /* \"#utility.yul\":6608:6626   */\n      0xffffffffffffffff\n        /* \"#utility.yul\":6600:6606   */\n      dup3\n        /* \"#utility.yul\":6597:6627   */\n      gt\n        /* \"#utility.yul\":6594:6650   */\n      iszero\n      tag_429\n      jumpi\n        /* \"#utility.yul\":6630:6648   */\n      tag_430\n      tag_298\n      jump\t// in\n    tag_430:\n        /* \"#utility.yul\":6594:6650   */\n    tag_429:\n        /* \"#utility.yul\":6668:6697   */\n      tag_431\n        /* \"#utility.yul\":6690:6696   */\n      dup3\n        /* \"#utility.yul\":6668:6697   */\n      tag_286\n      jump\t// in\n    tag_431:\n        /* \"#utility.yul\":6660:6697   */\n      swap1\n      pop\n        /* \"#utility.yul\":6752:6756   */\n      0x20\n        /* \"#utility.yul\":6746:6750   */\n      dup2\n        /* \"#utility.yul\":6742:6757   */\n      add\n        /* \"#utility.yul\":6734:6757   */\n      swap1\n      pop\n        /* \"#utility.yul\":6456:6764   */\n      swap2\n      swap1\n      pop\n      jump\t// out\n        /* \"#utility.yul\":6770:6918   */\n    tag_302:\n        /* \"#utility.yul\":6868:6874   */\n      dup3\n        /* \"#utility.yul\":6863:6866   */\n      dup2\n        /* \"#utility.yul\":6858:6861   */\n      dup4\n        /* \"#utility.yul\":6845:6875   */\n      calldatacopy\n        /* \"#utility.yul\":6909:6910   */\n      0x00\n        /* \"#utility.yul\":6900:6906   */\n      dup4\n        /* \"#utility.yul\":6895:6898   */\n      dup4\n        /* \"#utility.yul\":6891:6907   */\n      add\n        /* \"#utility.yul\":6884:6911   */\n      mstore\n        /* \"#utility.yul\":6770:6918   */\n      pop\n      pop\n      pop\n      jump\t// out\n        /* \"#utility.yul\":6924:7349   */\n    tag_303:\n        /* \"#utility.yul\":7002:7007   */\n      0x00\n        /* \"#utility.yul\":7027:7093   */\n      tag_434\n        /* \"#utility.yul\":7043:7092   */\n      tag_435\n        /* \"#utility.yul\":7085:7091   */\n      dup5\n        /* \"#utility.yul\":7043:7092   */\n      tag_301\n      jump\t// in\n    tag_435:\n        /* \"#utility.yul\":7027:7093   */\n      tag_300\n      jump\t// in\n    tag_434:\n        /* \"#utility.yul\":7018:7093   */\n      swap1\n      pop\n        /* \"#utility.yul\":7116:7122   */\n      dup3\n        /* \"#utility.yul\":7109:7114   */\n      dup2\n        /* \"#utility.yul\":7102:7123   */\n      mstore\n        /* \"#utility.yul\":7154:7158   */\n      0x20\n        /* \"#utility.yul\":7147:7152   */\n      dup2\n        /* \"#utility.yul\":7143:7159   */\n      add\n        /* \"#utility.yul\":7192:7195   */\n      dup5\n        /* \"#utility.yul\":7183:7189   */\n      dup5\n        /* \"#utility.yul\":7178:7181   */\n      dup5\n        /* \"#utility.yul\":7174:7190   */\n      add\n        /* \"#utility.yul\":7171:7196   */\n      gt\n        /* \"#utility.yul\":7168:7280   */\n      iszero\n      tag_436\n      jumpi\n        /* \"#utility.yul\":7199:7278   */\n      tag_437\n      tag_297\n      jump\t// in\n    tag_437:\n        /* \"#utility.yul\":7168:7280   */\n    tag_436:\n        /* \"#utility.yul\":7289:7343   */\n      tag_438\n        /* \"#utility.yul\":7336:7342   */\n      dup5\n        /* \"#utility.yul\":7331:7334   */\n      dup3\n        /* \"#utility.yul\":7326:7329   */\n      dup6\n        /* \"#utility.yul\":7289:7343   */\n      tag_302\n      jump\t// in\n    tag_438:\n        /* \"#utility.yul\":7008:7349   */\n      pop\n        /* \"#utility.yul\":6924:7349   */\n      swap4\n      swap3\n      pop\n      pop\n      pop\n      jump\t// out\n        /* \"#utility.yul\":7369:7709   */\n    tag_304:\n        /* \"#utility.yul\":7425:7430   */\n      0x00\n        /* \"#utility.yul\":7474:7477   */\n      dup3\n        /* \"#utility.yul\":7467:7471   */\n      0x1f\n        /* \"#utility.yul\":7459:7465   */\n      dup4\n        /* \"#utility.yul\":7455:7472   */\n      add\n        /* \"#utility.yul\":7451:7478   */\n      slt\n        /* \"#utility.yul\":7441:7563   */\n      tag_440\n      jumpi\n        /* \"#utility.yul\":7482:7561   */\n      tag_441\n      tag_296\n      jump\t// in\n    tag_441:\n        /* \"#utility.yul\":7441:7563   */\n    tag_440:\n        /* \"#utility.yul\":7599:7605   */\n      dup2\n        /* \"#utility.yul\":7586:7606   */\n      calldataload\n        /* \"#utility.yul\":7624:7703   */\n      tag_442\n        /* \"#utility.yul\":7699:7702   */\n      dup5\n        /* \"#utility.yul\":7691:7697   */\n      dup3\n        /* \"#utility.yul\":7684:7688   */\n      0x20\n        /* \"#utility.yul\":7676:7682   */\n      dup7\n        /* \"#utility.yul\":7672:7689   */\n      add\n        /* \"#utility.yul\":7624:7703   */\n      tag_303\n      jump\t// in\n    tag_442:\n        /* \"#utility.yul\":7615:7703   */\n      swap2\n      pop\n        /* \"#utility.yul\":7431:7709   */\n      pop\n        /* \"#utility.yul\":7369:7709   */\n      swap3\n      swap2\n      pop\n      pop\n      jump\t// out\n        /* \"#utility.yul\":7715:8369   */\n    tag_63:\n        /* \"#utility.yul\":7793:7799   */\n      0x00\n        /* \"#utility.yul\":7801:7807   */\n      dup1\n        /* \"#utility.yul\":7850:7852   */\n      0x40\n        /* \"#utility.yul\":7838:7847   */\n      dup4\n        /* \"#utility.yul\":7829:7836   */\n      dup6\n        /* \"#utility.yul\":7825:7848   */\n      sub\n        /* \"#utility.yul\":7821:7853   */\n      slt\n        /* \"#utility.yul\":7818:7937   */\n      iszero\n      tag_444\n      jumpi\n        /* \"#utility.yul\":7856:7935   */\n      tag_445\n      tag_277\n      jump\t// in\n    tag_445:\n        /* \"#utility.yul\":7818:7937   */\n    tag_444:\n        /* \"#utility.yul\":8004:8005   */\n      0x00\n        /* \"#utility.yul\":7993:8002   */\n      dup4\n        /* \"#utility.yul\":7989:8006   */\n      add\n        /* \"#utility.yul\":7976:8007   */\n      calldataload\n        /* \"#utility.yul\":8034:8052   */\n      0xffffffffffffffff\n        /* \"#utility.yul\":8026:8032   */\n      dup2\n        /* \"#utility.yul\":8023:8053   */\n      gt\n        /* \"#utility.yul\":8020:8137   */\n      iszero\n      tag_446\n      jumpi\n        /* \"#utility.yul\":8056:8135   */\n      tag_447\n      tag_278\n      jump\t// in\n    tag_447:\n        /* \"#utility.yul\":8020:8137   */\n    tag_446:\n        /* \"#utility.yul\":8161:8224   */\n      tag_448\n        /* \"#utility.yul\":8216:8223   */\n      dup6\n        /* \"#utility.yul\":8207:8213   */\n      dup3\n        /* \"#utility.yul\":8196:8205   */\n      dup7\n        /* \"#utility.yul\":8192:8214   */\n      add\n        /* \"#utility.yul\":8161:8224   */\n      tag_304\n      jump\t// in\n    tag_448:\n        /* \"#utility.yul\":8151:8224   */\n      swap3\n      pop\n        /* \"#utility.yul\":7947:8234   */\n      pop\n        /* \"#utility.yul\":8273:8275   */\n      0x20\n        /* \"#utility.yul\":8299:8352   */\n      tag_449\n        /* \"#utility.yul\":8344:8351   */\n      dup6\n        /* \"#utility.yul\":8335:8341   */\n      dup3\n        /* \"#utility.yul\":8324:8333   */\n      dup7\n        /* \"#utility.yul\":8320:8342   */\n      add\n        /* \"#utility.yul\":8299:8352   */\n      tag_281\n      jump\t// in\n    tag_449:\n        /* \"#utility.yul\":8289:8352   */\n      swap2\n      pop\n        /* \"#utility.yul\":8244:8362   */\n      pop\n        /* \"#utility.yul\":7715:8369   */\n      swap3\n      pop\n      swap3\n      swap1\n      pop\n      jump\t// out\n        /* \"#utility.yul\":8375:8849   */\n    tag_77:\n        /* \"#utility.yul\":8443:8449   */\n      0x00\n        /* \"#utility.yul\":8451:8457   */\n      dup1\n        /* \"#utility.yul\":8500:8502   */\n      0x40\n        /* \"#utility.yul\":8488:8497   */\n      dup4\n        /* \"#utility.yul\":8479:8486   */\n      dup6\n        /* \"#utility.yul\":8475:8498   */\n      sub\n        /* \"#utility.yul\":8471:8503   */\n      slt\n        /* \"#utility.yul\":8468:8587   */\n      iszero\n      tag_451\n      jumpi\n        /* \"#utility.yul\":8506:8585   */\n      tag_452\n      tag_277\n      jump\t// in\n    tag_452:\n        /* \"#utility.yul\":8468:8587   */\n    tag_451:\n        /* \"#utility.yul\":8626:8627   */\n      0x00\n        /* \"#utility.yul\":8651:8704   */\n      tag_453\n        /* \"#utility.yul\":8696:8703   */\n      dup6\n        /* \"#utility.yul\":8687:8693   */\n      dup3\n        /* \"#utility.yul\":8676:8685   */\n      dup7\n        /* \"#utility.yul\":8672:8694   */\n      add\n        /* \"#utility.yul\":8651:8704   */\n      tag_281\n      jump\t// in\n    tag_453:\n        /* \"#utility.yul\":8641:8704   */\n      swap3\n      pop\n        /* \"#utility.yul\":8597:8714   */\n      pop\n        /* \"#utility.yul\":8753:8755   */\n      0x20\n        /* \"#utility.yul\":8779:8832   */\n      tag_454\n        /* \"#utility.yul\":8824:8831   */\n      dup6\n        /* \"#utility.yul\":8815:8821   */\n      dup3\n        /* \"#utility.yul\":8804:8813   */\n      dup7\n        /* \"#utility.yul\":8800:8822   */\n      add\n        /* \"#utility.yul\":8779:8832   */\n      tag_293\n      jump\t// in\n    tag_454:\n        /* \"#utility.yul\":8769:8832   */\n      swap2\n      pop\n        /* \"#utility.yul\":8724:8842   */\n      pop\n        /* \"#utility.yul\":8375:8849   */\n      swap3\n      pop\n      swap3\n      swap1\n      pop\n      jump\t// out\n        /* \"#utility.yul\":8855:9184   */\n    tag_82:\n        /* \"#utility.yul\":8914:8920   */\n      0x00\n        /* \"#utility.yul\":8963:8965   */\n      0x20\n        /* \"#utility.yul\":8951:8960   */\n      dup3\n        /* \"#utility.yul\":8942:8949   */\n      dup5\n        /* \"#utility.yul\":8938:8961   */\n      sub\n        /* \"#utility.yul\":8934:8966   */\n      slt\n        /* \"#utility.yul\":8931:9050   */\n      iszero\n      tag_456\n      jumpi\n        /* \"#utility.yul\":8969:9048   */\n      tag_457\n      tag_277\n      jump\t// in\n    tag_457:\n        /* \"#utility.yul\":8931:9050   */\n    tag_456:\n        /* \"#utility.yul\":9089:9090   */\n      0x00\n        /* \"#utility.yul\":9114:9167   */\n      tag_458\n        /* \"#utility.yul\":9159:9166   */\n      dup5\n        /* \"#utility.yul\":9150:9156   */\n      dup3\n        /* \"#utility.yul\":9139:9148   */\n      dup6\n        /* \"#utility.yul\":9135:9157   */\n      add\n        /* \"#utility.yul\":9114:9167   */\n      tag_293\n      jump\t// in\n    tag_458:\n        /* \"#utility.yul\":9104:9167   */\n      swap2\n      pop\n        /* \"#utility.yul\":9060:9177   */\n      pop\n        /* \"#utility.yul\":8855:9184   */\n      swap3\n      swap2\n      pop\n      pop\n      jump\t// out\n        /* \"#utility.yul\":9190:9412   */\n    tag_85:\n        /* \"#utility.yul\":9283:9287   */\n      0x00\n        /* \"#utility.yul\":9321:9323   */\n      0x20\n        /* \"#utility.yul\":9310:9319   */\n      dup3\n        /* \"#utility.yul\":9306:9324   */\n      add\n        /* \"#utility.yul\":9298:9324   */\n      swap1\n      pop\n        /* \"#utility.yul\":9334:9405   */\n      tag_460\n        /* \"#utility.yul\":9402:9403   */\n      0x00\n        /* \"#utility.yul\":9391:9400   */\n      dup4\n        /* \"#utility.yul\":9387:9404   */\n      add\n        /* \"#utility.yul\":9378:9384   */\n      dup5\n        /* \"#utility.yul\":9334:9405   */\n      tag_282\n      jump\t// in\n    tag_460:\n        /* \"#utility.yul\":9190:9412   */\n      swap3\n      swap2\n      pop\n      pop\n      jump\t// out\n        /* \"#utility.yul\":9418:9536   */\n    tag_305:\n        /* \"#utility.yul\":9505:9529   */\n      tag_462\n        /* \"#utility.yul\":9523:9528   */\n      dup2\n        /* \"#utility.yul\":9505:9529   */\n      tag_291\n      jump\t// in\n    tag_462:\n        /* \"#utility.yul\":9500:9503   */\n      dup3\n        /* \"#utility.yul\":9493:9530   */\n      mstore\n        /* \"#utility.yul\":9418:9536   */\n      pop\n      pop\n      jump\t// out\n        /* \"#utility.yul\":9542:9764   */\n    tag_89:\n        /* \"#utility.yul\":9635:9639   */\n      0x00\n        /* \"#utility.yul\":9673:9675   */\n      0x20\n        /* \"#utility.yul\":9662:9671   */\n      dup3\n        /* \"#utility.yul\":9658:9676   */\n      add\n        /* \"#utility.yul\":9650:9676   */\n      swap1\n      pop\n        /* \"#utility.yul\":9686:9757   */\n      tag_464\n        /* \"#utility.yul\":9754:9755   */\n      0x00\n        /* \"#utility.yul\":9743:9752   */\n      dup4\n        /* \"#utility.yul\":9739:9756   */\n      add\n        /* \"#utility.yul\":9730:9736   */\n      dup5\n        /* \"#utility.yul\":9686:9757   */\n      tag_305\n      jump\t// in\n    tag_464:\n        /* \"#utility.yul\":9542:9764   */\n      swap3\n      swap2\n      pop\n      pop\n      jump\t// out\n        /* \"#utility.yul\":9770:10200   */\n    tag_106:\n        /* \"#utility.yul\":9913:9917   */\n      0x00\n        /* \"#utility.yul\":9951:9953   */\n      0x60\n        /* \"#utility.yul\":9940:9949   */\n      dup3\n        /* \"#utility.yul\":9936:9954   */\n      add\n        /* \"#utility.yul\":9928:9954   */\n      swap1\n      pop\n        /* \"#utility.yul\":9964:10035   */\n      tag_466\n        /* \"#utility.yul\":10032:10033   */\n      0x00\n        /* \"#utility.yul\":10021:10030   */\n      dup4\n        /* \"#utility.yul\":10017:10034   */\n      add\n        /* \"#utility.yul\":10008:10014   */\n      dup7\n        /* \"#utility.yul\":9964:10035   */\n      tag_282\n      jump\t// in\n    tag_466:\n        /* \"#utility.yul\":10045:10111   */\n      tag_467\n        /* \"#utility.yul\":10107:10109   */\n      0x20\n        /* \"#utility.yul\":10096:10105   */\n      dup4\n        /* \"#utility.yul\":10092:10110   */\n      add\n        /* \"#utility.yul\":10083:10089   */\n      dup6\n        /* \"#utility.yul\":10045:10111   */\n      tag_289\n      jump\t// in\n    tag_467:\n        /* \"#utility.yul\":10121:10193   */\n      tag_468\n        /* \"#utility.yul\":10189:10191   */\n      0x40\n        /* \"#utility.yul\":10178:10187   */\n      dup4\n        /* \"#utility.yul\":10174:10192   */\n      add\n        /* \"#utility.yul\":10165:10171   */\n      dup5\n        /* \"#utility.yul\":10121:10193   */\n      tag_282\n      jump\t// in\n    tag_468:\n        /* \"#utility.yul\":9770:10200   */\n      swap5\n      swap4\n      pop\n      pop\n      pop\n      pop\n      jump\t// out\n        /* \"#utility.yul\":10206:10680   */\n    tag_119:\n        /* \"#utility.yul\":10274:10280   */\n      0x00\n        /* \"#utility.yul\":10282:10288   */\n      dup1\n        /* \"#utility.yul\":10331:10333   */\n      0x40\n        /* \"#utility.yul\":10319:10328   */\n      dup4\n        /* \"#utility.yul\":10310:10317   */\n      dup6\n        /* \"#utility.yul\":10306:10329   */\n      sub\n        /* \"#utility.yul\":10302:10334   */\n      slt\n        /* \"#utility.yul\":10299:10418   */\n      iszero\n      tag_470\n      jumpi\n        /* \"#utility.yul\":10337:10416   */\n      tag_471\n      tag_277\n      jump\t// in\n    tag_471:\n        /* \"#utility.yul\":10299:10418   */\n    tag_470:\n        /* \"#utility.yul\":10457:10458   */\n      0x00\n        /* \"#utility.yul\":10482:10535   */\n      tag_472\n        /* \"#utility.yul\":10527:10534   */\n      dup6\n        /* \"#utility.yul\":10518:10524   */\n      dup3\n        /* \"#utility.yul\":10507:10516   */\n      dup7\n        /* \"#utility.yul\":10503:10525   */\n      add\n        /* \"#utility.yul\":10482:10535   */\n      tag_293\n      jump\t// in\n    tag_472:\n        /* \"#utility.yul\":10472:10535   */\n      swap3\n      pop\n        /* \"#utility.yul\":10428:10545   */\n      pop\n        /* \"#utility.yul\":10584:10586   */\n      0x20\n        /* \"#utility.yul\":10610:10663   */\n      tag_473\n        /* \"#utility.yul\":10655:10662   */\n      dup6\n        /* \"#utility.yul\":10646:10652   */\n      dup3\n        /* \"#utility.yul\":10635:10644   */\n      dup7\n        /* \"#utility.yul\":10631:10653   */\n      add\n        /* \"#utility.yul\":10610:10663   */\n      tag_293\n      jump\t// in\n    tag_473:\n        /* \"#utility.yul\":10600:10663   */\n      swap2\n      pop\n        /* \"#utility.yul\":10555:10673   */\n      pop\n        /* \"#utility.yul\":10206:10680   */\n      swap3\n      pop\n      swap3\n      swap1\n      pop\n      jump\t// out\n        /* \"#utility.yul\":10686:10858   */\n    tag_306:\n        /* \"#utility.yul\":10826:10850   */\n      0x50726f706f73616c20646f65736e277420657869737400000000000000000000\n        /* \"#utility.yul\":10822:10823   */\n      0x00\n        /* \"#utility.yul\":10814:10820   */\n      dup3\n        /* \"#utility.yul\":10810:10824   */\n      add\n        /* \"#utility.yul\":10803:10851   */\n      mstore\n        /* \"#utility.yul\":10686:10858   */\n      pop\n      jump\t// out\n        /* \"#utility.yul\":10864:11230   */\n    tag_307:\n        /* \"#utility.yul\":11006:11009   */\n      0x00\n        /* \"#utility.yul\":11027:11094   */\n      tag_476\n        /* \"#utility.yul\":11091:11093   */\n      0x16\n        /* \"#utility.yul\":11086:11089   */\n      dup4\n        /* \"#utility.yul\":11027:11094   */\n      tag_284\n      jump\t// in\n    tag_476:\n        /* \"#utility.yul\":11020:11094   */\n      swap2\n      pop\n        /* \"#utility.yul\":11103:11196   */\n      tag_477\n        /* \"#utility.yul\":11192:11195   */\n      dup3\n        /* \"#utility.yul\":11103:11196   */\n      tag_306\n      jump\t// in\n    tag_477:\n        /* \"#utility.yul\":11221:11223   */\n      0x20\n        /* \"#utility.yul\":11216:11219   */\n      dup3\n        /* \"#utility.yul\":11212:11224   */\n      add\n        /* \"#utility.yul\":11205:11224   */\n      swap1\n      pop\n        /* \"#utility.yul\":10864:11230   */\n      swap2\n      swap1\n      pop\n      jump\t// out\n        /* \"#utility.yul\":11236:11655   */\n    tag_128:\n        /* \"#utility.yul\":11402:11406   */\n      0x00\n        /* \"#utility.yul\":11440:11442   */\n      0x20\n        /* \"#utility.yul\":11429:11438   */\n      dup3\n        /* \"#utility.yul\":11425:11443   */\n      add\n        /* \"#utility.yul\":11417:11443   */\n      swap1\n      pop\n        /* \"#utility.yul\":11489:11498   */\n      dup2\n        /* \"#utility.yul\":11483:11487   */\n      dup2\n        /* \"#utility.yul\":11479:11499   */\n      sub\n        /* \"#utility.yul\":11475:11476   */\n      0x00\n        /* \"#utility.yul\":11464:11473   */\n      dup4\n        /* \"#utility.yul\":11460:11477   */\n      add\n        /* \"#utility.yul\":11453:11500   */\n      mstore\n        /* \"#utility.yul\":11517:11648   */\n      tag_479\n        /* \"#utility.yul\":11643:11647   */\n      dup2\n        /* \"#utility.yul\":11517:11648   */\n      tag_307\n      jump\t// in\n    tag_479:\n        /* \"#utility.yul\":11509:11648   */\n      swap1\n      pop\n        /* \"#utility.yul\":11236:11655   */\n      swap2\n      swap1\n      pop\n      jump\t// out\n        /* \"#utility.yul\":11661:11841   */\n    tag_132:\n        /* \"#utility.yul\":11709:11786   */\n      0x4e487b7100000000000000000000000000000000000000000000000000000000\n        /* \"#utility.yul\":11706:11707   */\n      0x00\n        /* \"#utility.yul\":11699:11787   */\n      mstore\n        /* \"#utility.yul\":11806:11810   */\n      0x32\n        /* \"#utility.yul\":11803:11804   */\n      0x04\n        /* \"#utility.yul\":11796:11811   */\n      mstore\n        /* \"#utility.yul\":11830:11834   */\n      0x24\n        /* \"#utility.yul\":11827:11828   */\n      0x00\n        /* \"#utility.yul\":11820:11835   */\n      revert\n        /* \"#utility.yul\":11847:12013   */\n    tag_308:\n        /* \"#utility.yul\":11987:12005   */\n      0x50726f706f73616c206578706972656400000000000000000000000000000000\n        /* \"#utility.yul\":11983:11984   */\n      0x00\n        /* \"#utility.yul\":11975:11981   */\n      dup3\n        /* \"#utility.yul\":11971:11985   */\n      add\n        /* \"#utility.yul\":11964:12006   */\n      mstore\n        /* \"#utility.yul\":11847:12013   */\n      pop\n      jump\t// out\n        /* \"#utility.yul\":12019:12385   */\n    tag_309:\n        /* \"#utility.yul\":12161:12164   */\n      0x00\n        /* \"#utility.yul\":12182:12249   */\n      tag_483\n        /* \"#utility.yul\":12246:12248   */\n      0x10\n        /* \"#utility.yul\":12241:12244   */\n      dup4\n        /* \"#utility.yul\":12182:12249   */\n      tag_284\n      jump\t// in\n    tag_483:\n        /* \"#utility.yul\":12175:12249   */\n      swap2\n      pop\n        /* \"#utility.yul\":12258:12351   */\n      tag_484\n        /* \"#utility.yul\":12347:12350   */\n      dup3\n        /* \"#utility.yul\":12258:12351   */\n      tag_308\n      jump\t// in\n    tag_484:\n        /* \"#utility.yul\":12376:12378   */\n      0x20\n        /* \"#utility.yul\":12371:12374   */\n      dup3\n        /* \"#utility.yul\":12367:12379   */\n      add\n        /* \"#utility.yul\":12360:12379   */\n      swap1\n      pop\n        /* \"#utility.yul\":12019:12385   */\n      swap2\n      swap1\n      pop\n      jump\t// out\n        /* \"#utility.yul\":12391:12810   */\n    tag_136:\n        /* \"#utility.yul\":12557:12561   */\n      0x00\n        /* \"#utility.yul\":12595:12597   */\n      0x20\n        /* \"#utility.yul\":12584:12593   */\n      dup3\n        /* \"#utility.yul\":12580:12598   */\n      add\n        /* \"#utility.yul\":12572:12598   */\n      swap1\n      pop\n        /* \"#utility.yul\":12644:12653   */\n      dup2\n        /* \"#utility.yul\":12638:12642   */\n      dup2\n        /* \"#utility.yul\":12634:12654   */\n      sub\n        /* \"#utility.yul\":12630:12631   */\n      0x00\n        /* \"#utility.yul\":12619:12628   */\n      dup4\n        /* \"#utility.yul\":12615:12632   */\n      add\n        /* \"#utility.yul\":12608:12655   */\n      mstore\n        /* \"#utility.yul\":12672:12803   */\n      tag_486\n        /* \"#utility.yul\":12798:12802   */\n      dup2\n        /* \"#utility.yul\":12672:12803   */\n      tag_309\n      jump\t// in\n    tag_486:\n        /* \"#utility.yul\":12664:12803   */\n      swap1\n      pop\n        /* \"#utility.yul\":12391:12810   */\n      swap2\n      swap1\n      pop\n      jump\t// out\n        /* \"#utility.yul\":12816:12991   */\n    tag_310:\n        /* \"#utility.yul\":12956:12983   */\n      0x50726f706f73616c20616c726561647920657865637574656400000000000000\n        /* \"#utility.yul\":12952:12953   */\n      0x00\n        /* \"#utility.yul\":12944:12950   */\n      dup3\n        /* \"#utility.yul\":12940:12954   */\n      add\n        /* \"#utility.yul\":12933:12984   */\n      mstore\n        /* \"#utility.yul\":12816:12991   */\n      pop\n      jump\t// out\n        /* \"#utility.yul\":12997:13363   */\n    tag_311:\n        /* \"#utility.yul\":13139:13142   */\n      0x00\n        /* \"#utility.yul\":13160:13227   */\n      tag_489\n        /* \"#utility.yul\":13224:13226   */\n      0x19\n        /* \"#utility.yul\":13219:13222   */\n      dup4\n        /* \"#utility.yul\":13160:13227   */\n      tag_284\n      jump\t// in\n    tag_489:\n        /* \"#utility.yul\":13153:13227   */\n      swap2\n      pop\n        /* \"#utility.yul\":13236:13329   */\n      tag_490\n        /* \"#utility.yul\":13325:13328   */\n      dup3\n        /* \"#utility.yul\":13236:13329   */\n      tag_310\n      jump\t// in\n    tag_490:\n        /* \"#utility.yul\":13354:13356   */\n      0x20\n        /* \"#utility.yul\":13349:13352   */\n      dup3\n        /* \"#utility.yul\":13345:13357   */\n      add\n        /* \"#utility.yul\":13338:13357   */\n      swap1\n      pop\n        /* \"#utility.yul\":12997:13363   */\n      swap2\n      swap1\n      pop\n      jump\t// out\n        /* \"#utility.yul\":13369:13788   */\n    tag_142:\n        /* \"#utility.yul\":13535:13539   */\n      0x00\n        /* \"#utility.yul\":13573:13575   */\n      0x20\n        /* \"#utility.yul\":13562:13571   */\n      dup3\n        /* \"#utility.yul\":13558:13576   */\n      add\n        /* \"#utility.yul\":13550:13576   */\n      swap1\n      pop\n        /* \"#utility.yul\":13622:13631   */\n      dup2\n        /* \"#utility.yul\":13616:13620   */\n      dup2\n        /* \"#utility.yul\":13612:13632   */\n      sub\n        /* \"#utility.yul\":13608:13609   */\n      0x00\n        /* \"#utility.yul\":13597:13606   */\n      dup4\n        /* \"#utility.yul\":13593:13610   */\n      add\n        /* \"#utility.yul\":13586:13633   */\n      mstore\n        /* \"#utility.yul\":13650:13781   */\n      tag_492\n        /* \"#utility.yul\":13776:13780   */\n      dup2\n        /* \"#utility.yul\":13650:13781   */\n      tag_311\n      jump\t// in\n    tag_492:\n        /* \"#utility.yul\":13642:13781   */\n      swap1\n      pop\n        /* \"#utility.yul\":13369:13788   */\n      swap2\n      swap1\n      pop\n      jump\t// out\n        /* \"#utility.yul\":13794:13971   */\n    tag_312:\n        /* \"#utility.yul\":13934:13963   */\n      0x496e73756666696369656e7420746f6b656e7320746f20766f74650000000000\n        /* \"#utility.yul\":13930:13931   */\n      0x00\n        /* \"#utility.yul\":13922:13928   */\n      dup3\n        /* \"#utility.yul\":13918:13932   */\n      add\n        /* \"#utility.yul\":13911:13964   */\n      mstore\n        /* \"#utility.yul\":13794:13971   */\n      pop\n      jump\t// out\n        /* \"#utility.yul\":13977:14343   */\n    tag_313:\n        /* \"#utility.yul\":14119:14122   */\n      0x00\n        /* \"#utility.yul\":14140:14207   */\n      tag_495\n        /* \"#utility.yul\":14204:14206   */\n      0x1b\n        /* \"#utility.yul\":14199:14202   */\n      dup4\n        /* \"#utility.yul\":14140:14207   */\n      tag_284\n      jump\t// in\n    tag_495:\n        /* \"#utility.yul\":14133:14207   */\n      swap2\n      pop\n        /* \"#utility.yul\":14216:14309   */\n      tag_496\n        /* \"#utility.yul\":14305:14308   */\n      dup3\n        /* \"#utility.yul\":14216:14309   */\n      tag_312\n      jump\t// in\n    tag_496:\n        /* \"#utility.yul\":14334:14336   */\n      0x20\n        /* \"#utility.yul\":14329:14332   */\n      dup3\n        /* \"#utility.yul\":14325:14337   */\n      add\n        /* \"#utility.yul\":14318:14337   */\n      swap1\n      pop\n        /* \"#utility.yul\":13977:14343   */\n      swap2\n      swap1\n      pop\n      jump\t// out\n        /* \"#utility.yul\":14349:14768   */\n    tag_146:\n        /* \"#utility.yul\":14515:14519   */\n      0x00\n        /* \"#utility.yul\":14553:14555   */\n      0x20\n        /* \"#utility.yul\":14542:14551   */\n      dup3\n        /* \"#utility.yul\":14538:14556   */\n      add\n        /* \"#utility.yul\":14530:14556   */\n      swap1\n      pop\n        /* \"#utility.yul\":14602:14611   */\n      dup2\n        /* \"#utility.yul\":14596:14600   */\n      dup2\n        /* \"#utility.yul\":14592:14612   */\n      sub\n        /* \"#utility.yul\":14588:14589   */\n      0x00\n        /* \"#utility.yul\":14577:14586   */\n      dup4\n        /* \"#utility.yul\":14573:14590   */\n      add\n        /* \"#utility.yul\":14566:14613   */\n      mstore\n        /* \"#utility.yul\":14630:14761   */\n      tag_498\n        /* \"#utility.yul\":14756:14760   */\n      dup2\n        /* \"#utility.yul\":14630:14761   */\n      tag_313\n      jump\t// in\n    tag_498:\n        /* \"#utility.yul\":14622:14761   */\n      swap1\n      pop\n        /* \"#utility.yul\":14349:14768   */\n      swap2\n      swap1\n      pop\n      jump\t// out\n        /* \"#utility.yul\":14774:14937   */\n    tag_314:\n        /* \"#utility.yul\":14914:14929   */\n      0x416c726561647920766f74656400000000000000000000000000000000000000\n        /* \"#utility.yul\":14910:14911   */\n      0x00\n        /* \"#utility.yul\":14902:14908   */\n      dup3\n        /* \"#utility.yul\":14898:14912   */\n      add\n        /* \"#utility.yul\":14891:14930   */\n      mstore\n        /* \"#utility.yul\":14774:14937   */\n      pop\n      jump\t// out\n        /* \"#utility.yul\":14943:15309   */\n    tag_315:\n        /* \"#utility.yul\":15085:15088   */\n      0x00\n        /* \"#utility.yul\":15106:15173   */\n      tag_501\n        /* \"#utility.yul\":15170:15172   */\n      0x0d\n        /* \"#utility.yul\":15165:15168   */\n      dup4\n        /* \"#utility.yul\":15106:15173   */\n      tag_284\n      jump\t// in\n    tag_501:\n        /* \"#utility.yul\":15099:15173   */\n      swap2\n      pop\n        /* \"#utility.yul\":15182:15275   */\n      tag_502\n        /* \"#utility.yul\":15271:15274   */\n      dup3\n        /* \"#utility.yul\":15182:15275   */\n      tag_314\n      jump\t// in\n    tag_502:\n        /* \"#utility.yul\":15300:15302   */\n      0x20\n        /* \"#utility.yul\":15295:15298   */\n      dup3\n        /* \"#utility.yul\":15291:15303   */\n      add\n        /* \"#utility.yul\":15284:15303   */\n      swap1\n      pop\n        /* \"#utility.yul\":14943:15309   */\n      swap2\n      swap1\n      pop\n      jump\t// out\n        /* \"#utility.yul\":15315:15734   */\n    tag_149:\n        /* \"#utility.yul\":15481:15485   */\n      0x00\n        /* \"#utility.yul\":15519:15521   */\n      0x20\n        /* \"#utility.yul\":15508:15517   */\n      dup3\n        /* \"#utility.yul\":15504:15522   */\n      add\n        /* \"#utility.yul\":15496:15522   */\n      swap1\n      pop\n        /* \"#utility.yul\":15568:15577   */\n      dup2\n        /* \"#utility.yul\":15562:15566   */\n      dup2\n        /* \"#utility.yul\":15558:15578   */\n      sub\n        /* \"#utility.yul\":15554:15555   */\n      0x00\n        /* \"#utility.yul\":15543:15552   */\n      dup4\n        /* \"#utility.yul\":15539:15556   */\n      add\n        /* \"#utility.yul\":15532:15579   */\n      mstore\n        /* \"#utility.yul\":15596:15727   */\n      tag_504\n        /* \"#utility.yul\":15722:15726   */\n      dup2\n        /* \"#utility.yul\":15596:15727   */\n      tag_315\n      jump\t// in\n    tag_504:\n        /* \"#utility.yul\":15588:15727   */\n      swap1\n      pop\n        /* \"#utility.yul\":15315:15734   */\n      swap2\n      swap1\n      pop\n      jump\t// out\n        /* \"#utility.yul\":15740:15920   */\n    tag_316:\n        /* \"#utility.yul\":15788:15865   */\n      0x4e487b7100000000000000000000000000000000000000000000000000000000\n        /* \"#utility.yul\":15785:15786   */\n      0x00\n        /* \"#utility.yul\":15778:15866   */\n      mstore\n        /* \"#utility.yul\":15885:15889   */\n      0x11\n        /* \"#utility.yul\":15882:15883   */\n      0x04\n        /* \"#utility.yul\":15875:15890   */\n      mstore\n        /* \"#utility.yul\":15909:15913   */\n      0x24\n        /* \"#utility.yul\":15906:15907   */\n      0x00\n        /* \"#utility.yul\":15899:15914   */\n      revert\n        /* \"#utility.yul\":15926:16117   */\n    tag_154:\n        /* \"#utility.yul\":15966:15969   */\n      0x00\n        /* \"#utility.yul\":15985:16005   */\n      tag_507\n        /* \"#utility.yul\":16003:16004   */\n      dup3\n        /* \"#utility.yul\":15985:16005   */\n      tag_279\n      jump\t// in\n    tag_507:\n        /* \"#utility.yul\":15980:16005   */\n      swap2\n      pop\n        /* \"#utility.yul\":16019:16039   */\n      tag_508\n        /* \"#utility.yul\":16037:16038   */\n      dup4\n        /* \"#utility.yul\":16019:16039   */\n      tag_279\n      jump\t// in\n    tag_508:\n        /* \"#utility.yul\":16014:16039   */\n      swap3\n      pop\n        /* \"#utility.yul\":16062:16063   */\n      dup3\n        /* \"#utility.yul\":16059:16060   */\n      dup3\n        /* \"#utility.yul\":16055:16064   */\n      add\n        /* \"#utility.yul\":16048:16064   */\n      swap1\n      pop\n        /* \"#utility.yul\":16083:16086   */\n      dup1\n        /* \"#utility.yul\":16080:16081   */\n      dup3\n        /* \"#utility.yul\":16077:16087   */\n      gt\n        /* \"#utility.yul\":16074:16110   */\n      iszero\n      tag_509\n      jumpi\n        /* \"#utility.yul\":16090:16108   */\n      tag_510\n      tag_316\n      jump\t// in\n    tag_510:\n        /* \"#utility.yul\":16074:16110   */\n    tag_509:\n        /* \"#utility.yul\":15926:16117   */\n      swap3\n      swap2\n      pop\n      pop\n      jump\t// out\n        /* \"#utility.yul\":16123:16303   */\n    tag_317:\n        /* \"#utility.yul\":16171:16248   */\n      0x4e487b7100000000000000000000000000000000000000000000000000000000\n        /* \"#utility.yul\":16168:16169   */\n      0x00\n        /* \"#utility.yul\":16161:16249   */\n      mstore\n        /* \"#utility.yul\":16268:16272   */\n      0x22\n        /* \"#utility.yul\":16265:16266   */\n      0x04\n        /* \"#utility.yul\":16258:16273   */\n      mstore\n        /* \"#utility.yul\":16292:16296   */\n      0x24\n        /* \"#utility.yul\":16289:16290   */\n      0x00\n        /* \"#utility.yul\":16282:16297   */\n      revert\n        /* \"#utility.yul\":16309:16629   */\n    tag_158:\n        /* \"#utility.yul\":16353:16359   */\n      0x00\n        /* \"#utility.yul\":16390:16391   */\n      0x02\n        /* \"#utility.yul\":16384:16388   */\n      dup3\n        /* \"#utility.yul\":16380:16392   */\n      div\n        /* \"#utility.yul\":16370:16392   */\n      swap1\n      pop\n        /* \"#utility.yul\":16437:16438   */\n      0x01\n        /* \"#utility.yul\":16431:16435   */\n      dup3\n        /* \"#utility.yul\":16427:16439   */\n      and\n        /* \"#utility.yul\":16458:16476   */\n      dup1\n        /* \"#utility.yul\":16448:16529   */\n      tag_513\n      jumpi\n        /* \"#utility.yul\":16514:16518   */\n      0x7f\n        /* \"#utility.yul\":16506:16512   */\n      dup3\n        /* \"#utility.yul\":16502:16519   */\n      and\n        /* \"#utility.yul\":16492:16519   */\n      swap2\n      pop\n        /* \"#utility.yul\":16448:16529   */\n    tag_513:\n        /* \"#utility.yul\":16576:16578   */\n      0x20\n        /* \"#utility.yul\":16568:16574   */\n      dup3\n        /* \"#utility.yul\":16565:16579   */\n      lt\n        /* \"#utility.yul\":16545:16563   */\n      dup2\n        /* \"#utility.yul\":16542:16580   */\n      sub\n        /* \"#utility.yul\":16539:16623   */\n      tag_514\n      jumpi\n        /* \"#utility.yul\":16595:16613   */\n      tag_515\n      tag_317\n      jump\t// in\n    tag_515:\n        /* \"#utility.yul\":16539:16623   */\n    tag_514:\n        /* \"#utility.yul\":16360:16629   */\n      pop\n        /* \"#utility.yul\":16309:16629   */\n      swap2\n      swap1\n      pop\n      jump\t// out\n        /* \"#utility.yul\":16635:16805   */\n    tag_318:\n        /* \"#utility.yul\":16775:16797   */\n      0x566f74696e67207374696c6c206f6e676f696e67000000000000000000000000\n        /* \"#utility.yul\":16771:16772   */\n      0x00\n        /* \"#utility.yul\":16763:16769   */\n      dup3\n        /* \"#utility.yul\":16759:16773   */\n      add\n        /* \"#utility.yul\":16752:16798   */\n      mstore\n        /* \"#utility.yul\":16635:16805   */\n      pop\n      jump\t// out\n        /* \"#utility.yul\":16811:17177   */\n    tag_319:\n        /* \"#utility.yul\":16953:16956   */\n      0x00\n        /* \"#utility.yul\":16974:17041   */\n      tag_518\n        /* \"#utility.yul\":17038:17040   */\n      0x14\n        /* \"#utility.yul\":17033:17036   */\n      dup4\n        /* \"#utility.yul\":16974:17041   */\n      tag_284\n      jump\t// in\n    tag_518:\n        /* \"#utility.yul\":16967:17041   */\n      swap2\n      pop\n        /* \"#utility.yul\":17050:17143   */\n      tag_519\n        /* \"#utility.yul\":17139:17142   */\n      dup3\n        /* \"#utility.yul\":17050:17143   */\n      tag_318\n      jump\t// in\n    tag_519:\n        /* \"#utility.yul\":17168:17170   */\n      0x20\n        /* \"#utility.yul\":17163:17166   */\n      dup3\n        /* \"#utility.yul\":17159:17171   */\n      add\n        /* \"#utility.yul\":17152:17171   */\n      swap1\n      pop\n        /* \"#utility.yul\":16811:17177   */\n      swap2\n      swap1\n      pop\n      jump\t// out\n        /* \"#utility.yul\":17183:17602   */\n    tag_180:\n        /* \"#utility.yul\":17349:17353   */\n      0x00\n        /* \"#utility.yul\":17387:17389   */\n      0x20\n        /* \"#utility.yul\":17376:17385   */\n      dup3\n        /* \"#utility.yul\":17372:17390   */\n      add\n        /* \"#utility.yul\":17364:17390   */\n      swap1\n      pop\n        /* \"#utility.yul\":17436:17445   */\n      dup2\n        /* \"#utility.yul\":17430:17434   */\n      dup2\n        /* \"#utility.yul\":17426:17446   */\n      sub\n        /* \"#utility.yul\":17422:17423   */\n      0x00\n        /* \"#utility.yul\":17411:17420   */\n      dup4\n        /* \"#utility.yul\":17407:17424   */\n      add\n        /* \"#utility.yul\":17400:17447   */\n      mstore\n        /* \"#utility.yul\":17464:17595   */\n      tag_521\n        /* \"#utility.yul\":17590:17594   */\n      dup2\n        /* \"#utility.yul\":17464:17595   */\n      tag_319\n      jump\t// in\n    tag_521:\n        /* \"#utility.yul\":17456:17595   */\n      swap1\n      pop\n        /* \"#utility.yul\":17183:17602   */\n      swap2\n      swap1\n      pop\n      jump\t// out\n        /* \"#utility.yul\":17608:18018   */\n    tag_184:\n        /* \"#utility.yul\":17648:17655   */\n      0x00\n        /* \"#utility.yul\":17671:17691   */\n      tag_523\n        /* \"#utility.yul\":17689:17690   */\n      dup3\n        /* \"#utility.yul\":17671:17691   */\n      tag_279\n      jump\t// in\n    tag_523:\n        /* \"#utility.yul\":17666:17691   */\n      swap2\n      pop\n        /* \"#utility.yul\":17705:17725   */\n      tag_524\n        /* \"#utility.yul\":17723:17724   */\n      dup4\n        /* \"#utility.yul\":17705:17725   */\n      tag_279\n      jump\t// in\n    tag_524:\n        /* \"#utility.yul\":17700:17725   */\n      swap3\n      pop\n        /* \"#utility.yul\":17760:17761   */\n      dup3\n        /* \"#utility.yul\":17757:17758   */\n      dup3\n        /* \"#utility.yul\":17753:17762   */\n      mul\n        /* \"#utility.yul\":17782:17812   */\n      tag_525\n        /* \"#utility.yul\":17800:17811   */\n      dup2\n        /* \"#utility.yul\":17782:17812   */\n      tag_279\n      jump\t// in\n    tag_525:\n        /* \"#utility.yul\":17771:17812   */\n      swap2\n      pop\n        /* \"#utility.yul\":17961:17962   */\n      dup3\n        /* \"#utility.yul\":17952:17959   */\n      dup3\n        /* \"#utility.yul\":17948:17963   */\n      div\n        /* \"#utility.yul\":17945:17946   */\n      dup5\n        /* \"#utility.yul\":17942:17964   */\n      eq\n        /* \"#utility.yul\":17922:17923   */\n      dup4\n        /* \"#utility.yul\":17915:17924   */\n      iszero\n        /* \"#utility.yul\":17895:17978   */\n      or\n        /* \"#utility.yul\":17872:18011   */\n      tag_526\n      jumpi\n        /* \"#utility.yul\":17991:18009   */\n      tag_527\n      tag_316\n      jump\t// in\n    tag_527:\n        /* \"#utility.yul\":17872:18011   */\n    tag_526:\n        /* \"#utility.yul\":17656:18018   */\n      pop\n        /* \"#utility.yul\":17608:18018   */\n      swap3\n      swap2\n      pop\n      pop\n      jump\t// out\n        /* \"#utility.yul\":18024:18204   */\n    tag_320:\n        /* \"#utility.yul\":18072:18149   */\n      0x4e487b7100000000000000000000000000000000000000000000000000000000\n        /* \"#utility.yul\":18069:18070   */\n      0x00\n        /* \"#utility.yul\":18062:18150   */\n      mstore\n        /* \"#utility.yul\":18169:18173   */\n      0x12\n        /* \"#utility.yul\":18166:18167   */\n      0x04\n        /* \"#utility.yul\":18159:18174   */\n      mstore\n        /* \"#utility.yul\":18193:18197   */\n      0x24\n        /* \"#utility.yul\":18190:18191   */\n      0x00\n        /* \"#utility.yul\":18183:18198   */\n      revert\n        /* \"#utility.yul\":18210:18395   */\n    tag_186:\n        /* \"#utility.yul\":18250:18251   */\n      0x00\n        /* \"#utility.yul\":18267:18287   */\n      tag_530\n        /* \"#utility.yul\":18285:18286   */\n      dup3\n        /* \"#utility.yul\":18267:18287   */\n      tag_279\n      jump\t// in\n    tag_530:\n        /* \"#utility.yul\":18262:18287   */\n      swap2\n      pop\n        /* \"#utility.yul\":18301:18321   */\n      tag_531\n        /* \"#utility.yul\":18319:18320   */\n      dup4\n        /* \"#utility.yul\":18301:18321   */\n      tag_279\n      jump\t// in\n    tag_531:\n        /* \"#utility.yul\":18296:18321   */\n      swap3\n      pop\n        /* \"#utility.yul\":18340:18341   */\n      dup3\n        /* \"#utility.yul\":18330:18365   */\n      tag_532\n      jumpi\n        /* \"#utility.yul\":18345:18363   */\n      tag_533\n      tag_320\n      jump\t// in\n    tag_533:\n        /* \"#utility.yul\":18330:18365   */\n    tag_532:\n        /* \"#utility.yul\":18387:18388   */\n      dup3\n        /* \"#utility.yul\":18384:18385   */\n      dup3\n        /* \"#utility.yul\":18380:18389   */\n      div\n        /* \"#utility.yul\":18375:18389   */\n      swap1\n      pop\n        /* \"#utility.yul\":18210:18395   */\n      swap3\n      swap2\n      pop\n      pop\n      jump\t// out\n        /* \"#utility.yul\":18401:18567   */\n    tag_321:\n        /* \"#utility.yul\":18541:18559   */\n      0x4e6f7420656e6f75676820766f74657300000000000000000000000000000000\n        /* \"#utility.yul\":18537:18538   */\n      0x00\n        /* \"#utility.yul\":18529:18535   */\n      dup3\n        /* \"#utility.yul\":18525:18539   */\n      add\n        /* \"#utility.yul\":18518:18560   */\n      mstore\n        /* \"#utility.yul\":18401:18567   */\n      pop\n      jump\t// out\n        /* \"#utility.yul\":18573:18939   */\n    tag_322:\n        /* \"#utility.yul\":18715:18718   */\n      0x00\n        /* \"#utility.yul\":18736:18803   */\n      tag_536\n        /* \"#utility.yul\":18800:18802   */\n      0x10\n        /* \"#utility.yul\":18795:18798   */\n      dup4\n        /* \"#utility.yul\":18736:18803   */\n      tag_284\n      jump\t// in\n    tag_536:\n        /* \"#utility.yul\":18729:18803   */\n      swap2\n      pop\n        /* \"#utility.yul\":18812:18905   */\n      tag_537\n        /* \"#utility.yul\":18901:18904   */\n      dup3\n        /* \"#utility.yul\":18812:18905   */\n      tag_321\n      jump\t// in\n    tag_537:\n        /* \"#utility.yul\":18930:18932   */\n      0x20\n        /* \"#utility.yul\":18925:18928   */\n      dup3\n        /* \"#utility.yul\":18921:18933   */\n      add\n        /* \"#utility.yul\":18914:18933   */\n      swap1\n      pop\n        /* \"#utility.yul\":18573:18939   */\n      swap2\n      swap1\n      pop\n      jump\t// out\n        /* \"#utility.yul\":18945:19364   */\n    tag_189:\n        /* \"#utility.yul\":19111:19115   */\n      0x00\n        /* \"#utility.yul\":19149:19151   */\n      0x20\n        /* \"#utility.yul\":19138:19147   */\n      dup3\n        /* \"#utility.yul\":19134:19152   */\n      add\n        /* \"#utility.yul\":19126:19152   */\n      swap1\n      pop\n        /* \"#utility.yul\":19198:19207   */\n      dup2\n        /* \"#utility.yul\":19192:19196   */\n      dup2\n        /* \"#utility.yul\":19188:19208   */\n      sub\n        /* \"#utility.yul\":19184:19185   */\n      0x00\n        /* \"#utility.yul\":19173:19182   */\n      dup4\n        /* \"#utility.yul\":19169:19186   */\n      add\n        /* \"#utility.yul\":19162:19209   */\n      mstore\n        /* \"#utility.yul\":19226:19357   */\n      tag_539\n        /* \"#utility.yul\":19352:19356   */\n      dup2\n        /* \"#utility.yul\":19226:19357   */\n      tag_322\n      jump\t// in\n    tag_539:\n        /* \"#utility.yul\":19218:19357   */\n      swap1\n      pop\n        /* \"#utility.yul\":18945:19364   */\n      swap2\n      swap1\n      pop\n      jump\t// out\n        /* \"#utility.yul\":19370:19564   */\n    tag_195:\n        /* \"#utility.yul\":19410:19414   */\n      0x00\n        /* \"#utility.yul\":19430:19450   */\n      tag_541\n        /* \"#utility.yul\":19448:19449   */\n      dup3\n        /* \"#utility.yul\":19430:19450   */\n      tag_279\n      jump\t// in\n    tag_541:\n        /* \"#utility.yul\":19425:19450   */\n      swap2\n      pop\n        /* \"#utility.yul\":19464:19484   */\n      tag_542\n        /* \"#utility.yul\":19482:19483   */\n      dup4\n        /* \"#utility.yul\":19464:19484   */\n      tag_279\n      jump\t// in\n    tag_542:\n        /* \"#utility.yul\":19459:19484   */\n      swap3\n      pop\n        /* \"#utility.yul\":19508:19509   */\n      dup3\n        /* \"#utility.yul\":19505:19506   */\n      dup3\n        /* \"#utility.yul\":19501:19510   */\n      sub\n        /* \"#utility.yul\":19493:19510   */\n      swap1\n      pop\n        /* \"#utility.yul\":19532:19533   */\n      dup2\n        /* \"#utility.yul\":19526:19530   */\n      dup2\n        /* \"#utility.yul\":19523:19534   */\n      gt\n        /* \"#utility.yul\":19520:19557   */\n      iszero\n      tag_543\n      jumpi\n        /* \"#utility.yul\":19537:19555   */\n      tag_544\n      tag_316\n      jump\t// in\n    tag_544:\n        /* \"#utility.yul\":19520:19557   */\n    tag_543:\n        /* \"#utility.yul\":19370:19564   */\n      swap3\n      swap2\n      pop\n      pop\n      jump\t// out\n        /* \"#utility.yul\":19570:19729   */\n    tag_323:\n        /* \"#utility.yul\":19710:19721   */\n      0x4e6f74206f776e65720000000000000000000000000000000000000000000000\n        /* \"#utility.yul\":19706:19707   */\n      0x00\n        /* \"#utility.yul\":19698:19704   */\n      dup3\n        /* \"#utility.yul\":19694:19708   */\n      add\n        /* \"#utility.yul\":19687:19722   */\n      mstore\n        /* \"#utility.yul\":19570:19729   */\n      pop\n      jump\t// out\n        /* \"#utility.yul\":19735:20100   */\n    tag_324:\n        /* \"#utility.yul\":19877:19880   */\n      0x00\n        /* \"#utility.yul\":19898:19964   */\n      tag_547\n        /* \"#utility.yul\":19962:19963   */\n      0x09\n        /* \"#utility.yul\":19957:19960   */\n      dup4\n        /* \"#utility.yul\":19898:19964   */\n      tag_284\n      jump\t// in\n    tag_547:\n        /* \"#utility.yul\":19891:19964   */\n      swap2\n      pop\n        /* \"#utility.yul\":19973:20066   */\n      tag_548\n        /* \"#utility.yul\":20062:20065   */\n      dup3\n        /* \"#utility.yul\":19973:20066   */\n      tag_323\n      jump\t// in\n    tag_548:\n        /* \"#utility.yul\":20091:20093   */\n      0x20\n        /* \"#utility.yul\":20086:20089   */\n      dup3\n        /* \"#utility.yul\":20082:20094   */\n      add\n        /* \"#utility.yul\":20075:20094   */\n      swap1\n      pop\n        /* \"#utility.yul\":19735:20100   */\n      swap2\n      swap1\n      pop\n      jump\t// out\n        /* \"#utility.yul\":20106:20525   */\n    tag_199:\n        /* \"#utility.yul\":20272:20276   */\n      0x00\n        /* \"#utility.yul\":20310:20312   */\n      0x20\n        /* \"#utility.yul\":20299:20308   */\n      dup3\n        /* \"#utility.yul\":20295:20313   */\n      add\n        /* \"#utility.yul\":20287:20313   */\n      swap1\n      pop\n        /* \"#utility.yul\":20359:20368   */\n      dup2\n        /* \"#utility.yul\":20353:20357   */\n      dup2\n        /* \"#utility.yul\":20349:20369   */\n      sub\n        /* \"#utility.yul\":20345:20346   */\n      0x00\n        /* \"#utility.yul\":20334:20343   */\n      dup4\n        /* \"#utility.yul\":20330:20347   */\n      add\n        /* \"#utility.yul\":20323:20370   */\n      mstore\n        /* \"#utility.yul\":20387:20518   */\n      tag_550\n        /* \"#utility.yul\":20513:20517   */\n      dup2\n        /* \"#utility.yul\":20387:20518   */\n      tag_324\n      jump\t// in\n    tag_550:\n        /* \"#utility.yul\":20379:20518   */\n      swap1\n      pop\n        /* \"#utility.yul\":20106:20525   */\n      swap2\n      swap1\n      pop\n      jump\t// out\n        /* \"#utility.yul\":20531:20699   */\n    tag_325:\n        /* \"#utility.yul\":20671:20691   */\n      0x4475726174696f6e20746f6f2073686f72740000000000000000000000000000\n        /* \"#utility.yul\":20667:20668   */\n      0x00\n        /* \"#utility.yul\":20659:20665   */\n      dup3\n        /* \"#utility.yul\":20655:20669   */\n      add\n        /* \"#utility.yul\":20648:20692   */\n      mstore\n        /* \"#utility.yul\":20531:20699   */\n      pop\n      jump\t// out\n        /* \"#utility.yul\":20705:21071   */\n    tag_326:\n        /* \"#utility.yul\":20847:20850   */\n      0x00\n        /* \"#utility.yul\":20868:20935   */\n      tag_553\n        /* \"#utility.yul\":20932:20934   */\n      0x12\n        /* \"#utility.yul\":20927:20930   */\n      dup4\n        /* \"#utility.yul\":20868:20935   */\n      tag_284\n      jump\t// in\n    tag_553:\n        /* \"#utility.yul\":20861:20935   */\n      swap2\n      pop\n        /* \"#utility.yul\":20944:21037   */\n      tag_554\n        /* \"#utility.yul\":21033:21036   */\n      dup3\n        /* \"#utility.yul\":20944:21037   */\n      tag_325\n      jump\t// in\n    tag_554:\n        /* \"#utility.yul\":21062:21064   */\n      0x20\n        /* \"#utility.yul\":21057:21060   */\n      dup3\n        /* \"#utility.yul\":21053:21065   */\n      add\n        /* \"#utility.yul\":21046:21065   */\n      swap1\n      pop\n        /* \"#utility.yul\":20705:21071   */\n      swap2\n      swap1\n      pop\n      jump\t// out\n        /* \"#utility.yul\":21077:21496   */\n    tag_203:\n        /* \"#utility.yul\":21243:21247   */\n      0x00\n        /* \"#utility.yul\":21281:21283   */\n      0x20\n        /* \"#utility.yul\":21270:21279   */\n      dup3\n        /* \"#utility.yul\":21266:21284   */\n      add\n        /* \"#utility.yul\":21258:21284   */\n      swap1\n      pop\n        /* \"#utility.yul\":21330:21339   */\n      dup2\n        /* \"#utility.yul\":21324:21328   */\n      dup2\n        /* \"#utility.yul\":21320:21340   */\n      sub\n        /* \"#utility.yul\":21316:21317   */\n      0x00\n        /* \"#utility.yul\":21305:21314   */\n      dup4\n        /* \"#utility.yul\":21301:21318   */\n      add\n        /* \"#utility.yul\":21294:21341   */\n      mstore\n        /* \"#utility.yul\":21358:21489   */\n      tag_556\n        /* \"#utility.yul\":21484:21488   */\n      dup2\n        /* \"#utility.yul\":21358:21489   */\n      tag_326\n      jump\t// in\n    tag_556:\n        /* \"#utility.yul\":21350:21489   */\n      swap1\n      pop\n        /* \"#utility.yul\":21077:21496   */\n      swap2\n      swap1\n      pop\n      jump\t// out\n        /* \"#utility.yul\":21502:21643   */\n    tag_327:\n        /* \"#utility.yul\":21551:21555   */\n      0x00\n        /* \"#utility.yul\":21574:21577   */\n      dup2\n        /* \"#utility.yul\":21566:21577   */\n      swap1\n      pop\n        /* \"#utility.yul\":21597:21600   */\n      dup2\n        /* \"#utility.yul\":21594:21595   */\n      0x00\n        /* \"#utility.yul\":21587:21601   */\n      mstore\n        /* \"#utility.yul\":21631:21635   */\n      0x20\n        /* \"#utility.yul\":21628:21629   */\n      0x00\n        /* \"#utility.yul\":21618:21636   */\n      keccak256\n        /* \"#utility.yul\":21610:21636   */\n      swap1\n      pop\n        /* \"#utility.yul\":21502:21643   */\n      swap2\n      swap1\n      pop\n      jump\t// out\n        /* \"#utility.yul\":21649:21742   */\n    tag_328:\n        /* \"#utility.yul\":21686:21692   */\n      0x00\n        /* \"#utility.yul\":21733:21735   */\n      0x20\n        /* \"#utility.yul\":21728:21730   */\n      0x1f\n        /* \"#utility.yul\":21721:21726   */\n      dup4\n        /* \"#utility.yul\":21717:21731   */\n      add\n        /* \"#utility.yul\":21713:21736   */\n      div\n        /* \"#utility.yul\":21703:21736   */\n      swap1\n      pop\n        /* \"#utility.yul\":21649:21742   */\n      swap2\n      swap1\n      pop\n      jump\t// out\n        /* \"#utility.yul\":21748:21855   */\n    tag_329:\n        /* \"#utility.yul\":21792:21800   */\n      0x00\n        /* \"#utility.yul\":21842:21847   */\n      dup3\n        /* \"#utility.yul\":21836:21840   */\n      dup3\n        /* \"#utility.yul\":21832:21848   */\n      shl\n        /* \"#utility.yul\":21811:21848   */\n      swap1\n      pop\n        /* \"#utility.yul\":21748:21855   */\n      swap3\n      swap2\n      pop\n      pop\n      jump\t// out\n        /* \"#utility.yul\":21861:22254   */\n    tag_330:\n        /* \"#utility.yul\":21930:21936   */\n      0x00\n        /* \"#utility.yul\":21980:21981   */\n      0x08\n        /* \"#utility.yul\":21968:21978   */\n      dup4\n        /* \"#utility.yul\":21964:21982   */\n      mul\n        /* \"#utility.yul\":22003:22100   */\n      tag_561\n        /* \"#utility.yul\":22033:22099   */\n      0xffffffffffffffffffffffffffffffffffffffffffffffffffffffffffffffff\n        /* \"#utility.yul\":22022:22031   */\n      dup3\n        /* \"#utility.yul\":22003:22100   */\n      tag_329\n      jump\t// in\n    tag_561:\n        /* \"#utility.yul\":22121:22160   */\n      tag_562\n        /* \"#utility.yul\":22151:22159   */\n      dup7\n        /* \"#utility.yul\":22140:22149   */\n      dup4\n        /* \"#utility.yul\":22121:22160   */\n      tag_329\n      jump\t// in\n    tag_562:\n        /* \"#utility.yul\":22109:22160   */\n      swap6\n      pop\n        /* \"#utility.yul\":22193:22197   */\n      dup1\n        /* \"#utility.yul\":22189:22198   */\n      not\n        /* \"#utility.yul\":22182:22187   */\n      dup5\n        /* \"#utility.yul\":22178:22199   */\n      and\n        /* \"#utility.yul\":22169:22199   */\n      swap4\n      pop\n        /* \"#utility.yul\":22242:22246   */\n      dup1\n        /* \"#utility.yul\":22232:22240   */\n      dup7\n        /* \"#utility.yul\":22228:22247   */\n      and\n        /* \"#utility.yul\":22221:22226   */\n      dup5\n        /* \"#utility.yul\":22218:22248   */\n      or\n        /* \"#utility.yul\":22208:22248   */\n      swap3\n      pop\n        /* \"#utility.yul\":21937:22254   */\n      pop\n      pop\n        /* \"#utility.yul\":21861:22254   */\n      swap4\n      swap3\n      pop\n      pop\n      pop\n      jump\t// out\n        /* \"#utility.yul\":22260:22320   */\n    tag_331:\n        /* \"#utility.yul\":22288:22291   */\n      0x00\n        /* \"#utility.yul\":22309:22314   */\n      dup2\n        /* \"#utility.yul\":22302:22314   */\n      swap1\n      pop\n        /* \"#utility.yul\":22260:22320   */\n      swap2\n      swap1\n      pop\n      jump\t// out\n        /* \"#utility.yul\":22326:22468   */\n    tag_332:\n        /* \"#utility.yul\":22376:22385   */\n      0x00\n        /* \"#utility.yul\":22409:22462   */\n      tag_565\n        /* \"#utility.yul\":22427:22461   */\n      tag_566\n        /* \"#utility.yul\":22436:22460   */\n      tag_567\n        /* \"#utility.yul\":22454:22459   */\n      dup5\n        /* \"#utility.yul\":22436:22460   */\n      tag_279\n      jump\t// in\n    tag_567:\n        /* \"#utility.yul\":22427:22461   */\n      tag_331\n      jump\t// in\n    tag_566:\n        /* \"#utility.yul\":22409:22462   */\n      tag_279\n      jump\t// in\n    tag_565:\n        /* \"#utility.yul\":22396:22462   */\n      swap1\n      pop\n        /* \"#utility.yul\":22326:22468   */\n      swap2\n      swap1\n      pop\n      jump\t// out\n        /* \"#utility.yul\":22474:22549   */\n    tag_333:\n        /* \"#utility.yul\":22517:22520   */\n      0x00\n        /* \"#utility.yul\":22538:22543   */\n      dup2\n        /* \"#utility.yul\":22531:22543   */\n      swap1\n      pop\n        /* \"#utility.yul\":22474:22549   */\n      swap2\n      swap1\n      pop\n      jump\t// out\n        /* \"#utility.yul\":22555:22824   */\n    tag_334:\n        /* \"#utility.yul\":22665:22704   */\n      tag_570\n        /* \"#utility.yul\":22696:22703   */\n      dup4\n        /* \"#utility.yul\":22665:22704   */\n      tag_332\n      jump\t// in\n    tag_570:\n        /* \"#utility.yul\":22726:22817   */\n      tag_571\n        /* \"#utility.yul\":22775:22816   */\n      tag_572\n        /* \"#utility.yul\":22799:22815   */\n      dup3\n        /* \"#utility.yul\":22775:22816   */\n      tag_333\n      jump\t// in\n    tag_572:\n        /* \"#utility.yul\":22767:22773   */\n      dup5\n        /* \"#utility.yul\":22760:22764   */\n      dup5\n        /* \"#utility.yul\":22754:22765   */\n      sload\n        /* \"#utility.yul\":22726:22817   */\n      tag_330\n      jump\t// in\n    tag_571:\n        /* \"#utility.yul\":22720:22724   */\n      dup3\n        /* \"#utility.yul\":22713:22818   */\n      sstore\n        /* \"#utility.yul\":22631:22824   */\n      pop\n        /* \"#utility.yul\":22555:22824   */\n      pop\n      pop\n      pop\n      jump\t// out\n        /* \"#utility.yul\":22830:22903   */\n    tag_335:\n        /* \"#utility.yul\":22875:22878   */\n      0x00\n        /* \"#utility.yul\":22830:22903   */\n      swap1\n      jump\t// out\n        /* \"#utility.yul\":22909:23098   */\n    tag_336:\n        /* \"#utility.yul\":22986:23018   */\n      tag_575\n      tag_335\n      jump\t// in\n    tag_575:\n        /* \"#utility.yul\":23027:23092   */\n      tag_576\n        /* \"#utility.yul\":23085:23091   */\n      dup2\n        /* \"#utility.yul\":23077:23083   */\n      dup5\n        /* \"#utility.yul\":23071:23075   */\n      dup5\n        /* \"#utility.yul\":23027:23092   */\n      tag_334\n      jump\t// in\n    tag_576:\n        /* \"#utility.yul\":22962:23098   */\n      pop\n        /* \"#utility.yul\":22909:23098   */\n      pop\n      pop\n      jump\t// out\n        /* \"#utility.yul\":23104:23290   */\n    tag_337:\n        /* \"#utility.yul\":23164:23284   */\n    tag_578:\n        /* \"#utility.yul\":23181:23184   */\n      dup2\n        /* \"#utility.yul\":23174:23179   */\n      dup2\n        /* \"#utility.yul\":23171:23185   */\n      lt\n        /* \"#utility.yul\":23164:23284   */\n      iszero\n      tag_580\n      jumpi\n        /* \"#utility.yul\":23235:23274   */\n      tag_581\n        /* \"#utility.yul\":23272:23273   */\n      0x00\n        /* \"#utility.yul\":23265:23270   */\n      dup3\n        /* \"#utility.yul\":23235:23274   */\n      tag_336\n      jump\t// in\n    tag_581:\n        /* \"#utility.yul\":23208:23209   */\n      0x01\n        /* \"#utility.yul\":23201:23206   */\n      dup2\n        /* \"#utility.yul\":23197:23210   */\n      add\n        /* \"#utility.yul\":23188:23210   */\n      swap1\n      pop\n        /* \"#utility.yul\":23164:23284   */\n      jump(tag_578)\n    tag_580:\n        /* \"#utility.yul\":23104:23290   */\n      pop\n      pop\n      jump\t// out\n        /* \"#utility.yul\":23296:23839   */\n    tag_338:\n        /* \"#utility.yul\":23397:23399   */\n      0x1f\n        /* \"#utility.yul\":23392:23395   */\n      dup3\n        /* \"#utility.yul\":23389:23400   */\n      gt\n        /* \"#utility.yul\":23386:23832   */\n      iszero\n      tag_583\n      jumpi\n        /* \"#utility.yul\":23431:23469   */\n      tag_584\n        /* \"#utility.yul\":23463:23468   */\n      dup2\n        /* \"#utility.yul\":23431:23469   */\n      tag_327\n      jump\t// in\n    tag_584:\n        /* \"#utility.yul\":23515:23544   */\n      tag_585\n        /* \"#utility.yul\":23533:23543   */\n      dup5\n        /* \"#utility.yul\":23515:23544   */\n      tag_328\n      jump\t// in\n    tag_585:\n        /* \"#utility.yul\":23505:23513   */\n      dup2\n        /* \"#utility.yul\":23501:23545   */\n      add\n        /* \"#utility.yul\":23698:23700   */\n      0x20\n        /* \"#utility.yul\":23686:23696   */\n      dup6\n        /* \"#utility.yul\":23683:23701   */\n      lt\n        /* \"#utility.yul\":23680:23729   */\n      iszero\n      tag_586\n      jumpi\n        /* \"#utility.yul\":23719:23727   */\n      dup2\n        /* \"#utility.yul\":23704:23727   */\n      swap1\n      pop\n        /* \"#utility.yul\":23680:23729   */\n    tag_586:\n        /* \"#utility.yul\":23742:23822   */\n      tag_587\n        /* \"#utility.yul\":23798:23820   */\n      tag_588\n        /* \"#utility.yul\":23816:23819   */\n      dup6\n        /* \"#utility.yul\":23798:23820   */\n      tag_328\n      jump\t// in\n    tag_588:\n        /* \"#utility.yul\":23788:23796   */\n      dup4\n        /* \"#utility.yul\":23784:23821   */\n      add\n        /* \"#utility.yul\":23771:23782   */\n      dup3\n        /* \"#utility.yul\":23742:23822   */\n      tag_337\n      jump\t// in\n    tag_587:\n        /* \"#utility.yul\":23401:23832   */\n      pop\n      pop\n        /* \"#utility.yul\":23386:23832   */\n    tag_583:\n        /* \"#utility.yul\":23296:23839   */\n      pop\n      pop\n      pop\n      jump\t// out\n        /* \"#utility.yul\":23845:23962   */\n    tag_339:\n        /* \"#utility.yul\":23899:23907   */\n      0x00\n        /* \"#utility.yul\":23949:23954   */\n      dup3\n        /* \"#utility.yul\":23943:23947   */\n      dup3\n        /* \"#utility.yul\":23939:23955   */\n      shr\n        /* \"#utility.yul\":23918:23955   */\n      swap1\n      pop\n        /* \"#utility.yul\":23845:23962   */\n      swap3\n      swap2\n      pop\n      pop\n      jump\t// out\n        /* \"#utility.yul\":23968:24137   */\n    tag_340:\n        /* \"#utility.yul\":24012:24018   */\n      0x00\n        /* \"#utility.yul\":24045:24096   */\n      tag_591\n        /* \"#utility.yul\":24093:24094   */\n      0x00\n        /* \"#utility.yul\":24089:24095   */\n      not\n        /* \"#utility.yul\":24081:24086   */\n      dup5\n        /* \"#utility.yul\":24078:24079   */\n      0x08\n        /* \"#utility.yul\":24074:24087   */\n      mul\n        /* \"#utility.yul\":24045:24096   */\n      tag_339\n      jump\t// in\n    tag_591:\n        /* \"#utility.yul\":24041:24097   */\n      not\n        /* \"#utility.yul\":24126:24130   */\n      dup1\n        /* \"#utility.yul\":24120:24124   */\n      dup4\n        /* \"#utility.yul\":24116:24131   */\n      and\n        /* \"#utility.yul\":24106:24131   */\n      swap2\n      pop\n        /* \"#utility.yul\":24019:24137   */\n      pop\n        /* \"#utility.yul\":23968:24137   */\n      swap3\n      swap2\n      pop\n      pop\n      jump\t// out\n        /* \"#utility.yul\":24142:24437   */\n    tag_341:\n        /* \"#utility.yul\":24218:24222   */\n      0x00\n        /* \"#utility.yul\":24364:24393   */\n      tag_593\n        /* \"#utility.yul\":24389:24392   */\n      dup4\n        /* \"#utility.yul\":24383:24387   */\n      dup4\n        /* \"#utility.yul\":24364:24393   */\n      tag_340\n      jump\t// in\n    tag_593:\n        /* \"#utility.yul\":24356:24393   */\n      swap2\n      pop\n        /* \"#utility.yul\":24426:24429   */\n      dup3\n        /* \"#utility.yul\":24423:24424   */\n      0x02\n        /* \"#utility.yul\":24419:24430   */\n      mul\n        /* \"#utility.yul\":24413:24417   */\n      dup3\n        /* \"#utility.yul\":24410:24431   */\n      or\n        /* \"#utility.yul\":24402:24431   */\n      swap1\n      pop\n        /* \"#utility.yul\":24142:24437   */\n      swap3\n      swap2\n      pop\n      pop\n      jump\t// out\n        /* \"#utility.yul\":24442:25837   */\n    tag_207:\n        /* \"#utility.yul\":24559:24596   */\n      tag_595\n        /* \"#utility.yul\":24592:24595   */\n      dup3\n        /* \"#utility.yul\":24559:24596   */\n      tag_283\n      jump\t// in\n    tag_595:\n        /* \"#utility.yul\":24661:24679   */\n      0xffffffffffffffff\n        /* \"#utility.yul\":24653:24659   */\n      dup2\n        /* \"#utility.yul\":24650:24680   */\n      gt\n        /* \"#utility.yul\":24647:24703   */\n      iszero\n      tag_596\n      jumpi\n        /* \"#utility.yul\":24683:24701   */\n      tag_597\n      tag_298\n      jump\t// in\n    tag_597:\n        /* \"#utility.yul\":24647:24703   */\n    tag_596:\n        /* \"#utility.yul\":24727:24765   */\n      tag_598\n        /* \"#utility.yul\":24759:24763   */\n      dup3\n        /* \"#utility.yul\":24753:24764   */\n      sload\n        /* \"#utility.yul\":24727:24765   */\n      tag_158\n      jump\t// in\n    tag_598:\n        /* \"#utility.yul\":24812:24879   */\n      tag_599\n        /* \"#utility.yul\":24872:24878   */\n      dup3\n        /* \"#utility.yul\":24864:24870   */\n      dup3\n        /* \"#utility.yul\":24858:24862   */\n      dup6\n        /* \"#utility.yul\":24812:24879   */\n      tag_338\n      jump\t// in\n    tag_599:\n        /* \"#utility.yul\":24906:24907   */\n      0x00\n        /* \"#utility.yul\":24930:24934   */\n      0x20\n        /* \"#utility.yul\":24917:24934   */\n      swap1\n      pop\n        /* \"#utility.yul\":24962:24964   */\n      0x1f\n        /* \"#utility.yul\":24954:24960   */\n      dup4\n        /* \"#utility.yul\":24951:24965   */\n      gt\n        /* \"#utility.yul\":24979:24980   */\n      0x01\n        /* \"#utility.yul\":24974:25592   */\n      dup2\n      eq\n      tag_601\n      jumpi\n        /* \"#utility.yul\":25636:25637   */\n      0x00\n        /* \"#utility.yul\":25653:25659   */\n      dup5\n        /* \"#utility.yul\":25650:25727   */\n      iszero\n      tag_602\n      jumpi\n        /* \"#utility.yul\":25702:25711   */\n      dup3\n        /* \"#utility.yul\":25697:25700   */\n      dup8\n        /* \"#utility.yul\":25693:25712   */\n      add\n        /* \"#utility.yul\":25687:25713   */\n      mload\n        /* \"#utility.yul\":25678:25713   */\n      swap1\n      pop\n        /* \"#utility.yul\":25650:25727   */\n    tag_602:\n        /* \"#utility.yul\":25753:25820   */\n      tag_603\n        /* \"#utility.yul\":25813:25819   */\n      dup6\n        /* \"#utility.yul\":25806:25811   */\n      dup3\n        /* \"#utility.yul\":25753:25820   */\n      tag_341\n      jump\t// in\n    tag_603:\n        /* \"#utility.yul\":25747:25751   */\n      dup7\n        /* \"#utility.yul\":25740:25821   */\n      sstore\n        /* \"#utility.yul\":25609:25831   */\n      pop\n        /* \"#utility.yul\":24944:25831   */\n      jump(tag_600)\n        /* \"#utility.yul\":24974:25592   */\n    tag_601:\n        /* \"#utility.yul\":25026:25030   */\n      0x1f\n        /* \"#utility.yul\":25022:25031   */\n      not\n        /* \"#utility.yul\":25014:25020   */\n      dup5\n        /* \"#utility.yul\":25010:25032   */\n      and\n        /* \"#utility.yul\":25060:25097   */\n      tag_604\n        /* \"#utility.yul\":25092:25096   */\n      dup7\n        /* \"#utility.yul\":25060:25097   */\n      tag_327\n      jump\t// in\n    tag_604:\n        /* \"#utility.yul\":25119:25120   */\n      0x00\n        /* \"#utility.yul\":25133:25341   */\n    tag_605:\n        /* \"#utility.yul\":25147:25154   */\n      dup3\n        /* \"#utility.yul\":25144:25145   */\n      dup2\n        /* \"#utility.yul\":25141:25155   */\n      lt\n        /* \"#utility.yul\":25133:25341   */\n      iszero\n      tag_607\n      jumpi\n        /* \"#utility.yul\":25226:25235   */\n      dup5\n        /* \"#utility.yul\":25221:25224   */\n      dup10\n        /* \"#utility.yul\":25217:25236   */\n      add\n        /* \"#utility.yul\":25211:25237   */\n      mload\n        /* \"#utility.yul\":25203:25209   */\n      dup3\n        /* \"#utility.yul\":25196:25238   */\n      sstore\n        /* \"#utility.yul\":25277:25278   */\n      0x01\n        /* \"#utility.yul\":25269:25275   */\n      dup3\n        /* \"#utility.yul\":25265:25279   */\n      add\n        /* \"#utility.yul\":25255:25279   */\n      swap2\n      pop\n        /* \"#utility.yul\":25324:25326   */\n      0x20\n        /* \"#utility.yul\":25313:25322   */\n      dup6\n        /* \"#utility.yul\":25309:25327   */\n      add\n        /* \"#utility.yul\":25296:25327   */\n      swap5\n      pop\n        /* \"#utility.yul\":25170:25174   */\n      0x20\n        /* \"#utility.yul\":25167:25168   */\n      dup2\n        /* \"#utility.yul\":25163:25175   */\n      add\n        /* \"#utility.yul\":25158:25175   */\n      swap1\n      pop\n        /* \"#utility.yul\":25133:25341   */\n      jump(tag_605)\n    tag_607:\n        /* \"#utility.yul\":25369:25375   */\n      dup7\n        /* \"#utility.yul\":25360:25367   */\n      dup4\n        /* \"#utility.yul\":25357:25376   */\n      lt\n        /* \"#utility.yul\":25354:25533   */\n      iszero\n      tag_608\n      jumpi\n        /* \"#utility.yul\":25427:25436   */\n      dup5\n        /* \"#utility.yul\":25422:25425   */\n      dup10\n        /* \"#utility.yul\":25418:25437   */\n      add\n        /* \"#utility.yul\":25412:25438   */\n      mload\n        /* \"#utility.yul\":25470:25518   */\n      tag_609\n        /* \"#utility.yul\":25512:25516   */\n      0x1f\n        /* \"#utility.yul\":25504:25510   */\n      dup10\n        /* \"#utility.yul\":25500:25517   */\n      and\n        /* \"#utility.yul\":25489:25498   */\n      dup3\n        /* \"#utility.yul\":25470:25518   */\n      tag_340\n      jump\t// in\n    tag_609:\n        /* \"#utility.yul\":25462:25468   */\n      dup4\n        /* \"#utility.yul\":25455:25519   */\n      sstore\n        /* \"#utility.yul\":25377:25533   */\n      pop\n        /* \"#utility.yul\":25354:25533   */\n    tag_608:\n        /* \"#utility.yul\":25579:25580   */\n      0x01\n        /* \"#utility.yul\":25575:25576   */\n      0x02\n        /* \"#utility.yul\":25567:25573   */\n      dup9\n        /* \"#utility.yul\":25563:25577   */\n      mul\n        /* \"#utility.yul\":25559:25581   */\n      add\n        /* \"#utility.yul\":25553:25557   */\n      dup9\n        /* \"#utility.yul\":25546:25582   */\n      sstore\n        /* \"#utility.yul\":24981:25592   */\n      pop\n      pop\n      pop\n        /* \"#utility.yul\":24944:25831   */\n    tag_600:\n      pop\n        /* \"#utility.yul\":24534:25837   */\n      pop\n      pop\n      pop\n        /* \"#utility.yul\":24442:25837   */\n      pop\n      pop\n      jump\t// out\n        /* \"#utility.yul\":25843:26076   */\n    tag_209:\n        /* \"#utility.yul\":25882:25885   */\n      0x00\n        /* \"#utility.yul\":25905:25929   */\n      tag_611\n        /* \"#utility.yul\":25923:25928   */\n      dup3\n        /* \"#utility.yul\":25905:25929   */\n      tag_279\n      jump\t// in\n    tag_611:\n        /* \"#utility.yul\":25896:25929   */\n      swap2\n      pop\n        /* \"#utility.yul\":25951:26017   */\n      0xffffffffffffffffffffffffffffffffffffffffffffffffffffffffffffffff\n        /* \"#utility.yul\":25944:25949   */\n      dup3\n        /* \"#utility.yul\":25941:26018   */\n      sub\n        /* \"#utility.yul\":25938:26041   */\n      tag_612\n      jumpi\n        /* \"#utility.yul\":26021:26039   */\n      tag_613\n      tag_316\n      jump\t// in\n    tag_613:\n        /* \"#utility.yul\":25938:26041   */\n    tag_612:\n        /* \"#utility.yul\":26068:26069   */\n      0x01\n        /* \"#utility.yul\":26061:26066   */\n      dup3\n        /* \"#utility.yul\":26057:26070   */\n      add\n        /* \"#utility.yul\":26050:26070   */\n      swap1\n      pop\n        /* \"#utility.yul\":25843:26076   */\n      swap2\n      swap1\n      pop\n      jump\t// out\n        /* \"#utility.yul\":26082:26505   */\n    tag_211:\n        /* \"#utility.yul\":26223:26227   */\n      0x00\n        /* \"#utility.yul\":26261:26263   */\n      0x40\n        /* \"#utility.yul\":26250:26259   */\n      dup3\n        /* \"#utility.yul\":26246:26264   */\n      add\n        /* \"#utility.yul\":26238:26264   */\n      swap1\n      pop\n        /* \"#utility.yul\":26310:26319   */\n      dup2\n        /* \"#utility.yul\":26304:26308   */\n      dup2\n        /* \"#utility.yul\":26300:26320   */\n      sub\n        /* \"#utility.yul\":26296:26297   */\n      0x00\n        /* \"#utility.yul\":26285:26294   */\n      dup4\n        /* \"#utility.yul\":26281:26298   */\n      add\n        /* \"#utility.yul\":26274:26321   */\n      mstore\n        /* \"#utility.yul\":26338:26416   */\n      tag_615\n        /* \"#utility.yul\":26411:26415   */\n      dup2\n        /* \"#utility.yul\":26402:26408   */\n      dup6\n        /* \"#utility.yul\":26338:26416   */\n      tag_287\n      jump\t// in\n    tag_615:\n        /* \"#utility.yul\":26330:26416   */\n      swap1\n      pop\n        /* \"#utility.yul\":26426:26498   */\n      tag_616\n        /* \"#utility.yul\":26494:26496   */\n      0x20\n        /* \"#utility.yul\":26483:26492   */\n      dup4\n        /* \"#utility.yul\":26479:26497   */\n      add\n        /* \"#utility.yul\":26470:26476   */\n      dup5\n        /* \"#utility.yul\":26426:26498   */\n      tag_282\n      jump\t// in\n    tag_616:\n        /* \"#utility.yul\":26082:26505   */\n      swap4\n      swap3\n      pop\n      pop\n      pop\n      jump\t// out\n        /* \"#utility.yul\":26511:26681   */\n    tag_342:\n        /* \"#utility.yul\":26651:26673   */\n      0x4d696e7420746f207a65726f2061646472657373000000000000000000000000\n        /* \"#utility.yul\":26647:26648   */\n      0x00\n        /* \"#utility.yul\":26639:26645   */\n      dup3\n        /* \"#utility.yul\":26635:26649   */\n      add\n        /* \"#utility.yul\":26628:26674   */\n      mstore\n        /* \"#utility.yul\":26511:26681   */\n      pop\n      jump\t// out\n        /* \"#utility.yul\":26687:27053   */\n    tag_343:\n        /* \"#utility.yul\":26829:26832   */\n      0x00\n        /* \"#utility.yul\":26850:26917   */\n      tag_619\n        /* \"#utility.yul\":26914:26916   */\n      0x14\n        /* \"#utility.yul\":26909:26912   */\n      dup4\n        /* \"#utility.yul\":26850:26917   */\n      tag_284\n      jump\t// in\n    tag_619:\n        /* \"#utility.yul\":26843:26917   */\n      swap2\n      pop\n        /* \"#utility.yul\":26926:27019   */\n      tag_620\n        /* \"#utility.yul\":27015:27018   */\n      dup3\n        /* \"#utility.yul\":26926:27019   */\n      tag_342\n      jump\t// in\n    tag_620:\n        /* \"#utility.yul\":27044:27046   */\n      0x20\n        /* \"#utility.yul\":27039:27042   */\n      dup3\n        /* \"#utility.yul\":27035:27047   */\n      add\n        /* \"#utility.yul\":27028:27047   */\n      swap1\n      pop\n        /* \"#utility.yul\":26687:27053   */\n      swap2\n      swap1\n      pop\n      jump\t// out\n        /* \"#utility.yul\":27059:27478   */\n    tag_230:\n        /* \"#utility.yul\":27225:27229   */\n      0x00\n        /* \"#utility.yul\":27263:27265   */\n      0x20\n        /* \"#utility.yul\":27252:27261   */\n      dup3\n        /* \"#utility.yul\":27248:27266   */\n      add\n        /* \"#utility.yul\":27240:27266   */\n      swap1\n      pop\n        /* \"#utility.yul\":27312:27321   */\n      dup2\n        /* \"#utility.yul\":27306:27310   */\n      dup2\n        /* \"#utility.yul\":27302:27322   */\n      sub\n        /* \"#utility.yul\":27298:27299   */\n      0x00\n        /* \"#utility.yul\":27287:27296   */\n      dup4\n        /* \"#utility.yul\":27283:27300   */\n      add\n        /* \"#utility.yul\":27276:27323   */\n      mstore\n        /* \"#utility.yul\":27340:27471   */\n      tag_622\n        /* \"#utility.yul\":27466:27470   */\n      dup2\n        /* \"#utility.yul\":27340:27471   */\n      tag_343\n      jump\t// in\n    tag_622:\n        /* \"#utility.yul\":27332:27471   */\n      swap1\n      pop\n        /* \"#utility.yul\":27059:27478   */\n      swap2\n      swap1\n      pop\n      jump\t// out\n        /* \"#utility.yul\":27484:27654   */\n    tag_344:\n        /* \"#utility.yul\":27624:27646   */\n      0x496e73756666696369656e742062616c616e6365000000000000000000000000\n        /* \"#utility.yul\":27620:27621   */\n      0x00\n        /* \"#utility.yul\":27612:27618   */\n      dup3\n        /* \"#utility.yul\":27608:27622   */\n      add\n        /* \"#utility.yul\":27601:27647   */\n      mstore\n        /* \"#utility.yul\":27484:27654   */\n      pop\n      jump\t// out\n        /* \"#utility.yul\":27660:28026   */\n    tag_345:\n        /* \"#utility.yul\":27802:27805   */\n      0x00\n        /* \"#utility.yul\":27823:27890   */\n      tag_625\n        /* \"#utility.yul\":27887:27889   */\n      0x14\n        /* \"#utility.yul\":27882:27885   */\n      dup4\n        /* \"#utility.yul\":27823:27890   */\n      tag_284\n      jump\t// in\n    tag_625:\n        /* \"#utility.yul\":27816:27890   */\n      swap2\n      pop\n        /* \"#utility.yul\":27899:27992   */\n      tag_626\n        /* \"#utility.yul\":27988:27991   */\n      dup3\n        /* \"#utility.yul\":27899:27992   */\n      tag_344\n      jump\t// in\n    tag_626:\n        /* \"#utility.yul\":28017:28019   */\n      0x20\n        /* \"#utility.yul\":28012:28015   */\n      dup3\n        /* \"#utility.yul\":28008:28020   */\n      add\n        /* \"#utility.yul\":28001:28020   */\n      swap1\n      pop\n        /* \"#utility.yul\":27660:28026   */\n      swap2\n      swap1\n      pop\n      jump\t// out\n        /* \"#utility.yul\":28032:28451   */\n    tag_236:\n        /* \"#utility.yul\":28198:28202   */\n      0x00\n        /* \"#utility.yul\":28236:28238   */\n      0x20\n        /* \"#utility.yul\":28225:28234   */\n      dup3\n        /* \"#utility.yul\":28221:28239   */\n      add\n        /* \"#utility.yul\":28213:28239   */\n      swap1\n      pop\n        /* \"#utility.yul\":28285:28294   */\n      dup2\n        /* \"#utility.yul\":28279:28283   */\n      dup2\n        /* \"#utility.yul\":28275:28295   */\n      sub\n        /* \"#utility.yul\":28271:28272   */\n      0x00\n        /* \"#utility.yul\":28260:28269   */\n      dup4\n        /* \"#utility.yul\":28256:28273   */\n      add\n        /* \"#utility.yul\":28249:28296   */\n      mstore\n        /* \"#utility.yul\":28313:28444   */\n      tag_628\n        /* \"#utility.yul\":28439:28443   */\n      dup2\n        /* \"#utility.yul\":28313:28444   */\n      tag_345\n      jump\t// in\n    tag_628:\n        /* \"#utility.yul\":28305:28444   */\n      swap1\n      pop\n        /* \"#utility.yul\":28032:28451   */\n      swap2\n      swap1\n      pop\n      jump\t// out\n        /* \"#utility.yul\":28457:28632   */\n    tag_346:\n        /* \"#utility.yul\":28597:28624   */\n      0x4e6577206f776e6572206973207a65726f206164647265737300000000000000\n        /* \"#utility.yul\":28593:28594   */\n      0x00\n        /* \"#utility.yul\":28585:28591   */\n      dup3\n        /* \"#utility.yul\":28581:28595   */\n      add\n        /* \"#utility.yul\":28574:28625   */\n      mstore\n        /* \"#utility.yul\":28457:28632   */\n      pop\n      jump\t// out\n        /* \"#utility.yul\":28638:29004   */\n    tag_347:\n        /* \"#utility.yul\":28780:28783   */\n      0x00\n        /* \"#utility.yul\":28801:28868   */\n      tag_631\n        /* \"#utility.yul\":28865:28867   */\n      0x19\n        /* \"#utility.yul\":28860:28863   */\n      dup4\n        /* \"#utility.yul\":28801:28868   */\n      tag_284\n      jump\t// in\n    tag_631:\n        /* \"#utility.yul\":28794:28868   */\n      swap2\n      pop\n        /* \"#utility.yul\":28877:28970   */\n      tag_632\n        /* \"#utility.yul\":28966:28969   */\n      dup3\n        /* \"#utility.yul\":28877:28970   */\n      tag_346\n      jump\t// in\n    tag_632:\n        /* \"#utility.yul\":28995:28997   */\n      0x20\n        /* \"#utility.yul\":28990:28993   */\n      dup3\n        /* \"#utility.yul\":28986:28998   */\n      add\n        /* \"#utility.yul\":28979:28998   */\n      swap1\n      pop\n        /* \"#utility.yul\":28638:29004   */\n      swap2\n      swap1\n      pop\n      jump\t// out\n        /* \"#utility.yul\":29010:29429   */\n    tag_255:\n        /* \"#utility.yul\":29176:29180   */\n      0x00\n        /* \"#utility.yul\":29214:29216   */\n      0x20\n        /* \"#utility.yul\":29203:29212   */\n      dup3\n        /* \"#utility.yul\":29199:29217   */\n      add\n        /* \"#utility.yul\":29191:29217   */\n      swap1\n      pop\n        /* \"#utility.yul\":29263:29272   */\n      dup2\n        /* \"#utility.yul\":29257:29261   */\n      dup2\n        /* \"#utility.yul\":29253:29273   */\n      sub\n        /* \"#utility.yul\":29249:29250   */\n      0x00\n        /* \"#utility.yul\":29238:29247   */\n      dup4\n        /* \"#utility.yul\":29234:29251   */\n      add\n        /* \"#utility.yul\":29227:29274   */\n      mstore\n        /* \"#utility.yul\":29291:29422   */\n      tag_634\n        /* \"#utility.yul\":29417:29421   */\n      dup2\n        /* \"#utility.yul\":29291:29422   */\n      tag_347\n      jump\t// in\n    tag_634:\n        /* \"#utility.yul\":29283:29422   */\n      swap1\n      pop\n        /* \"#utility.yul\":29010:29429   */\n      swap2\n      swap1\n      pop\n      jump\t// out\n        /* \"#utility.yul\":29435:29610   */\n    tag_348:\n        /* \"#utility.yul\":29575:29602   */\n      0x417070726f76652066726f6d207a65726f206164647265737300000000000000\n        /* \"#utility.yul\":29571:29572   */\n      0x00\n        /* \"#utility.yul\":29563:29569   */\n      dup3\n        /* \"#utility.yul\":29559:29573   */\n      add\n        /* \"#utility.yul\":29552:29603   */\n      mstore\n        /* \"#utility.yul\":29435:29610   */\n      pop\n      jump\t// out\n        /* \"#utility.yul\":29616:29982   */\n    tag_349:\n        /* \"#utility.yul\":29758:29761   */\n      0x00\n        /* \"#utility.yul\":29779:29846   */\n      tag_637\n        /* \"#utility.yul\":29843:29845   */\n      0x19\n        /* \"#utility.yul\":29838:29841   */\n      dup4\n        /* \"#utility.yul\":29779:29846   */\n      tag_284\n      jump\t// in\n    tag_637:\n        /* \"#utility.yul\":29772:29846   */\n      swap2\n      pop\n        /* \"#utility.yul\":29855:29948   */\n      tag_638\n        /* \"#utility.yul\":29944:29947   */\n      dup3\n        /* \"#utility.yul\":29855:29948   */\n      tag_348\n      jump\t// in\n    tag_638:\n        /* \"#utility.yul\":29973:29975   */\n      0x20\n        /* \"#utility.yul\":29968:29971   */\n      dup3\n        /* \"#utility.yul\":29964:29976   */\n      add\n        /* \"#utility.yul\":29957:29976   */\n      swap1\n      pop\n        /* \"#utility.yul\":29616:29982   */\n      swap2\n      swap1\n      pop\n      jump\t// out\n        /* \"#utility.yul\":29988:30407   */\n    tag_259:\n        /* \"#utility.yul\":30154:30158   */\n      0x00\n        /* \"#utility.yul\":30192:30194   */\n      0x20\n        /* \"#utility.yul\":30181:30190   */\n      dup3\n        /* \"#utility.yul\":30177:30195   */\n      add\n        /* \"#utility.yul\":30169:30195   */\n      swap1\n      pop\n        /* \"#utility.yul\":30241:30250   */\n      dup2\n        /* \"#utility.yul\":30235:30239   */\n      dup2\n        /* \"#utility.yul\":30231:30251   */\n      sub\n        /* \"#utility.yul\":30227:30228   */\n      0x00\n        /* \"#utility.yul\":30216:30225   */\n      dup4\n        /* \"#utility.yul\":30212:30229   */\n      add\n        /* \"#utility.yul\":30205:30252   */\n      mstore\n        /* \"#utility.yul\":30269:30400   */\n      tag_640\n        /* \"#utility.yul\":30395:30399   */\n      dup2\n        /* \"#utility.yul\":30269:30400   */\n      tag_349\n      jump\t// in\n    tag_640:\n        /* \"#utility.yul\":30261:30400   */\n      swap1\n      pop\n        /* \"#utility.yul\":29988:30407   */\n      swap2\n      swap1\n      pop\n      jump\t// out\n        /* \"#utility.yul\":30413:30586   */\n    tag_350:\n        /* \"#utility.yul\":30553:30578   */\n      0x417070726f766520746f207a65726f2061646472657373000000000000000000\n        /* \"#utility.yul\":30549:30550   */\n      0x00\n        /* \"#utility.yul\":30541:30547   */\n      dup3\n        /* \"#utility.yul\":30537:30551   */\n      add\n        /* \"#utility.yul\":30530:30579   */\n      mstore\n        /* \"#utility.yul\":30413:30586   */\n      pop\n      jump\t// out\n        /* \"#utility.yul\":30592:30958   */\n    tag_351:\n        /* \"#utility.yul\":30734:30737   */\n      0x00\n        /* \"#utility.yul\":30755:30822   */\n      tag_643\n        /* \"#utility.yul\":30819:30821   */\n      0x17\n        /* \"#utility.yul\":30814:30817   */\n      dup4\n        /* \"#utility.yul\":30755:30822   */\n      tag_284\n      jump\t// in\n    tag_643:\n        /* \"#utility.yul\":30748:30822   */\n      swap2\n      pop\n        /* \"#utility.yul\":30831:30924   */\n      tag_644\n        /* \"#utility.yul\":30920:30923   */\n      dup3\n        /* \"#utility.yul\":30831:30924   */\n      tag_350\n      jump\t// in\n    tag_644:\n        /* \"#utility.yul\":30949:30951   */\n      0x20\n        /* \"#utility.yul\":30944:30947   */\n      dup3\n        /* \"#utility.yul\":30940:30952   */\n      add\n        /* \"#utility.yul\":30933:30952   */\n      swap1\n      pop\n        /* \"#utility.yul\":30592:30958   */\n      swap2\n      swap1\n      pop\n      jump\t// out\n        /* \"#utility.yul\":30964:31383   */\n    tag_262:\n        /* \"#utility.yul\":31130:31134   */\n      0x00\n        /* \"#utility.yul\":31168:31170   */\n      0x20\n        /* \"#utility.yul\":31157:31166   */\n      dup3\n        /* \"#utility.yul\":31153:31171   */\n      add\n        /* \"#utility.yul\":31145:31171   */\n      swap1\n      pop\n        /* \"#utility.yul\":31217:31226   */\n      dup2\n        /* \"#utility.yul\":31211:31215   */\n      dup2\n        /* \"#utility.yul\":31207:31227   */\n      sub\n        /* \"#utility.yul\":31203:31204   */\n      0x00\n        /* \"#utility.yul\":31192:31201   */\n      dup4\n        /* \"#utility.yul\":31188:31205   */\n      add\n        /* \"#utility.yul\":31181:31228   */\n      mstore\n        /* \"#utility.yul\":31245:31376   */\n      tag_646\n        /* \"#utility.yul\":31371:31375   */\n      dup2\n        /* \"#utility.yul\":31245:31376   */\n      tag_351\n      jump\t// in\n    tag_646:\n        /* \"#utility.yul\":31237:31376   */\n      swap1\n      pop\n        /* \"#utility.yul\":30964:31383   */\n      swap2\n      swap1\n      pop\n      jump\t// out\n        /* \"#utility.yul\":31389:31565   */\n    tag_352:\n        /* \"#utility.yul\":31529:31557   */\n      0x5472616e736665722066726f6d207a65726f2061646472657373000000000000\n        /* \"#utility.yul\":31525:31526   */\n      0x00\n        /* \"#utility.yul\":31517:31523   */\n      dup3\n        /* \"#utility.yul\":31513:31527   */\n      add\n        /* \"#utility.yul\":31506:31558   */\n      mstore\n        /* \"#utility.yul\":31389:31565   */\n      pop\n      jump\t// out\n        /* \"#utility.yul\":31571:31937   */\n    tag_353:\n        /* \"#utility.yul\":31713:31716   */\n      0x00\n        /* \"#utility.yul\":31734:31801   */\n      tag_649\n        /* \"#utility.yul\":31798:31800   */\n      0x1a\n        /* \"#utility.yul\":31793:31796   */\n      dup4\n        /* \"#utility.yul\":31734:31801   */\n      tag_284\n      jump\t// in\n    tag_649:\n        /* \"#utility.yul\":31727:31801   */\n      swap2\n      pop\n        /* \"#utility.yul\":31810:31903   */\n      tag_650\n        /* \"#utility.yul\":31899:31902   */\n      dup3\n        /* \"#utility.yul\":31810:31903   */\n      tag_352\n      jump\t// in\n    tag_650:\n        /* \"#utility.yul\":31928:31930   */\n      0x20\n        /* \"#utility.yul\":31923:31926   */\n      dup3\n        /* \"#utility.yul\":31919:31931   */\n      add\n        /* \"#utility.yul\":31912:31931   */\n      swap1\n      pop\n        /* \"#utility.yul\":31571:31937   */\n      swap2\n      swap1\n      pop\n      jump\t// out\n        /* \"#utility.yul\":31943:32362   */\n    tag_267:\n        /* \"#utility.yul\":32109:32113   */\n      0x00\n        /* \"#utility.yul\":32147:32149   */\n      0x20\n        /* \"#utility.yul\":32136:32145   */\n      dup3\n        /* \"#utility.yul\":32132:32150   */\n      add\n        /* \"#utility.yul\":32124:32150   */\n      swap1\n      pop\n        /* \"#utility.yul\":32196:32205   */\n      dup2\n        /* \"#utility.yul\":32190:32194   */\n      dup2\n        /* \"#utility.yul\":32186:32206   */\n      sub\n        /* \"#utility.yul\":32182:32183   */\n      0x00\n        /* \"#utility.yul\":32171:32180   */\n      dup4\n        /* \"#utility.yul\":32167:32184   */\n      add\n        /* \"#utility.yul\":32160:32207   */\n      mstore\n        /* \"#utility.yul\":32224:32355   */\n      tag_652\n        /* \"#utility.yul\":32350:32354   */\n      dup2\n        /* \"#utility.yul\":32224:32355   */\n      tag_353\n      jump\t// in\n    tag_652:\n        /* \"#utility.yul\":32216:32355   */\n      swap1\n      pop\n        /* \"#utility.yul\":31943:32362   */\n      swap2\n      swap1\n      pop\n      jump\t// out\n        /* \"#utility.yul\":32368:32542   */\n    tag_354:\n        /* \"#utility.yul\":32508:32534   */\n      0x5472616e7366657220746f207a65726f20616464726573730000000000000000\n        /* \"#utility.yul\":32504:32505   */\n      0x00\n        /* \"#utility.yul\":32496:32502   */\n      dup3\n        /* \"#utility.yul\":32492:32506   */\n      add\n        /* \"#utility.yul\":32485:32535   */\n      mstore\n        /* \"#utility.yul\":32368:32542   */\n      pop\n      jump\t// out\n        /* \"#utility.yul\":32548:32914   */\n    tag_355:\n        /* \"#utility.yul\":32690:32693   */\n      0x00\n        /* \"#utility.yul\":32711:32778   */\n      tag_655\n        /* \"#utility.yul\":32775:32777   */\n      0x18\n        /* \"#utility.yul\":32770:32773   */\n      dup4\n        /* \"#utility.yul\":32711:32778   */\n      tag_284\n      jump\t// in\n    tag_655:\n        /* \"#utility.yul\":32704:32778   */\n      swap2\n      pop\n        /* \"#utility.yul\":32787:32880   */\n      tag_656\n        /* \"#utility.yul\":32876:32879   */\n      dup3\n        /* \"#utility.yul\":32787:32880   */\n      tag_354\n      jump\t// in\n    tag_656:\n        /* \"#utility.yul\":32905:32907   */\n      0x20\n        /* \"#utility.yul\":32900:32903   */\n      dup3\n        /* \"#utility.yul\":32896:32908   */\n      add\n        /* \"#utility.yul\":32889:32908   */\n      swap1\n      pop\n        /* \"#utility.yul\":32548:32914   */\n      swap2\n      swap1\n      pop\n      jump\t// out\n        /* \"#utility.yul\":32920:33339   */\n    tag_270:\n        /* \"#utility.yul\":33086:33090   */\n      0x00\n        /* \"#utility.yul\":33124:33126   */\n      0x20\n        /* \"#utility.yul\":33113:33122   */\n      dup3\n        /* \"#utility.yul\":33109:33127   */\n      add\n        /* \"#utility.yul\":33101:33127   */\n      swap1\n      pop\n        /* \"#utility.yul\":33173:33182   */\n      dup2\n        /* \"#utility.yul\":33167:33171   */\n      dup2\n        /* \"#utility.yul\":33163:33183   */\n      sub\n        /* \"#utility.yul\":33159:33160   */\n      0x00\n        /* \"#utility.yul\":33148:33157   */\n      dup4\n        /* \"#utility.yul\":33144:33161   */\n      add\n        /* \"#utility.yul\":33137:33184   */\n      mstore\n        /* \"#utility.yul\":33201:33332   */\n      tag_658\n        /* \"#utility.yul\":33327:33331   */\n      dup2\n        /* \"#utility.yul\":33201:33332   */\n      tag_355\n      jump\t// in\n    tag_658:\n        /* \"#utility.yul\":33193:33332   */\n      swap1\n      pop\n        /* \"#utility.yul\":32920:33339   */\n      swap2\n      swap1\n      pop\n      jump\t// out\n\n    auxdata: 0xa2646970667358221220999554462e8b5dc56a0afa0c526fed5ee3c1cb78bb5cc00b762fec4da7bb043a64736f6c634300081a0033\n}\n",
				"bytecode": {
					"linkReferences": {},
					"object": "60806040526040518060400160405280600e81526020017f416476616e63656420546f6b656e0000000000000000000000000000000000008152505f908161004791906103ee565b506040518060400160405280600381526020017f41445600000000000000000000000000000000000000000000000000000000008152506001908161008c91906103ee565b50601260025f6101000a81548160ff021916908360ff1602179055503480156100b3575f80fd5b503360085f6101000a81548173ffffffffffffffffffffffffffffffffffffffff021916908373ffffffffffffffffffffffffffffffffffffffff16021790555069d3c21bcecceda100000060035f3373ffffffffffffffffffffffffffffffffffffffff1673ffffffffffffffffffffffffffffffffffffffff1681526020019081526020015f20819055503373ffffffffffffffffffffffffffffffffffffffff165f73ffffffffffffffffffffffffffffffffffffffff167fddf252ad1be2c89b69c2b068fc378daa952ba7f163c4a11628f55a4df523b3ef69d3c21bcecceda10000006040516101a791906104cc565b60405180910390a36104e5565b5f81519050919050565b7f4e487b71000000000000000000000000000000000000000000000000000000005f52604160045260245ffd5b7f4e487b71000000000000000000000000000000000000000000000000000000005f52602260045260245ffd5b5f600282049050600182168061022f57607f821691505b602082108103610242576102416101eb565b5b50919050565b5f819050815f5260205f209050919050565b5f6020601f8301049050919050565b5f82821b905092915050565b5f600883026102a47fffffffffffffffffffffffffffffffffffffffffffffffffffffffffffffffff82610269565b6102ae8683610269565b95508019841693508086168417925050509392505050565b5f819050919050565b5f819050919050565b5f6102f26102ed6102e8846102c6565b6102cf565b6102c6565b9050919050565b5f819050919050565b61030b836102d8565b61031f610317826102f9565b848454610275565b825550505050565b5f90565b610333610327565b61033e818484610302565b505050565b5b81811015610361576103565f8261032b565b600181019050610344565b5050565b601f8211156103a65761037781610248565b6103808461025a565b8101602085101561038f578190505b6103a361039b8561025a565b830182610343565b50505b505050565b5f82821c905092915050565b5f6103c65f19846008026103ab565b1980831691505092915050565b5f6103de83836103b7565b9150826002028217905092915050565b6103f7826101b4565b67ffffffffffffffff8111156104105761040f6101be565b5b61041a8254610218565b610425828285610365565b5f60209050601f831160018114610456575f8415610444578287015190505b61044e85826103d3565b8655506104b5565b601f19841661046486610248565b5f5b8281101561048b57848901518255600182019150602085019450602081019050610466565b868310156104a857848901516104a4601f8916826103b7565b8355505b6001600288020188555050505b505050505050565b6104c6816102c6565b82525050565b5f6020820190506104df5f8301846104bd565b92915050565b612a56806104f25f395ff3fe608060405234801561000f575f80fd5b5060043610610156575f3560e01c806370a08231116100c1578063a3ec138d1161007a578063a3ec138d146103e0578063a78d80fc14610412578063a9059cbb14610430578063c08cc02d14610460578063dd62ed3e1461047e578063f2fde38b146104ae57610156565b806370a082311461031a5780638da5cb5b1461034a578063902d55a514610368578063944ee22d1461038657806395d89b41146103a4578063a0ef4d0e146103c257610156565b8063313ce56711610113578063313ce5671461024457806335facf78146102625780633b4d01a71461027e57806340c10f19146102b257806342966c68146102ce57806343859632146102ea57610156565b80630121b93f1461015a578063013cf08b1461017657806306fdde03146101aa578063095ea7b3146101c85780630d61b519146101f857806323b872dd14610214575b5f80fd5b610174600480360381019061016f91906119f0565b6104ca565b005b610190600480360381019061018b91906119f0565b61082c565b6040516101a1959493929190611ab4565b60405180910390f35b6101b26108ff565b6040516101bf9190611b0c565b60405180910390f35b6101e260048036038101906101dd9190611b86565b61098a565b6040516101ef9190611bc4565b60405180910390f35b610212600480360381019061020d91906119f0565b6109a0565b005b61022e60048036038101906102299190611bdd565b610b59565b60405161023b9190611bc4565b60405180910390f35b61024c610bfe565b6040516102599190611c48565b60405180910390f35b61027c60048036038101906102779190611d8d565b610c10565b005b610298600480360381019061029391906119f0565b610df8565b6040516102a9959493929190611ab4565b60405180910390f35b6102cc60048036038101906102c79190611b86565b610f2b565b005b6102e860048036038101906102e391906119f0565b6110e4565b005b61030460048036038101906102ff9190611de7565b61121f565b6040516103119190611bc4565b60405180910390f35b610334600480360381019061032f9190611e25565b611249565b6040516103419190611e50565b60405180910390f35b61035261128f565b60405161035f9190611e78565b60405180910390f35b6103706112b4565b60405161037d9190611e50565b60405180910390f35b61038e6112c2565b60405161039b9190611e50565b60405180910390f35b6103ac6112c9565b6040516103b99190611b0c565b60405180910390f35b6103ca611355565b6040516103d79190611e50565b60405180910390f35b6103fa60048036038101906103f59190611e25565b611361565b60405161040993929190611e91565b60405180910390f35b61041a611393565b6040516104279190611e50565b60405180910390f35b61044a60048036038101906104459190611b86565b611399565b6040516104579190611bc4565b60405180910390f35b6104686113af565b6040516104759190611e50565b60405180910390f35b61049860048036038101906104939190611ec6565b6113bb565b6040516104a59190611e50565b60405180910390f35b6104c860048036038101906104c39190611e25565b61143d565b005b806005805490508110610512576040517f08c379a000000000000000000000000000000000000000000000000000000000815260040161050990611f4e565b60405180910390fd5b81426005828154811061052857610527611f6c565b5b905f5260205f2090600502016003015411610578576040517f08c379a000000000000000000000000000000000000000000000000000000000815260040161056f90611fe3565b60405180910390fd5b6005818154811061058c5761058b611f6c565b5b905f5260205f2090600502016004015f9054906101000a900460ff16156105e8576040517f08c379a00000000000000000000000000000000000000000000000000000000081526004016105df9061204b565b60405180910390fd5b678ac7230489e8000060035f3373ffffffffffffffffffffffffffffffffffffffff1673ffffffffffffffffffffffffffffffffffffffff1681526020019081526020015f20541015610670576040517f08c379a0000000000000000000000000000000000000000000000000000000008152600401610667906120b3565b60405180910390fd5b60075f8481526020019081526020015f205f3373ffffffffffffffffffffffffffffffffffffffff1673ffffffffffffffffffffffffffffffffffffffff1681526020019081526020015f205f9054906101000a900460ff1615610709576040517f08c379a00000000000000000000000000000000000000000000000000000000081526004016107009061211b565b60405180910390fd5b60035f3373ffffffffffffffffffffffffffffffffffffffff1673ffffffffffffffffffffffffffffffffffffffff1681526020019081526020015f20546005848154811061075b5761075a611f6c565b5b905f5260205f2090600502016002015f8282546107789190612166565b92505081905550600160075f8581526020019081526020015f205f3373ffffffffffffffffffffffffffffffffffffffff1673ffffffffffffffffffffffffffffffffffffffff1681526020019081526020015f205f6101000a81548160ff021916908315150217905550823373ffffffffffffffffffffffffffffffffffffffff167f4d99b957a2bc29a30ebd96a7be8e68fe50a3c701db28a91436490b7d53870ca460405160405180910390a3505050565b6005818154811061083b575f80fd5b905f5260205f2090600502015f91509050805f015490806001018054610860906121c6565b80601f016020809104026020016040519081016040528092919081815260200182805461088c906121c6565b80156108d75780601f106108ae576101008083540402835291602001916108d7565b820191905f5260205f20905b8154815290600101906020018083116108ba57829003601f168201915b505050505090806002015490806003015490806004015f9054906101000a900460ff16905085565b5f805461090b906121c6565b80601f0160208091040260200160405190810160405280929190818152602001828054610937906121c6565b80156109825780601f1061095957610100808354040283529160200191610982565b820191905f5260205f20905b81548152906001019060200180831161096557829003601f168201915b505050505081565b5f61099633848461157d565b6001905092915050565b8060058054905081106109e8576040517f08c379a00000000000000000000000000000000000000000000000000000000081526004016109df90611f4e565b60405180910390fd5b5f600583815481106109fd576109fc611f6c565b5b905f5260205f20906005020190508060030154421015610a52576040517f08c379a0000000000000000000000000000000000000000000000000000000008152600401610a4990612240565b60405180910390fd5b806004015f9054906101000a900460ff1615610aa3576040517f08c379a0000000000000000000000000000000000000000000000000000000008152600401610a9a9061204b565b60405180910390fd5b6064601469d3c21bcecceda1000000610abc919061225e565b610ac691906122cc565b816002015411610b0b576040517f08c379a0000000000000000000000000000000000000000000000000000000008152600401610b0290612346565b60405180910390fd5b6001816004015f6101000a81548160ff021916908315150217905550827f712ae1383f79ac853f8d882153778e0260ef8f03b504e2866e0593e04d2b291f60405160405180910390a2505050565b5f610b65848484611740565b610bf384338460045f8973ffffffffffffffffffffffffffffffffffffffff1673ffffffffffffffffffffffffffffffffffffffff1681526020019081526020015f205f3373ffffffffffffffffffffffffffffffffffffffff1673ffffffffffffffffffffffffffffffffffffffff1681526020019081526020015f2054610bee9190612364565b61157d565b600190509392505050565b60025f9054906101000a900460ff1681565b60085f9054906101000a900473ffffffffffffffffffffffffffffffffffffffff1673ffffffffffffffffffffffffffffffffffffffff163373ffffffffffffffffffffffffffffffffffffffff1614610c9f576040517f08c379a0000000000000000000000000000000000000000000000000000000008152600401610c96906123e1565b60405180910390fd5b62015180811015610ce5576040517f08c379a0000000000000000000000000000000000000000000000000000000008152600401610cdc90612449565b60405180910390fd5b5f60058054905090505f8242610cfb9190612166565b905060056040518060a001604052808481526020018681526020015f81526020018381526020015f1515815250908060018154018082558091505060019003905f5260205f2090600502015f909190919091505f820151815f01556020820151816001019081610d6b9190612604565b5060408201518160020155606082015181600301556080820151816004015f6101000a81548160ff021916908315150217905550505060095f815480929190610db3906126d3565b9190505550817ff5dc0da9afa6d080780a49fd8c680f03d2ddf3c067cd6d0c85360c096644d2d38585604051610dea92919061271a565b60405180910390a250505050565b5f60605f805f856005805490508110610e46576040517f08c379a0000000000000000000000000000000000000000000000000000000008152600401610e3d90611f4e565b60405180910390fd5b5f60058881548110610e5b57610e5a611f6c565b5b905f5260205f2090600502019050805f01548160010182600201548360030154846004015f9054906101000a900460ff16838054610e98906121c6565b80601f0160208091040260200160405190810160405280929190818152602001828054610ec4906121c6565b8015610f0f5780601f10610ee657610100808354040283529160200191610f0f565b820191905f5260205f20905b815481529060010190602001808311610ef257829003601f168201915b5050505050935096509650965096509650505091939590929450565b60085f9054906101000a900473ffffffffffffffffffffffffffffffffffffffff1673ffffffffffffffffffffffffffffffffffffffff163373ffffffffffffffffffffffffffffffffffffffff1614610fba576040517f08c379a0000000000000000000000000000000000000000000000000000000008152600401610fb1906123e1565b60405180910390fd5b5f73ffffffffffffffffffffffffffffffffffffffff168273ffffffffffffffffffffffffffffffffffffffff1603611028576040517f08c379a000000000000000000000000000000000000000000000000000000000815260040161101f90612792565b60405180910390fd5b8060035f8473ffffffffffffffffffffffffffffffffffffffff1673ffffffffffffffffffffffffffffffffffffffff1681526020019081526020015f205f8282546110749190612166565b925050819055508173ffffffffffffffffffffffffffffffffffffffff165f73ffffffffffffffffffffffffffffffffffffffff167fddf252ad1be2c89b69c2b068fc378daa952ba7f163c4a11628f55a4df523b3ef836040516110d89190611e50565b60405180910390a35050565b8060035f3373ffffffffffffffffffffffffffffffffffffffff1673ffffffffffffffffffffffffffffffffffffffff1681526020019081526020015f20541015611164576040517f08c379a000000000000000000000000000000000000000000000000000000000815260040161115b906127fa565b60405180910390fd5b8060035f3373ffffffffffffffffffffffffffffffffffffffff1673ffffffffffffffffffffffffffffffffffffffff1681526020019081526020015f205f8282546111b09190612364565b925050819055505f73ffffffffffffffffffffffffffffffffffffffff163373ffffffffffffffffffffffffffffffffffffffff167fddf252ad1be2c89b69c2b068fc378daa952ba7f163c4a11628f55a4df523b3ef836040516112149190611e50565b60405180910390a350565b6007602052815f5260405f20602052805f5260405f205f915091509054906101000a900460ff1681565b5f60035f8373ffffffffffffffffffffffffffffffffffffffff1673ffffffffffffffffffffffffffffffffffffffff1681526020019081526020015f20549050919050565b60085f9054906101000a900473ffffffffffffffffffffffffffffffffffffffff1681565b69d3c21bcecceda100000081565b6201518081565b600180546112d6906121c6565b80601f0160208091040260200160405190810160405280929190818152602001828054611302906121c6565b801561134d5780601f106113245761010080835404028352916020019161134d565b820191905f5260205f20905b81548152906001019060200180831161133057829003601f168201915b505050505081565b678ac7230489e8000081565b6006602052805f5260405f205f91509050805f015490806001015f9054906101000a900460ff16908060020154905083565b60095481565b5f6113a5338484611740565b6001905092915050565b5f600580549050905090565b5f60045f8473ffffffffffffffffffffffffffffffffffffffff1673ffffffffffffffffffffffffffffffffffffffff1681526020019081526020015f205f8373ffffffffffffffffffffffffffffffffffffffff1673ffffffffffffffffffffffffffffffffffffffff1681526020019081526020015f2054905092915050565b60085f9054906101000a900473ffffffffffffffffffffffffffffffffffffffff1673ffffffffffffffffffffffffffffffffffffffff163373ffffffffffffffffffffffffffffffffffffffff16146114cc576040517f08c379a00000000000000000000000000000000000000000000000000000000081526004016114c3906123e1565b60405180910390fd5b5f73ffffffffffffffffffffffffffffffffffffffff168173ffffffffffffffffffffffffffffffffffffffff160361153a576040517f08c379a000000000000000000000000000000000000000000000000000000000815260040161153190612862565b60405180910390fd5b8060085f6101000a81548173ffffffffffffffffffffffffffffffffffffffff021916908373ffffffffffffffffffffffffffffffffffffffff16021790555050565b5f73ffffffffffffffffffffffffffffffffffffffff168373ffffffffffffffffffffffffffffffffffffffff16036115eb576040517f08c379a00000000000000000000000000000000000000000000000000000000081526004016115e2906128ca565b60405180910390fd5b5f73ffffffffffffffffffffffffffffffffffffffff168273ffffffffffffffffffffffffffffffffffffffff1603611659576040517f08c379a000000000000000000000000000000000000000000000000000000000815260040161165090612932565b60405180910390fd5b8060045f8573ffffffffffffffffffffffffffffffffffffffff1673ffffffffffffffffffffffffffffffffffffffff1681526020019081526020015f205f8473ffffffffffffffffffffffffffffffffffffffff1673ffffffffffffffffffffffffffffffffffffffff1681526020019081526020015f20819055508173ffffffffffffffffffffffffffffffffffffffff168373ffffffffffffffffffffffffffffffffffffffff167f8c5be1e5ebec7d5bd14f71427d1e84f3dd0314c0f7b2291e5b200ac8c7c3b925836040516117339190611e50565b60405180910390a3505050565b5f73ffffffffffffffffffffffffffffffffffffffff168373ffffffffffffffffffffffffffffffffffffffff16036117ae576040517f08c379a00000000000000000000000000000000000000000000000000000000081526004016117a59061299a565b60405180910390fd5b5f73ffffffffffffffffffffffffffffffffffffffff168273ffffffffffffffffffffffffffffffffffffffff160361181c576040517f08c379a000000000000000000000000000000000000000000000000000000000815260040161181390612a02565b60405180910390fd5b8060035f8573ffffffffffffffffffffffffffffffffffffffff1673ffffffffffffffffffffffffffffffffffffffff1681526020019081526020015f2054101561189c576040517f08c379a0000000000000000000000000000000000000000000000000000000008152600401611893906127fa565b60405180910390fd5b8060035f8573ffffffffffffffffffffffffffffffffffffffff1673ffffffffffffffffffffffffffffffffffffffff1681526020019081526020015f205f8282546118e89190612364565b925050819055508060035f8473ffffffffffffffffffffffffffffffffffffffff1673ffffffffffffffffffffffffffffffffffffffff1681526020019081526020015f205f82825461193b9190612166565b925050819055508173ffffffffffffffffffffffffffffffffffffffff168373ffffffffffffffffffffffffffffffffffffffff167fddf252ad1be2c89b69c2b068fc378daa952ba7f163c4a11628f55a4df523b3ef8360405161199f9190611e50565b60405180910390a3505050565b5f604051905090565b5f80fd5b5f80fd5b5f819050919050565b6119cf816119bd565b81146119d9575f80fd5b50565b5f813590506119ea816119c6565b92915050565b5f60208284031215611a0557611a046119b5565b5b5f611a12848285016119dc565b91505092915050565b611a24816119bd565b82525050565b5f81519050919050565b5f82825260208201905092915050565b8281835e5f83830152505050565b5f601f19601f8301169050919050565b5f611a6c82611a2a565b611a768185611a34565b9350611a86818560208601611a44565b611a8f81611a52565b840191505092915050565b5f8115159050919050565b611aae81611a9a565b82525050565b5f60a082019050611ac75f830188611a1b565b8181036020830152611ad98187611a62565b9050611ae86040830186611a1b565b611af56060830185611a1b565b611b026080830184611aa5565b9695505050505050565b5f6020820190508181035f830152611b248184611a62565b905092915050565b5f73ffffffffffffffffffffffffffffffffffffffff82169050919050565b5f611b5582611b2c565b9050919050565b611b6581611b4b565b8114611b6f575f80fd5b50565b5f81359050611b8081611b5c565b92915050565b5f8060408385031215611b9c57611b9b6119b5565b5b5f611ba985828601611b72565b9250506020611bba858286016119dc565b9150509250929050565b5f602082019050611bd75f830184611aa5565b92915050565b5f805f60608486031215611bf457611bf36119b5565b5b5f611c0186828701611b72565b9350506020611c1286828701611b72565b9250506040611c23868287016119dc565b9150509250925092565b5f60ff82169050919050565b611c4281611c2d565b82525050565b5f602082019050611c5b5f830184611c39565b92915050565b5f80fd5b5f80fd5b7f4e487b71000000000000000000000000000000000000000000000000000000005f52604160045260245ffd5b611c9f82611a52565b810181811067ffffffffffffffff82111715611cbe57611cbd611c69565b5b80604052505050565b5f611cd06119ac565b9050611cdc8282611c96565b919050565b5f67ffffffffffffffff821115611cfb57611cfa611c69565b5b611d0482611a52565b9050602081019050919050565b828183375f83830152505050565b5f611d31611d2c84611ce1565b611cc7565b905082815260208101848484011115611d4d57611d4c611c65565b5b611d58848285611d11565b509392505050565b5f82601f830112611d7457611d73611c61565b5b8135611d84848260208601611d1f565b91505092915050565b5f8060408385031215611da357611da26119b5565b5b5f83013567ffffffffffffffff811115611dc057611dbf6119b9565b5b611dcc85828601611d60565b9250506020611ddd858286016119dc565b9150509250929050565b5f8060408385031215611dfd57611dfc6119b5565b5b5f611e0a858286016119dc565b9250506020611e1b85828601611b72565b9150509250929050565b5f60208284031215611e3a57611e396119b5565b5b5f611e4784828501611b72565b91505092915050565b5f602082019050611e635f830184611a1b565b92915050565b611e7281611b4b565b82525050565b5f602082019050611e8b5f830184611e69565b92915050565b5f606082019050611ea45f830186611a1b565b611eb16020830185611aa5565b611ebe6040830184611a1b565b949350505050565b5f8060408385031215611edc57611edb6119b5565b5b5f611ee985828601611b72565b9250506020611efa85828601611b72565b9150509250929050565b7f50726f706f73616c20646f65736e2774206578697374000000000000000000005f82015250565b5f611f38601683611a34565b9150611f4382611f04565b602082019050919050565b5f6020820190508181035f830152611f6581611f2c565b9050919050565b7f4e487b71000000000000000000000000000000000000000000000000000000005f52603260045260245ffd5b7f50726f706f73616c2065787069726564000000000000000000000000000000005f82015250565b5f611fcd601083611a34565b9150611fd882611f99565b602082019050919050565b5f6020820190508181035f830152611ffa81611fc1565b9050919050565b7f50726f706f73616c20616c7265616479206578656375746564000000000000005f82015250565b5f612035601983611a34565b915061204082612001565b602082019050919050565b5f6020820190508181035f83015261206281612029565b9050919050565b7f496e73756666696369656e7420746f6b656e7320746f20766f746500000000005f82015250565b5f61209d601b83611a34565b91506120a882612069565b602082019050919050565b5f6020820190508181035f8301526120ca81612091565b9050919050565b7f416c726561647920766f746564000000000000000000000000000000000000005f82015250565b5f612105600d83611a34565b9150612110826120d1565b602082019050919050565b5f6020820190508181035f830152612132816120f9565b9050919050565b7f4e487b71000000000000000000000000000000000000000000000000000000005f52601160045260245ffd5b5f612170826119bd565b915061217b836119bd565b925082820190508082111561219357612192612139565b5b92915050565b7f4e487b71000000000000000000000000000000000000000000000000000000005f52602260045260245ffd5b5f60028204905060018216806121dd57607f821691505b6020821081036121f0576121ef612199565b5b50919050565b7f566f74696e67207374696c6c206f6e676f696e670000000000000000000000005f82015250565b5f61222a601483611a34565b9150612235826121f6565b602082019050919050565b5f6020820190508181035f8301526122578161221e565b9050919050565b5f612268826119bd565b9150612273836119bd565b9250828202612281816119bd565b9150828204841483151761229857612297612139565b5b5092915050565b7f4e487b71000000000000000000000000000000000000000000000000000000005f52601260045260245ffd5b5f6122d6826119bd565b91506122e1836119bd565b9250826122f1576122f061229f565b5b828204905092915050565b7f4e6f7420656e6f75676820766f746573000000000000000000000000000000005f82015250565b5f612330601083611a34565b915061233b826122fc565b602082019050919050565b5f6020820190508181035f83015261235d81612324565b9050919050565b5f61236e826119bd565b9150612379836119bd565b925082820390508181111561239157612390612139565b5b92915050565b7f4e6f74206f776e657200000000000000000000000000000000000000000000005f82015250565b5f6123cb600983611a34565b91506123d682612397565b602082019050919050565b5f6020820190508181035f8301526123f8816123bf565b9050919050565b7f4475726174696f6e20746f6f2073686f727400000000000000000000000000005f82015250565b5f612433601283611a34565b915061243e826123ff565b602082019050919050565b5f6020820190508181035f83015261246081612427565b9050919050565b5f819050815f5260205f209050919050565b5f6020601f8301049050919050565b5f82821b905092915050565b5f600883026124c37fffffffffffffffffffffffffffffffffffffffffffffffffffffffffffffffff82612488565b6124cd8683612488565b95508019841693508086168417925050509392505050565b5f819050919050565b5f6125086125036124fe846119bd565b6124e5565b6119bd565b9050919050565b5f819050919050565b612521836124ee565b61253561252d8261250f565b848454612494565b825550505050565b5f90565b61254961253d565b612554818484612518565b505050565b5b818110156125775761256c5f82612541565b60018101905061255a565b5050565b601f8211156125bc5761258d81612467565b61259684612479565b810160208510156125a5578190505b6125b96125b185612479565b830182612559565b50505b505050565b5f82821c905092915050565b5f6125dc5f19846008026125c1565b1980831691505092915050565b5f6125f483836125cd565b9150826002028217905092915050565b61260d82611a2a565b67ffffffffffffffff81111561262657612625611c69565b5b61263082546121c6565b61263b82828561257b565b5f60209050601f83116001811461266c575f841561265a578287015190505b61266485826125e9565b8655506126cb565b601f19841661267a86612467565b5f5b828110156126a15784890151825560018201915060208501945060208101905061267c565b868310156126be57848901516126ba601f8916826125cd565b8355505b6001600288020188555050505b505050505050565b5f6126dd826119bd565b91507fffffffffffffffffffffffffffffffffffffffffffffffffffffffffffffffff820361270f5761270e612139565b5b600182019050919050565b5f6040820190508181035f8301526127328185611a62565b90506127416020830184611a1b565b9392505050565b7f4d696e7420746f207a65726f20616464726573730000000000000000000000005f82015250565b5f61277c601483611a34565b915061278782612748565b602082019050919050565b5f6020820190508181035f8301526127a981612770565b9050919050565b7f496e73756666696369656e742062616c616e63650000000000000000000000005f82015250565b5f6127e4601483611a34565b91506127ef826127b0565b602082019050919050565b5f6020820190508181035f830152612811816127d8565b9050919050565b7f4e6577206f776e6572206973207a65726f2061646472657373000000000000005f82015250565b5f61284c601983611a34565b915061285782612818565b602082019050919050565b5f6020820190508181035f83015261287981612840565b9050919050565b7f417070726f76652066726f6d207a65726f2061646472657373000000000000005f82015250565b5f6128b4601983611a34565b91506128bf82612880565b602082019050919050565b5f6020820190508181035f8301526128e1816128a8565b9050919050565b7f417070726f766520746f207a65726f20616464726573730000000000000000005f82015250565b5f61291c601783611a34565b9150612927826128e8565b602082019050919050565b5f6020820190508181035f83015261294981612910565b9050919050565b7f5472616e736665722066726f6d207a65726f20616464726573730000000000005f82015250565b5f612984601a83611a34565b915061298f82612950565b602082019050919050565b5f6020820190508181035f8301526129b181612978565b9050919050565b7f5472616e7366657220746f207a65726f206164647265737300000000000000005f82015250565b5f6129ec601883611a34565b91506129f7826129b8565b602082019050919050565b5f6020820190508181035f830152612a19816129e0565b905091905056fea2646970667358221220999554462e8b5dc56a0afa0c526fed5ee3c1cb78bb5cc00b762fec4da7bb043a64736f6c634300081a0033",
					"opcodes": "PUSH1 0x80 PUSH1 0x40 MSTORE PUSH1 0x40 MLOAD DUP1 PUSH1 0x40 ADD PUSH1 0x40 MSTORE DUP1 PUSH1 0xE DUP2 MSTORE PUSH1 0x20 ADD PUSH32 0x416476616E63656420546F6B656E000000000000000000000000000000000000 DUP2 MSTORE POP PUSH0 SWAP1 DUP2 PUSH2 0x47 SWAP2 SWAP1 PUSH2 0x3EE JUMP JUMPDEST POP PUSH1 0x40 MLOAD DUP1 PUSH1 0x40 ADD PUSH1 0x40 MSTORE DUP1 PUSH1 0x3 DUP2 MSTORE PUSH1 0x20 ADD PUSH32 0x4144560000000000000000000000000000000000000000000000000000000000 DUP2 MSTORE POP PUSH1 0x1 SWAP1 DUP2 PUSH2 0x8C SWAP2 SWAP1 PUSH2 0x3EE JUMP JUMPDEST POP PUSH1 0x12 PUSH1 0x2 PUSH0 PUSH2 0x100 EXP DUP2 SLOAD DUP2 PUSH1 0xFF MUL NOT AND SWAP1 DUP4 PUSH1 0xFF AND MUL OR SWAP1 SSTORE POP CALLVALUE DUP1 ISZERO PUSH2 0xB3 JUMPI PUSH0 DUP1 REVERT JUMPDEST POP CALLER PUSH1 0x8 PUSH0 PUSH2 0x100 EXP DUP2 SLOAD DUP2 PUSH20 0xFFFFFFFFFFFFFFFFFFFFFFFFFFFFFFFFFFFFFFFF MUL NOT AND SWAP1 DUP4 PUSH20 0xFFFFFFFFFFFFFFFFFFFFFFFFFFFFFFFFFFFFFFFF AND MUL OR SWAP1 SSTORE POP PUSH10 0xD3C21BCECCEDA1000000 PUSH1 0x3 PUSH0 CALLER PUSH20 0xFFFFFFFFFFFFFFFFFFFFFFFFFFFFFFFFFFFFFFFF AND PUSH20 0xFFFFFFFFFFFFFFFFFFFFFFFFFFFFFFFFFFFFFFFF AND DUP2 MSTORE PUSH1 0x20 ADD SWAP1 DUP2 MSTORE PUSH1 0x20 ADD PUSH0 KECCAK256 DUP2 SWAP1 SSTORE POP CALLER PUSH20 0xFFFFFFFFFFFFFFFFFFFFFFFFFFFFFFFFFFFFFFFF AND PUSH0 PUSH20 0xFFFFFFFFFFFFFFFFFFFFFFFFFFFFFFFFFFFFFFFF AND PUSH32 0xDDF252AD1BE2C89B69C2B068FC378DAA952BA7F163C4A11628F55A4DF523B3EF PUSH10 0xD3C21BCECCEDA1000000 PUSH1 0x40 MLOAD PUSH2 0x1A7 SWAP2 SWAP1 PUSH2 0x4CC JUMP JUMPDEST PUSH1 0x40 MLOAD DUP1 SWAP2 SUB SWAP1 LOG3 PUSH2 0x4E5 JUMP JUMPDEST PUSH0 DUP2 MLOAD SWAP1 POP SWAP2 SWAP1 POP JUMP JUMPDEST PUSH32 0x4E487B7100000000000000000000000000000000000000000000000000000000 PUSH0 MSTORE PUSH1 0x41 PUSH1 0x4 MSTORE PUSH1 0x24 PUSH0 REVERT JUMPDEST PUSH32 0x4E487B7100000000000000000000000000000000000000000000000000000000 PUSH0 MSTORE PUSH1 0x22 PUSH1 0x4 MSTORE PUSH1 0x24 PUSH0 REVERT JUMPDEST PUSH0 PUSH1 0x2 DUP3 DIV SWAP1 POP PUSH1 0x1 DUP3 AND DUP1 PUSH2 0x22F JUMPI PUSH1 0x7F DUP3 AND SWAP2 POP JUMPDEST PUSH1 0x20 DUP3 LT DUP2 SUB PUSH2 0x242 JUMPI PUSH2 0x241 PUSH2 0x1EB JUMP JUMPDEST JUMPDEST POP SWAP2 SWAP1 POP JUMP JUMPDEST PUSH0 DUP2 SWAP1 POP DUP2 PUSH0 MSTORE PUSH1 0x20 PUSH0 KECCAK256 SWAP1 POP SWAP2 SWAP1 POP JUMP JUMPDEST PUSH0 PUSH1 0x20 PUSH1 0x1F DUP4 ADD DIV SWAP1 POP SWAP2 SWAP1 POP JUMP JUMPDEST PUSH0 DUP3 DUP3 SHL SWAP1 POP SWAP3 SWAP2 POP POP JUMP JUMPDEST PUSH0 PUSH1 0x8 DUP4 MUL PUSH2 0x2A4 PUSH32 0xFFFFFFFFFFFFFFFFFFFFFFFFFFFFFFFFFFFFFFFFFFFFFFFFFFFFFFFFFFFFFFFF DUP3 PUSH2 0x269 JUMP JUMPDEST PUSH2 0x2AE DUP7 DUP4 PUSH2 0x269 JUMP JUMPDEST SWAP6 POP DUP1 NOT DUP5 AND SWAP4 POP DUP1 DUP7 AND DUP5 OR SWAP3 POP POP POP SWAP4 SWAP3 POP POP POP JUMP JUMPDEST PUSH0 DUP2 SWAP1 POP SWAP2 SWAP1 POP JUMP JUMPDEST PUSH0 DUP2 SWAP1 POP SWAP2 SWAP1 POP JUMP JUMPDEST PUSH0 PUSH2 0x2F2 PUSH2 0x2ED PUSH2 0x2E8 DUP5 PUSH2 0x2C6 JUMP JUMPDEST PUSH2 0x2CF JUMP JUMPDEST PUSH2 0x2C6 JUMP JUMPDEST SWAP1 POP SWAP2 SWAP1 POP JUMP JUMPDEST PUSH0 DUP2 SWAP1 POP SWAP2 SWAP1 POP JUMP JUMPDEST PUSH2 0x30B DUP4 PUSH2 0x2D8 JUMP JUMPDEST PUSH2 0x31F PUSH2 0x317 DUP3 PUSH2 0x2F9 JUMP JUMPDEST DUP5 DUP5 SLOAD PUSH2 0x275 JUMP JUMPDEST DUP3 SSTORE POP POP POP POP JUMP JUMPDEST PUSH0 SWAP1 JUMP JUMPDEST PUSH2 0x333 PUSH2 0x327 JUMP JUMPDEST PUSH2 0x33E DUP2 DUP5 DUP5 PUSH2 0x302 JUMP JUMPDEST POP POP POP JUMP JUMPDEST JUMPDEST DUP2 DUP2 LT ISZERO PUSH2 0x361 JUMPI PUSH2 0x356 PUSH0 DUP3 PUSH2 0x32B JUMP JUMPDEST PUSH1 0x1 DUP2 ADD SWAP1 POP PUSH2 0x344 JUMP JUMPDEST POP POP JUMP JUMPDEST PUSH1 0x1F DUP3 GT ISZERO PUSH2 0x3A6 JUMPI PUSH2 0x377 DUP2 PUSH2 0x248 JUMP JUMPDEST PUSH2 0x380 DUP5 PUSH2 0x25A JUMP JUMPDEST DUP2 ADD PUSH1 0x20 DUP6 LT ISZERO PUSH2 0x38F JUMPI DUP2 SWAP1 POP JUMPDEST PUSH2 0x3A3 PUSH2 0x39B DUP6 PUSH2 0x25A JUMP JUMPDEST DUP4 ADD DUP3 PUSH2 0x343 JUMP JUMPDEST POP POP JUMPDEST POP POP POP JUMP JUMPDEST PUSH0 DUP3 DUP3 SHR SWAP1 POP SWAP3 SWAP2 POP POP JUMP JUMPDEST PUSH0 PUSH2 0x3C6 PUSH0 NOT DUP5 PUSH1 0x8 MUL PUSH2 0x3AB JUMP JUMPDEST NOT DUP1 DUP4 AND SWAP2 POP POP SWAP3 SWAP2 POP POP JUMP JUMPDEST PUSH0 PUSH2 0x3DE DUP4 DUP4 PUSH2 0x3B7 JUMP JUMPDEST SWAP2 POP DUP3 PUSH1 0x2 MUL DUP3 OR SWAP1 POP SWAP3 SWAP2 POP POP JUMP JUMPDEST PUSH2 0x3F7 DUP3 PUSH2 0x1B4 JUMP JUMPDEST PUSH8 0xFFFFFFFFFFFFFFFF DUP2 GT ISZERO PUSH2 0x410 JUMPI PUSH2 0x40F PUSH2 0x1BE JUMP JUMPDEST JUMPDEST PUSH2 0x41A DUP3 SLOAD PUSH2 0x218 JUMP JUMPDEST PUSH2 0x425 DUP3 DUP3 DUP6 PUSH2 0x365 JUMP JUMPDEST PUSH0 PUSH1 0x20 SWAP1 POP PUSH1 0x1F DUP4 GT PUSH1 0x1 DUP2 EQ PUSH2 0x456 JUMPI PUSH0 DUP5 ISZERO PUSH2 0x444 JUMPI DUP3 DUP8 ADD MLOAD SWAP1 POP JUMPDEST PUSH2 0x44E DUP6 DUP3 PUSH2 0x3D3 JUMP JUMPDEST DUP7 SSTORE POP PUSH2 0x4B5 JUMP JUMPDEST PUSH1 0x1F NOT DUP5 AND PUSH2 0x464 DUP7 PUSH2 0x248 JUMP JUMPDEST PUSH0 JUMPDEST DUP3 DUP2 LT ISZERO PUSH2 0x48B JUMPI DUP5 DUP10 ADD MLOAD DUP3 SSTORE PUSH1 0x1 DUP3 ADD SWAP2 POP PUSH1 0x20 DUP6 ADD SWAP5 POP PUSH1 0x20 DUP2 ADD SWAP1 POP PUSH2 0x466 JUMP JUMPDEST DUP7 DUP4 LT ISZERO PUSH2 0x4A8 JUMPI DUP5 DUP10 ADD MLOAD PUSH2 0x4A4 PUSH1 0x1F DUP10 AND DUP3 PUSH2 0x3B7 JUMP JUMPDEST DUP4 SSTORE POP JUMPDEST PUSH1 0x1 PUSH1 0x2 DUP9 MUL ADD DUP9 SSTORE POP POP POP JUMPDEST POP POP POP POP POP POP JUMP JUMPDEST PUSH2 0x4C6 DUP2 PUSH2 0x2C6 JUMP JUMPDEST DUP3 MSTORE POP POP JUMP JUMPDEST PUSH0 PUSH1 0x20 DUP3 ADD SWAP1 POP PUSH2 0x4DF PUSH0 DUP4 ADD DUP5 PUSH2 0x4BD JUMP JUMPDEST SWAP3 SWAP2 POP POP JUMP JUMPDEST PUSH2 0x2A56 DUP1 PUSH2 0x4F2 PUSH0 CODECOPY PUSH0 RETURN INVALID PUSH1 0x80 PUSH1 0x40 MSTORE CALLVALUE DUP1 ISZERO PUSH2 0xF JUMPI PUSH0 DUP1 REVERT JUMPDEST POP PUSH1 0x4 CALLDATASIZE LT PUSH2 0x156 JUMPI PUSH0 CALLDATALOAD PUSH1 0xE0 SHR DUP1 PUSH4 0x70A08231 GT PUSH2 0xC1 JUMPI DUP1 PUSH4 0xA3EC138D GT PUSH2 0x7A JUMPI DUP1 PUSH4 0xA3EC138D EQ PUSH2 0x3E0 JUMPI DUP1 PUSH4 0xA78D80FC EQ PUSH2 0x412 JUMPI DUP1 PUSH4 0xA9059CBB EQ PUSH2 0x430 JUMPI DUP1 PUSH4 0xC08CC02D EQ PUSH2 0x460 JUMPI DUP1 PUSH4 0xDD62ED3E EQ PUSH2 0x47E JUMPI DUP1 PUSH4 0xF2FDE38B EQ PUSH2 0x4AE JUMPI PUSH2 0x156 JUMP JUMPDEST DUP1 PUSH4 0x70A08231 EQ PUSH2 0x31A JUMPI DUP1 PUSH4 0x8DA5CB5B EQ PUSH2 0x34A JUMPI DUP1 PUSH4 0x902D55A5 EQ PUSH2 0x368 JUMPI DUP1 PUSH4 0x944EE22D EQ PUSH2 0x386 JUMPI DUP1 PUSH4 0x95D89B41 EQ PUSH2 0x3A4 JUMPI DUP1 PUSH4 0xA0EF4D0E EQ PUSH2 0x3C2 JUMPI PUSH2 0x156 JUMP JUMPDEST DUP1 PUSH4 0x313CE567 GT PUSH2 0x113 JUMPI DUP1 PUSH4 0x313CE567 EQ PUSH2 0x244 JUMPI DUP1 PUSH4 0x35FACF78 EQ PUSH2 0x262 JUMPI DUP1 PUSH4 0x3B4D01A7 EQ PUSH2 0x27E JUMPI DUP1 PUSH4 0x40C10F19 EQ PUSH2 0x2B2 JUMPI DUP1 PUSH4 0x42966C68 EQ PUSH2 0x2CE JUMPI DUP1 PUSH4 0x43859632 EQ PUSH2 0x2EA JUMPI PUSH2 0x156 JUMP JUMPDEST DUP1 PUSH4 0x121B93F EQ PUSH2 0x15A JUMPI DUP1 PUSH4 0x13CF08B EQ PUSH2 0x176 JUMPI DUP1 PUSH4 0x6FDDE03 EQ PUSH2 0x1AA JUMPI DUP1 PUSH4 0x95EA7B3 EQ PUSH2 0x1C8 JUMPI DUP1 PUSH4 0xD61B519 EQ PUSH2 0x1F8 JUMPI DUP1 PUSH4 0x23B872DD EQ PUSH2 0x214 JUMPI JUMPDEST PUSH0 DUP1 REVERT JUMPDEST PUSH2 0x174 PUSH1 0x4 DUP1 CALLDATASIZE SUB DUP2 ADD SWAP1 PUSH2 0x16F SWAP2 SWAP1 PUSH2 0x19F0 JUMP JUMPDEST PUSH2 0x4CA JUMP JUMPDEST STOP JUMPDEST PUSH2 0x190 PUSH1 0x4 DUP1 CALLDATASIZE SUB DUP2 ADD SWAP1 PUSH2 0x18B SWAP2 SWAP1 PUSH2 0x19F0 JUMP JUMPDEST PUSH2 0x82C JUMP JUMPDEST PUSH1 0x40 MLOAD PUSH2 0x1A1 SWAP6 SWAP5 SWAP4 SWAP3 SWAP2 SWAP1 PUSH2 0x1AB4 JUMP JUMPDEST PUSH1 0x40 MLOAD DUP1 SWAP2 SUB SWAP1 RETURN JUMPDEST PUSH2 0x1B2 PUSH2 0x8FF JUMP JUMPDEST PUSH1 0x40 MLOAD PUSH2 0x1BF SWAP2 SWAP1 PUSH2 0x1B0C JUMP JUMPDEST PUSH1 0x40 MLOAD DUP1 SWAP2 SUB SWAP1 RETURN JUMPDEST PUSH2 0x1E2 PUSH1 0x4 DUP1 CALLDATASIZE SUB DUP2 ADD SWAP1 PUSH2 0x1DD SWAP2 SWAP1 PUSH2 0x1B86 JUMP JUMPDEST PUSH2 0x98A JUMP JUMPDEST PUSH1 0x40 MLOAD PUSH2 0x1EF SWAP2 SWAP1 PUSH2 0x1BC4 JUMP JUMPDEST PUSH1 0x40 MLOAD DUP1 SWAP2 SUB SWAP1 RETURN JUMPDEST PUSH2 0x212 PUSH1 0x4 DUP1 CALLDATASIZE SUB DUP2 ADD SWAP1 PUSH2 0x20D SWAP2 SWAP1 PUSH2 0x19F0 JUMP JUMPDEST PUSH2 0x9A0 JUMP JUMPDEST STOP JUMPDEST PUSH2 0x22E PUSH1 0x4 DUP1 CALLDATASIZE SUB DUP2 ADD SWAP1 PUSH2 0x229 SWAP2 SWAP1 PUSH2 0x1BDD JUMP JUMPDEST PUSH2 0xB59 JUMP JUMPDEST PUSH1 0x40 MLOAD PUSH2 0x23B SWAP2 SWAP1 PUSH2 0x1BC4 JUMP JUMPDEST PUSH1 0x40 MLOAD DUP1 SWAP2 SUB SWAP1 RETURN JUMPDEST PUSH2 0x24C PUSH2 0xBFE JUMP JUMPDEST PUSH1 0x40 MLOAD PUSH2 0x259 SWAP2 SWAP1 PUSH2 0x1C48 JUMP JUMPDEST PUSH1 0x40 MLOAD DUP1 SWAP2 SUB SWAP1 RETURN JUMPDEST PUSH2 0x27C PUSH1 0x4 DUP1 CALLDATASIZE SUB DUP2 ADD SWAP1 PUSH2 0x277 SWAP2 SWAP1 PUSH2 0x1D8D JUMP JUMPDEST PUSH2 0xC10 JUMP JUMPDEST STOP JUMPDEST PUSH2 0x298 PUSH1 0x4 DUP1 CALLDATASIZE SUB DUP2 ADD SWAP1 PUSH2 0x293 SWAP2 SWAP1 PUSH2 0x19F0 JUMP JUMPDEST PUSH2 0xDF8 JUMP JUMPDEST PUSH1 0x40 MLOAD PUSH2 0x2A9 SWAP6 SWAP5 SWAP4 SWAP3 SWAP2 SWAP1 PUSH2 0x1AB4 JUMP JUMPDEST PUSH1 0x40 MLOAD DUP1 SWAP2 SUB SWAP1 RETURN JUMPDEST PUSH2 0x2CC PUSH1 0x4 DUP1 CALLDATASIZE SUB DUP2 ADD SWAP1 PUSH2 0x2C7 SWAP2 SWAP1 PUSH2 0x1B86 JUMP JUMPDEST PUSH2 0xF2B JUMP JUMPDEST STOP JUMPDEST PUSH2 0x2E8 PUSH1 0x4 DUP1 CALLDATASIZE SUB DUP2 ADD SWAP1 PUSH2 0x2E3 SWAP2 SWAP1 PUSH2 0x19F0 JUMP JUMPDEST PUSH2 0x10E4 JUMP JUMPDEST STOP JUMPDEST PUSH2 0x304 PUSH1 0x4 DUP1 CALLDATASIZE SUB DUP2 ADD SWAP1 PUSH2 0x2FF SWAP2 SWAP1 PUSH2 0x1DE7 JUMP JUMPDEST PUSH2 0x121F JUMP JUMPDEST PUSH1 0x40 MLOAD PUSH2 0x311 SWAP2 SWAP1 PUSH2 0x1BC4 JUMP JUMPDEST PUSH1 0x40 MLOAD DUP1 SWAP2 SUB SWAP1 RETURN JUMPDEST PUSH2 0x334 PUSH1 0x4 DUP1 CALLDATASIZE SUB DUP2 ADD SWAP1 PUSH2 0x32F SWAP2 SWAP1 PUSH2 0x1E25 JUMP JUMPDEST PUSH2 0x1249 JUMP JUMPDEST PUSH1 0x40 MLOAD PUSH2 0x341 SWAP2 SWAP1 PUSH2 0x1E50 JUMP JUMPDEST PUSH1 0x40 MLOAD DUP1 SWAP2 SUB SWAP1 RETURN JUMPDEST PUSH2 0x352 PUSH2 0x128F JUMP JUMPDEST PUSH1 0x40 MLOAD PUSH2 0x35F SWAP2 SWAP1 PUSH2 0x1E78 JUMP JUMPDEST PUSH1 0x40 MLOAD DUP1 SWAP2 SUB SWAP1 RETURN JUMPDEST PUSH2 0x370 PUSH2 0x12B4 JUMP JUMPDEST PUSH1 0x40 MLOAD PUSH2 0x37D SWAP2 SWAP1 PUSH2 0x1E50 JUMP JUMPDEST PUSH1 0x40 MLOAD DUP1 SWAP2 SUB SWAP1 RETURN JUMPDEST PUSH2 0x38E PUSH2 0x12C2 JUMP JUMPDEST PUSH1 0x40 MLOAD PUSH2 0x39B SWAP2 SWAP1 PUSH2 0x1E50 JUMP JUMPDEST PUSH1 0x40 MLOAD DUP1 SWAP2 SUB SWAP1 RETURN JUMPDEST PUSH2 0x3AC PUSH2 0x12C9 JUMP JUMPDEST PUSH1 0x40 MLOAD PUSH2 0x3B9 SWAP2 SWAP1 PUSH2 0x1B0C JUMP JUMPDEST PUSH1 0x40 MLOAD DUP1 SWAP2 SUB SWAP1 RETURN JUMPDEST PUSH2 0x3CA PUSH2 0x1355 JUMP JUMPDEST PUSH1 0x40 MLOAD PUSH2 0x3D7 SWAP2 SWAP1 PUSH2 0x1E50 JUMP JUMPDEST PUSH1 0x40 MLOAD DUP1 SWAP2 SUB SWAP1 RETURN JUMPDEST PUSH2 0x3FA PUSH1 0x4 DUP1 CALLDATASIZE SUB DUP2 ADD SWAP1 PUSH2 0x3F5 SWAP2 SWAP1 PUSH2 0x1E25 JUMP JUMPDEST PUSH2 0x1361 JUMP JUMPDEST PUSH1 0x40 MLOAD PUSH2 0x409 SWAP4 SWAP3 SWAP2 SWAP1 PUSH2 0x1E91 JUMP JUMPDEST PUSH1 0x40 MLOAD DUP1 SWAP2 SUB SWAP1 RETURN JUMPDEST PUSH2 0x41A PUSH2 0x1393 JUMP JUMPDEST PUSH1 0x40 MLOAD PUSH2 0x427 SWAP2 SWAP1 PUSH2 0x1E50 JUMP JUMPDEST PUSH1 0x40 MLOAD DUP1 SWAP2 SUB SWAP1 RETURN JUMPDEST PUSH2 0x44A PUSH1 0x4 DUP1 CALLDATASIZE SUB DUP2 ADD SWAP1 PUSH2 0x445 SWAP2 SWAP1 PUSH2 0x1B86 JUMP JUMPDEST PUSH2 0x1399 JUMP JUMPDEST PUSH1 0x40 MLOAD PUSH2 0x457 SWAP2 SWAP1 PUSH2 0x1BC4 JUMP JUMPDEST PUSH1 0x40 MLOAD DUP1 SWAP2 SUB SWAP1 RETURN JUMPDEST PUSH2 0x468 PUSH2 0x13AF JUMP JUMPDEST PUSH1 0x40 MLOAD PUSH2 0x475 SWAP2 SWAP1 PUSH2 0x1E50 JUMP JUMPDEST PUSH1 0x40 MLOAD DUP1 SWAP2 SUB SWAP1 RETURN JUMPDEST PUSH2 0x498 PUSH1 0x4 DUP1 CALLDATASIZE SUB DUP2 ADD SWAP1 PUSH2 0x493 SWAP2 SWAP1 PUSH2 0x1EC6 JUMP JUMPDEST PUSH2 0x13BB JUMP JUMPDEST PUSH1 0x40 MLOAD PUSH2 0x4A5 SWAP2 SWAP1 PUSH2 0x1E50 JUMP JUMPDEST PUSH1 0x40 MLOAD DUP1 SWAP2 SUB SWAP1 RETURN JUMPDEST PUSH2 0x4C8 PUSH1 0x4 DUP1 CALLDATASIZE SUB DUP2 ADD SWAP1 PUSH2 0x4C3 SWAP2 SWAP1 PUSH2 0x1E25 JUMP JUMPDEST PUSH2 0x143D JUMP JUMPDEST STOP JUMPDEST DUP1 PUSH1 0x5 DUP1 SLOAD SWAP1 POP DUP2 LT PUSH2 0x512 JUMPI PUSH1 0x40 MLOAD PUSH32 0x8C379A000000000000000000000000000000000000000000000000000000000 DUP2 MSTORE PUSH1 0x4 ADD PUSH2 0x509 SWAP1 PUSH2 0x1F4E JUMP JUMPDEST PUSH1 0x40 MLOAD DUP1 SWAP2 SUB SWAP1 REVERT JUMPDEST DUP2 TIMESTAMP PUSH1 0x5 DUP3 DUP2 SLOAD DUP2 LT PUSH2 0x528 JUMPI PUSH2 0x527 PUSH2 0x1F6C JUMP JUMPDEST JUMPDEST SWAP1 PUSH0 MSTORE PUSH1 0x20 PUSH0 KECCAK256 SWAP1 PUSH1 0x5 MUL ADD PUSH1 0x3 ADD SLOAD GT PUSH2 0x578 JUMPI PUSH1 0x40 MLOAD PUSH32 0x8C379A000000000000000000000000000000000000000000000000000000000 DUP2 MSTORE PUSH1 0x4 ADD PUSH2 0x56F SWAP1 PUSH2 0x1FE3 JUMP JUMPDEST PUSH1 0x40 MLOAD DUP1 SWAP2 SUB SWAP1 REVERT JUMPDEST PUSH1 0x5 DUP2 DUP2 SLOAD DUP2 LT PUSH2 0x58C JUMPI PUSH2 0x58B PUSH2 0x1F6C JUMP JUMPDEST JUMPDEST SWAP1 PUSH0 MSTORE PUSH1 0x20 PUSH0 KECCAK256 SWAP1 PUSH1 0x5 MUL ADD PUSH1 0x4 ADD PUSH0 SWAP1 SLOAD SWAP1 PUSH2 0x100 EXP SWAP1 DIV PUSH1 0xFF AND ISZERO PUSH2 0x5E8 JUMPI PUSH1 0x40 MLOAD PUSH32 0x8C379A000000000000000000000000000000000000000000000000000000000 DUP2 MSTORE PUSH1 0x4 ADD PUSH2 0x5DF SWAP1 PUSH2 0x204B JUMP JUMPDEST PUSH1 0x40 MLOAD DUP1 SWAP2 SUB SWAP1 REVERT JUMPDEST PUSH8 0x8AC7230489E80000 PUSH1 0x3 PUSH0 CALLER PUSH20 0xFFFFFFFFFFFFFFFFFFFFFFFFFFFFFFFFFFFFFFFF AND PUSH20 0xFFFFFFFFFFFFFFFFFFFFFFFFFFFFFFFFFFFFFFFF AND DUP2 MSTORE PUSH1 0x20 ADD SWAP1 DUP2 MSTORE PUSH1 0x20 ADD PUSH0 KECCAK256 SLOAD LT ISZERO PUSH2 0x670 JUMPI PUSH1 0x40 MLOAD PUSH32 0x8C379A000000000000000000000000000000000000000000000000000000000 DUP2 MSTORE PUSH1 0x4 ADD PUSH2 0x667 SWAP1 PUSH2 0x20B3 JUMP JUMPDEST PUSH1 0x40 MLOAD DUP1 SWAP2 SUB SWAP1 REVERT JUMPDEST PUSH1 0x7 PUSH0 DUP5 DUP2 MSTORE PUSH1 0x20 ADD SWAP1 DUP2 MSTORE PUSH1 0x20 ADD PUSH0 KECCAK256 PUSH0 CALLER PUSH20 0xFFFFFFFFFFFFFFFFFFFFFFFFFFFFFFFFFFFFFFFF AND PUSH20 0xFFFFFFFFFFFFFFFFFFFFFFFFFFFFFFFFFFFFFFFF AND DUP2 MSTORE PUSH1 0x20 ADD SWAP1 DUP2 MSTORE PUSH1 0x20 ADD PUSH0 KECCAK256 PUSH0 SWAP1 SLOAD SWAP1 PUSH2 0x100 EXP SWAP1 DIV PUSH1 0xFF AND ISZERO PUSH2 0x709 JUMPI PUSH1 0x40 MLOAD PUSH32 0x8C379A000000000000000000000000000000000000000000000000000000000 DUP2 MSTORE PUSH1 0x4 ADD PUSH2 0x700 SWAP1 PUSH2 0x211B JUMP JUMPDEST PUSH1 0x40 MLOAD DUP1 SWAP2 SUB SWAP1 REVERT JUMPDEST PUSH1 0x3 PUSH0 CALLER PUSH20 0xFFFFFFFFFFFFFFFFFFFFFFFFFFFFFFFFFFFFFFFF AND PUSH20 0xFFFFFFFFFFFFFFFFFFFFFFFFFFFFFFFFFFFFFFFF AND DUP2 MSTORE PUSH1 0x20 ADD SWAP1 DUP2 MSTORE PUSH1 0x20 ADD PUSH0 KECCAK256 SLOAD PUSH1 0x5 DUP5 DUP2 SLOAD DUP2 LT PUSH2 0x75B JUMPI PUSH2 0x75A PUSH2 0x1F6C JUMP JUMPDEST JUMPDEST SWAP1 PUSH0 MSTORE PUSH1 0x20 PUSH0 KECCAK256 SWAP1 PUSH1 0x5 MUL ADD PUSH1 0x2 ADD PUSH0 DUP3 DUP3 SLOAD PUSH2 0x778 SWAP2 SWAP1 PUSH2 0x2166 JUMP JUMPDEST SWAP3 POP POP DUP2 SWAP1 SSTORE POP PUSH1 0x1 PUSH1 0x7 PUSH0 DUP6 DUP2 MSTORE PUSH1 0x20 ADD SWAP1 DUP2 MSTORE PUSH1 0x20 ADD PUSH0 KECCAK256 PUSH0 CALLER PUSH20 0xFFFFFFFFFFFFFFFFFFFFFFFFFFFFFFFFFFFFFFFF AND PUSH20 0xFFFFFFFFFFFFFFFFFFFFFFFFFFFFFFFFFFFFFFFF AND DUP2 MSTORE PUSH1 0x20 ADD SWAP1 DUP2 MSTORE PUSH1 0x20 ADD PUSH0 KECCAK256 PUSH0 PUSH2 0x100 EXP DUP2 SLOAD DUP2 PUSH1 0xFF MUL NOT AND SWAP1 DUP4 ISZERO ISZERO MUL OR SWAP1 SSTORE POP DUP3 CALLER PUSH20 0xFFFFFFFFFFFFFFFFFFFFFFFFFFFFFFFFFFFFFFFF AND PUSH32 0x4D99B957A2BC29A30EBD96A7BE8E68FE50A3C701DB28A91436490B7D53870CA4 PUSH1 0x40 MLOAD PUSH1 0x40 MLOAD DUP1 SWAP2 SUB SWAP1 LOG3 POP POP POP JUMP JUMPDEST PUSH1 0x5 DUP2 DUP2 SLOAD DUP2 LT PUSH2 0x83B JUMPI PUSH0 DUP1 REVERT JUMPDEST SWAP1 PUSH0 MSTORE PUSH1 0x20 PUSH0 KECCAK256 SWAP1 PUSH1 0x5 MUL ADD PUSH0 SWAP2 POP SWAP1 POP DUP1 PUSH0 ADD SLOAD SWAP1 DUP1 PUSH1 0x1 ADD DUP1 SLOAD PUSH2 0x860 SWAP1 PUSH2 0x21C6 JUMP JUMPDEST DUP1 PUSH1 0x1F ADD PUSH1 0x20 DUP1 SWAP2 DIV MUL PUSH1 0x20 ADD PUSH1 0x40 MLOAD SWAP1 DUP2 ADD PUSH1 0x40 MSTORE DUP1 SWAP3 SWAP2 SWAP1 DUP2 DUP2 MSTORE PUSH1 0x20 ADD DUP3 DUP1 SLOAD PUSH2 0x88C SWAP1 PUSH2 0x21C6 JUMP JUMPDEST DUP1 ISZERO PUSH2 0x8D7 JUMPI DUP1 PUSH1 0x1F LT PUSH2 0x8AE JUMPI PUSH2 0x100 DUP1 DUP4 SLOAD DIV MUL DUP4 MSTORE SWAP2 PUSH1 0x20 ADD SWAP2 PUSH2 0x8D7 JUMP JUMPDEST DUP3 ADD SWAP2 SWAP1 PUSH0 MSTORE PUSH1 0x20 PUSH0 KECCAK256 SWAP1 JUMPDEST DUP2 SLOAD DUP2 MSTORE SWAP1 PUSH1 0x1 ADD SWAP1 PUSH1 0x20 ADD DUP1 DUP4 GT PUSH2 0x8BA JUMPI DUP3 SWAP1 SUB PUSH1 0x1F AND DUP3 ADD SWAP2 JUMPDEST POP POP POP POP POP SWAP1 DUP1 PUSH1 0x2 ADD SLOAD SWAP1 DUP1 PUSH1 0x3 ADD SLOAD SWAP1 DUP1 PUSH1 0x4 ADD PUSH0 SWAP1 SLOAD SWAP1 PUSH2 0x100 EXP SWAP1 DIV PUSH1 0xFF AND SWAP1 POP DUP6 JUMP JUMPDEST PUSH0 DUP1 SLOAD PUSH2 0x90B SWAP1 PUSH2 0x21C6 JUMP JUMPDEST DUP1 PUSH1 0x1F ADD PUSH1 0x20 DUP1 SWAP2 DIV MUL PUSH1 0x20 ADD PUSH1 0x40 MLOAD SWAP1 DUP2 ADD PUSH1 0x40 MSTORE DUP1 SWAP3 SWAP2 SWAP1 DUP2 DUP2 MSTORE PUSH1 0x20 ADD DUP3 DUP1 SLOAD PUSH2 0x937 SWAP1 PUSH2 0x21C6 JUMP JUMPDEST DUP1 ISZERO PUSH2 0x982 JUMPI DUP1 PUSH1 0x1F LT PUSH2 0x959 JUMPI PUSH2 0x100 DUP1 DUP4 SLOAD DIV MUL DUP4 MSTORE SWAP2 PUSH1 0x20 ADD SWAP2 PUSH2 0x982 JUMP JUMPDEST DUP3 ADD SWAP2 SWAP1 PUSH0 MSTORE PUSH1 0x20 PUSH0 KECCAK256 SWAP1 JUMPDEST DUP2 SLOAD DUP2 MSTORE SWAP1 PUSH1 0x1 ADD SWAP1 PUSH1 0x20 ADD DUP1 DUP4 GT PUSH2 0x965 JUMPI DUP3 SWAP1 SUB PUSH1 0x1F AND DUP3 ADD SWAP2 JUMPDEST POP POP POP POP POP DUP2 JUMP JUMPDEST PUSH0 PUSH2 0x996 CALLER DUP5 DUP5 PUSH2 0x157D JUMP JUMPDEST PUSH1 0x1 SWAP1 POP SWAP3 SWAP2 POP POP JUMP JUMPDEST DUP1 PUSH1 0x5 DUP1 SLOAD SWAP1 POP DUP2 LT PUSH2 0x9E8 JUMPI PUSH1 0x40 MLOAD PUSH32 0x8C379A000000000000000000000000000000000000000000000000000000000 DUP2 MSTORE PUSH1 0x4 ADD PUSH2 0x9DF SWAP1 PUSH2 0x1F4E JUMP JUMPDEST PUSH1 0x40 MLOAD DUP1 SWAP2 SUB SWAP1 REVERT JUMPDEST PUSH0 PUSH1 0x5 DUP4 DUP2 SLOAD DUP2 LT PUSH2 0x9FD JUMPI PUSH2 0x9FC PUSH2 0x1F6C JUMP JUMPDEST JUMPDEST SWAP1 PUSH0 MSTORE PUSH1 0x20 PUSH0 KECCAK256 SWAP1 PUSH1 0x5 MUL ADD SWAP1 POP DUP1 PUSH1 0x3 ADD SLOAD TIMESTAMP LT ISZERO PUSH2 0xA52 JUMPI PUSH1 0x40 MLOAD PUSH32 0x8C379A000000000000000000000000000000000000000000000000000000000 DUP2 MSTORE PUSH1 0x4 ADD PUSH2 0xA49 SWAP1 PUSH2 0x2240 JUMP JUMPDEST PUSH1 0x40 MLOAD DUP1 SWAP2 SUB SWAP1 REVERT JUMPDEST DUP1 PUSH1 0x4 ADD PUSH0 SWAP1 SLOAD SWAP1 PUSH2 0x100 EXP SWAP1 DIV PUSH1 0xFF AND ISZERO PUSH2 0xAA3 JUMPI PUSH1 0x40 MLOAD PUSH32 0x8C379A000000000000000000000000000000000000000000000000000000000 DUP2 MSTORE PUSH1 0x4 ADD PUSH2 0xA9A SWAP1 PUSH2 0x204B JUMP JUMPDEST PUSH1 0x40 MLOAD DUP1 SWAP2 SUB SWAP1 REVERT JUMPDEST PUSH1 0x64 PUSH1 0x14 PUSH10 0xD3C21BCECCEDA1000000 PUSH2 0xABC SWAP2 SWAP1 PUSH2 0x225E JUMP JUMPDEST PUSH2 0xAC6 SWAP2 SWAP1 PUSH2 0x22CC JUMP JUMPDEST DUP2 PUSH1 0x2 ADD SLOAD GT PUSH2 0xB0B JUMPI PUSH1 0x40 MLOAD PUSH32 0x8C379A000000000000000000000000000000000000000000000000000000000 DUP2 MSTORE PUSH1 0x4 ADD PUSH2 0xB02 SWAP1 PUSH2 0x2346 JUMP JUMPDEST PUSH1 0x40 MLOAD DUP1 SWAP2 SUB SWAP1 REVERT JUMPDEST PUSH1 0x1 DUP2 PUSH1 0x4 ADD PUSH0 PUSH2 0x100 EXP DUP2 SLOAD DUP2 PUSH1 0xFF MUL NOT AND SWAP1 DUP4 ISZERO ISZERO MUL OR SWAP1 SSTORE POP DUP3 PUSH32 0x712AE1383F79AC853F8D882153778E0260EF8F03B504E2866E0593E04D2B291F PUSH1 0x40 MLOAD PUSH1 0x40 MLOAD DUP1 SWAP2 SUB SWAP1 LOG2 POP POP POP JUMP JUMPDEST PUSH0 PUSH2 0xB65 DUP5 DUP5 DUP5 PUSH2 0x1740 JUMP JUMPDEST PUSH2 0xBF3 DUP5 CALLER DUP5 PUSH1 0x4 PUSH0 DUP10 PUSH20 0xFFFFFFFFFFFFFFFFFFFFFFFFFFFFFFFFFFFFFFFF AND PUSH20 0xFFFFFFFFFFFFFFFFFFFFFFFFFFFFFFFFFFFFFFFF AND DUP2 MSTORE PUSH1 0x20 ADD SWAP1 DUP2 MSTORE PUSH1 0x20 ADD PUSH0 KECCAK256 PUSH0 CALLER PUSH20 0xFFFFFFFFFFFFFFFFFFFFFFFFFFFFFFFFFFFFFFFF AND PUSH20 0xFFFFFFFFFFFFFFFFFFFFFFFFFFFFFFFFFFFFFFFF AND DUP2 MSTORE PUSH1 0x20 ADD SWAP1 DUP2 MSTORE PUSH1 0x20 ADD PUSH0 KECCAK256 SLOAD PUSH2 0xBEE SWAP2 SWAP1 PUSH2 0x2364 JUMP JUMPDEST PUSH2 0x157D JUMP JUMPDEST PUSH1 0x1 SWAP1 POP SWAP4 SWAP3 POP POP POP JUMP JUMPDEST PUSH1 0x2 PUSH0 SWAP1 SLOAD SWAP1 PUSH2 0x100 EXP SWAP1 DIV PUSH1 0xFF AND DUP2 JUMP JUMPDEST PUSH1 0x8 PUSH0 SWAP1 SLOAD SWAP1 PUSH2 0x100 EXP SWAP1 DIV PUSH20 0xFFFFFFFFFFFFFFFFFFFFFFFFFFFFFFFFFFFFFFFF AND PUSH20 0xFFFFFFFFFFFFFFFFFFFFFFFFFFFFFFFFFFFFFFFF AND CALLER PUSH20 0xFFFFFFFFFFFFFFFFFFFFFFFFFFFFFFFFFFFFFFFF AND EQ PUSH2 0xC9F JUMPI PUSH1 0x40 MLOAD PUSH32 0x8C379A000000000000000000000000000000000000000000000000000000000 DUP2 MSTORE PUSH1 0x4 ADD PUSH2 0xC96 SWAP1 PUSH2 0x23E1 JUMP JUMPDEST PUSH1 0x40 MLOAD DUP1 SWAP2 SUB SWAP1 REVERT JUMPDEST PUSH3 0x15180 DUP2 LT ISZERO PUSH2 0xCE5 JUMPI PUSH1 0x40 MLOAD PUSH32 0x8C379A000000000000000000000000000000000000000000000000000000000 DUP2 MSTORE PUSH1 0x4 ADD PUSH2 0xCDC SWAP1 PUSH2 0x2449 JUMP JUMPDEST PUSH1 0x40 MLOAD DUP1 SWAP2 SUB SWAP1 REVERT JUMPDEST PUSH0 PUSH1 0x5 DUP1 SLOAD SWAP1 POP SWAP1 POP PUSH0 DUP3 TIMESTAMP PUSH2 0xCFB SWAP2 SWAP1 PUSH2 0x2166 JUMP JUMPDEST SWAP1 POP PUSH1 0x5 PUSH1 0x40 MLOAD DUP1 PUSH1 0xA0 ADD PUSH1 0x40 MSTORE DUP1 DUP5 DUP2 MSTORE PUSH1 0x20 ADD DUP7 DUP2 MSTORE PUSH1 0x20 ADD PUSH0 DUP2 MSTORE PUSH1 0x20 ADD DUP4 DUP2 MSTORE PUSH1 0x20 ADD PUSH0 ISZERO ISZERO DUP2 MSTORE POP SWAP1 DUP1 PUSH1 0x1 DUP2 SLOAD ADD DUP1 DUP3 SSTORE DUP1 SWAP2 POP POP PUSH1 0x1 SWAP1 SUB SWAP1 PUSH0 MSTORE PUSH1 0x20 PUSH0 KECCAK256 SWAP1 PUSH1 0x5 MUL ADD PUSH0 SWAP1 SWAP2 SWAP1 SWAP2 SWAP1 SWAP2 POP PUSH0 DUP3 ADD MLOAD DUP2 PUSH0 ADD SSTORE PUSH1 0x20 DUP3 ADD MLOAD DUP2 PUSH1 0x1 ADD SWAP1 DUP2 PUSH2 0xD6B SWAP2 SWAP1 PUSH2 0x2604 JUMP JUMPDEST POP PUSH1 0x40 DUP3 ADD MLOAD DUP2 PUSH1 0x2 ADD SSTORE PUSH1 0x60 DUP3 ADD MLOAD DUP2 PUSH1 0x3 ADD SSTORE PUSH1 0x80 DUP3 ADD MLOAD DUP2 PUSH1 0x4 ADD PUSH0 PUSH2 0x100 EXP DUP2 SLOAD DUP2 PUSH1 0xFF MUL NOT AND SWAP1 DUP4 ISZERO ISZERO MUL OR SWAP1 SSTORE POP POP POP PUSH1 0x9 PUSH0 DUP2 SLOAD DUP1 SWAP3 SWAP2 SWAP1 PUSH2 0xDB3 SWAP1 PUSH2 0x26D3 JUMP JUMPDEST SWAP2 SWAP1 POP SSTORE POP DUP2 PUSH32 0xF5DC0DA9AFA6D080780A49FD8C680F03D2DDF3C067CD6D0C85360C096644D2D3 DUP6 DUP6 PUSH1 0x40 MLOAD PUSH2 0xDEA SWAP3 SWAP2 SWAP1 PUSH2 0x271A JUMP JUMPDEST PUSH1 0x40 MLOAD DUP1 SWAP2 SUB SWAP1 LOG2 POP POP POP POP JUMP JUMPDEST PUSH0 PUSH1 0x60 PUSH0 DUP1 PUSH0 DUP6 PUSH1 0x5 DUP1 SLOAD SWAP1 POP DUP2 LT PUSH2 0xE46 JUMPI PUSH1 0x40 MLOAD PUSH32 0x8C379A000000000000000000000000000000000000000000000000000000000 DUP2 MSTORE PUSH1 0x4 ADD PUSH2 0xE3D SWAP1 PUSH2 0x1F4E JUMP JUMPDEST PUSH1 0x40 MLOAD DUP1 SWAP2 SUB SWAP1 REVERT JUMPDEST PUSH0 PUSH1 0x5 DUP9 DUP2 SLOAD DUP2 LT PUSH2 0xE5B JUMPI PUSH2 0xE5A PUSH2 0x1F6C JUMP JUMPDEST JUMPDEST SWAP1 PUSH0 MSTORE PUSH1 0x20 PUSH0 KECCAK256 SWAP1 PUSH1 0x5 MUL ADD SWAP1 POP DUP1 PUSH0 ADD SLOAD DUP2 PUSH1 0x1 ADD DUP3 PUSH1 0x2 ADD SLOAD DUP4 PUSH1 0x3 ADD SLOAD DUP5 PUSH1 0x4 ADD PUSH0 SWAP1 SLOAD SWAP1 PUSH2 0x100 EXP SWAP1 DIV PUSH1 0xFF AND DUP4 DUP1 SLOAD PUSH2 0xE98 SWAP1 PUSH2 0x21C6 JUMP JUMPDEST DUP1 PUSH1 0x1F ADD PUSH1 0x20 DUP1 SWAP2 DIV MUL PUSH1 0x20 ADD PUSH1 0x40 MLOAD SWAP1 DUP2 ADD PUSH1 0x40 MSTORE DUP1 SWAP3 SWAP2 SWAP1 DUP2 DUP2 MSTORE PUSH1 0x20 ADD DUP3 DUP1 SLOAD PUSH2 0xEC4 SWAP1 PUSH2 0x21C6 JUMP JUMPDEST DUP1 ISZERO PUSH2 0xF0F JUMPI DUP1 PUSH1 0x1F LT PUSH2 0xEE6 JUMPI PUSH2 0x100 DUP1 DUP4 SLOAD DIV MUL DUP4 MSTORE SWAP2 PUSH1 0x20 ADD SWAP2 PUSH2 0xF0F JUMP JUMPDEST DUP3 ADD SWAP2 SWAP1 PUSH0 MSTORE PUSH1 0x20 PUSH0 KECCAK256 SWAP1 JUMPDEST DUP2 SLOAD DUP2 MSTORE SWAP1 PUSH1 0x1 ADD SWAP1 PUSH1 0x20 ADD DUP1 DUP4 GT PUSH2 0xEF2 JUMPI DUP3 SWAP1 SUB PUSH1 0x1F AND DUP3 ADD SWAP2 JUMPDEST POP POP POP POP POP SWAP4 POP SWAP7 POP SWAP7 POP SWAP7 POP SWAP7 POP SWAP7 POP POP POP SWAP2 SWAP4 SWAP6 SWAP1 SWAP3 SWAP5 POP JUMP JUMPDEST PUSH1 0x8 PUSH0 SWAP1 SLOAD SWAP1 PUSH2 0x100 EXP SWAP1 DIV PUSH20 0xFFFFFFFFFFFFFFFFFFFFFFFFFFFFFFFFFFFFFFFF AND PUSH20 0xFFFFFFFFFFFFFFFFFFFFFFFFFFFFFFFFFFFFFFFF AND CALLER PUSH20 0xFFFFFFFFFFFFFFFFFFFFFFFFFFFFFFFFFFFFFFFF AND EQ PUSH2 0xFBA JUMPI PUSH1 0x40 MLOAD PUSH32 0x8C379A000000000000000000000000000000000000000000000000000000000 DUP2 MSTORE PUSH1 0x4 ADD PUSH2 0xFB1 SWAP1 PUSH2 0x23E1 JUMP JUMPDEST PUSH1 0x40 MLOAD DUP1 SWAP2 SUB SWAP1 REVERT JUMPDEST PUSH0 PUSH20 0xFFFFFFFFFFFFFFFFFFFFFFFFFFFFFFFFFFFFFFFF AND DUP3 PUSH20 0xFFFFFFFFFFFFFFFFFFFFFFFFFFFFFFFFFFFFFFFF AND SUB PUSH2 0x1028 JUMPI PUSH1 0x40 MLOAD PUSH32 0x8C379A000000000000000000000000000000000000000000000000000000000 DUP2 MSTORE PUSH1 0x4 ADD PUSH2 0x101F SWAP1 PUSH2 0x2792 JUMP JUMPDEST PUSH1 0x40 MLOAD DUP1 SWAP2 SUB SWAP1 REVERT JUMPDEST DUP1 PUSH1 0x3 PUSH0 DUP5 PUSH20 0xFFFFFFFFFFFFFFFFFFFFFFFFFFFFFFFFFFFFFFFF AND PUSH20 0xFFFFFFFFFFFFFFFFFFFFFFFFFFFFFFFFFFFFFFFF AND DUP2 MSTORE PUSH1 0x20 ADD SWAP1 DUP2 MSTORE PUSH1 0x20 ADD PUSH0 KECCAK256 PUSH0 DUP3 DUP3 SLOAD PUSH2 0x1074 SWAP2 SWAP1 PUSH2 0x2166 JUMP JUMPDEST SWAP3 POP POP DUP2 SWAP1 SSTORE POP DUP2 PUSH20 0xFFFFFFFFFFFFFFFFFFFFFFFFFFFFFFFFFFFFFFFF AND PUSH0 PUSH20 0xFFFFFFFFFFFFFFFFFFFFFFFFFFFFFFFFFFFFFFFF AND PUSH32 0xDDF252AD1BE2C89B69C2B068FC378DAA952BA7F163C4A11628F55A4DF523B3EF DUP4 PUSH1 0x40 MLOAD PUSH2 0x10D8 SWAP2 SWAP1 PUSH2 0x1E50 JUMP JUMPDEST PUSH1 0x40 MLOAD DUP1 SWAP2 SUB SWAP1 LOG3 POP POP JUMP JUMPDEST DUP1 PUSH1 0x3 PUSH0 CALLER PUSH20 0xFFFFFFFFFFFFFFFFFFFFFFFFFFFFFFFFFFFFFFFF AND PUSH20 0xFFFFFFFFFFFFFFFFFFFFFFFFFFFFFFFFFFFFFFFF AND DUP2 MSTORE PUSH1 0x20 ADD SWAP1 DUP2 MSTORE PUSH1 0x20 ADD PUSH0 KECCAK256 SLOAD LT ISZERO PUSH2 0x1164 JUMPI PUSH1 0x40 MLOAD PUSH32 0x8C379A000000000000000000000000000000000000000000000000000000000 DUP2 MSTORE PUSH1 0x4 ADD PUSH2 0x115B SWAP1 PUSH2 0x27FA JUMP JUMPDEST PUSH1 0x40 MLOAD DUP1 SWAP2 SUB SWAP1 REVERT JUMPDEST DUP1 PUSH1 0x3 PUSH0 CALLER PUSH20 0xFFFFFFFFFFFFFFFFFFFFFFFFFFFFFFFFFFFFFFFF AND PUSH20 0xFFFFFFFFFFFFFFFFFFFFFFFFFFFFFFFFFFFFFFFF AND DUP2 MSTORE PUSH1 0x20 ADD SWAP1 DUP2 MSTORE PUSH1 0x20 ADD PUSH0 KECCAK256 PUSH0 DUP3 DUP3 SLOAD PUSH2 0x11B0 SWAP2 SWAP1 PUSH2 0x2364 JUMP JUMPDEST SWAP3 POP POP DUP2 SWAP1 SSTORE POP PUSH0 PUSH20 0xFFFFFFFFFFFFFFFFFFFFFFFFFFFFFFFFFFFFFFFF AND CALLER PUSH20 0xFFFFFFFFFFFFFFFFFFFFFFFFFFFFFFFFFFFFFFFF AND PUSH32 0xDDF252AD1BE2C89B69C2B068FC378DAA952BA7F163C4A11628F55A4DF523B3EF DUP4 PUSH1 0x40 MLOAD PUSH2 0x1214 SWAP2 SWAP1 PUSH2 0x1E50 JUMP JUMPDEST PUSH1 0x40 MLOAD DUP1 SWAP2 SUB SWAP1 LOG3 POP JUMP JUMPDEST PUSH1 0x7 PUSH1 0x20 MSTORE DUP2 PUSH0 MSTORE PUSH1 0x40 PUSH0 KECCAK256 PUSH1 0x20 MSTORE DUP1 PUSH0 MSTORE PUSH1 0x40 PUSH0 KECCAK256 PUSH0 SWAP2 POP SWAP2 POP SWAP1 SLOAD SWAP1 PUSH2 0x100 EXP SWAP1 DIV PUSH1 0xFF AND DUP2 JUMP JUMPDEST PUSH0 PUSH1 0x3 PUSH0 DUP4 PUSH20 0xFFFFFFFFFFFFFFFFFFFFFFFFFFFFFFFFFFFFFFFF AND PUSH20 0xFFFFFFFFFFFFFFFFFFFFFFFFFFFFFFFFFFFFFFFF AND DUP2 MSTORE PUSH1 0x20 ADD SWAP1 DUP2 MSTORE PUSH1 0x20 ADD PUSH0 KECCAK256 SLOAD SWAP1 POP SWAP2 SWAP1 POP JUMP JUMPDEST PUSH1 0x8 PUSH0 SWAP1 SLOAD SWAP1 PUSH2 0x100 EXP SWAP1 DIV PUSH20 0xFFFFFFFFFFFFFFFFFFFFFFFFFFFFFFFFFFFFFFFF AND DUP2 JUMP JUMPDEST PUSH10 0xD3C21BCECCEDA1000000 DUP2 JUMP JUMPDEST PUSH3 0x15180 DUP2 JUMP JUMPDEST PUSH1 0x1 DUP1 SLOAD PUSH2 0x12D6 SWAP1 PUSH2 0x21C6 JUMP JUMPDEST DUP1 PUSH1 0x1F ADD PUSH1 0x20 DUP1 SWAP2 DIV MUL PUSH1 0x20 ADD PUSH1 0x40 MLOAD SWAP1 DUP2 ADD PUSH1 0x40 MSTORE DUP1 SWAP3 SWAP2 SWAP1 DUP2 DUP2 MSTORE PUSH1 0x20 ADD DUP3 DUP1 SLOAD PUSH2 0x1302 SWAP1 PUSH2 0x21C6 JUMP JUMPDEST DUP1 ISZERO PUSH2 0x134D JUMPI DUP1 PUSH1 0x1F LT PUSH2 0x1324 JUMPI PUSH2 0x100 DUP1 DUP4 SLOAD DIV MUL DUP4 MSTORE SWAP2 PUSH1 0x20 ADD SWAP2 PUSH2 0x134D JUMP JUMPDEST DUP3 ADD SWAP2 SWAP1 PUSH0 MSTORE PUSH1 0x20 PUSH0 KECCAK256 SWAP1 JUMPDEST DUP2 SLOAD DUP2 MSTORE SWAP1 PUSH1 0x1 ADD SWAP1 PUSH1 0x20 ADD DUP1 DUP4 GT PUSH2 0x1330 JUMPI DUP3 SWAP1 SUB PUSH1 0x1F AND DUP3 ADD SWAP2 JUMPDEST POP POP POP POP POP DUP2 JUMP JUMPDEST PUSH8 0x8AC7230489E80000 DUP2 JUMP JUMPDEST PUSH1 0x6 PUSH1 0x20 MSTORE DUP1 PUSH0 MSTORE PUSH1 0x40 PUSH0 KECCAK256 PUSH0 SWAP2 POP SWAP1 POP DUP1 PUSH0 ADD SLOAD SWAP1 DUP1 PUSH1 0x1 ADD PUSH0 SWAP1 SLOAD SWAP1 PUSH2 0x100 EXP SWAP1 DIV PUSH1 0xFF AND SWAP1 DUP1 PUSH1 0x2 ADD SLOAD SWAP1 POP DUP4 JUMP JUMPDEST PUSH1 0x9 SLOAD DUP2 JUMP JUMPDEST PUSH0 PUSH2 0x13A5 CALLER DUP5 DUP5 PUSH2 0x1740 JUMP JUMPDEST PUSH1 0x1 SWAP1 POP SWAP3 SWAP2 POP POP JUMP JUMPDEST PUSH0 PUSH1 0x5 DUP1 SLOAD SWAP1 POP SWAP1 POP SWAP1 JUMP JUMPDEST PUSH0 PUSH1 0x4 PUSH0 DUP5 PUSH20 0xFFFFFFFFFFFFFFFFFFFFFFFFFFFFFFFFFFFFFFFF AND PUSH20 0xFFFFFFFFFFFFFFFFFFFFFFFFFFFFFFFFFFFFFFFF AND DUP2 MSTORE PUSH1 0x20 ADD SWAP1 DUP2 MSTORE PUSH1 0x20 ADD PUSH0 KECCAK256 PUSH0 DUP4 PUSH20 0xFFFFFFFFFFFFFFFFFFFFFFFFFFFFFFFFFFFFFFFF AND PUSH20 0xFFFFFFFFFFFFFFFFFFFFFFFFFFFFFFFFFFFFFFFF AND DUP2 MSTORE PUSH1 0x20 ADD SWAP1 DUP2 MSTORE PUSH1 0x20 ADD PUSH0 KECCAK256 SLOAD SWAP1 POP SWAP3 SWAP2 POP POP JUMP JUMPDEST PUSH1 0x8 PUSH0 SWAP1 SLOAD SWAP1 PUSH2 0x100 EXP SWAP1 DIV PUSH20 0xFFFFFFFFFFFFFFFFFFFFFFFFFFFFFFFFFFFFFFFF AND PUSH20 0xFFFFFFFFFFFFFFFFFFFFFFFFFFFFFFFFFFFFFFFF AND CALLER PUSH20 0xFFFFFFFFFFFFFFFFFFFFFFFFFFFFFFFFFFFFFFFF AND EQ PUSH2 0x14CC JUMPI PUSH1 0x40 MLOAD PUSH32 0x8C379A000000000000000000000000000000000000000000000000000000000 DUP2 MSTORE PUSH1 0x4 ADD PUSH2 0x14C3 SWAP1 PUSH2 0x23E1 JUMP JUMPDEST PUSH1 0x40 MLOAD DUP1 SWAP2 SUB SWAP1 REVERT JUMPDEST PUSH0 PUSH20 0xFFFFFFFFFFFFFFFFFFFFFFFFFFFFFFFFFFFFFFFF AND DUP2 PUSH20 0xFFFFFFFFFFFFFFFFFFFFFFFFFFFFFFFFFFFFFFFF AND SUB PUSH2 0x153A JUMPI PUSH1 0x40 MLOAD PUSH32 0x8C379A000000000000000000000000000000000000000000000000000000000 DUP2 MSTORE PUSH1 0x4 ADD PUSH2 0x1531 SWAP1 PUSH2 0x2862 JUMP JUMPDEST PUSH1 0x40 MLOAD DUP1 SWAP2 SUB SWAP1 REVERT JUMPDEST DUP1 PUSH1 0x8 PUSH0 PUSH2 0x100 EXP DUP2 SLOAD DUP2 PUSH20 0xFFFFFFFFFFFFFFFFFFFFFFFFFFFFFFFFFFFFFFFF MUL NOT AND SWAP1 DUP4 PUSH20 0xFFFFFFFFFFFFFFFFFFFFFFFFFFFFFFFFFFFFFFFF AND MUL OR SWAP1 SSTORE POP POP JUMP JUMPDEST PUSH0 PUSH20 0xFFFFFFFFFFFFFFFFFFFFFFFFFFFFFFFFFFFFFFFF AND DUP4 PUSH20 0xFFFFFFFFFFFFFFFFFFFFFFFFFFFFFFFFFFFFFFFF AND SUB PUSH2 0x15EB JUMPI PUSH1 0x40 MLOAD PUSH32 0x8C379A000000000000000000000000000000000000000000000000000000000 DUP2 MSTORE PUSH1 0x4 ADD PUSH2 0x15E2 SWAP1 PUSH2 0x28CA JUMP JUMPDEST PUSH1 0x40 MLOAD DUP1 SWAP2 SUB SWAP1 REVERT JUMPDEST PUSH0 PUSH20 0xFFFFFFFFFFFFFFFFFFFFFFFFFFFFFFFFFFFFFFFF AND DUP3 PUSH20 0xFFFFFFFFFFFFFFFFFFFFFFFFFFFFFFFFFFFFFFFF AND SUB PUSH2 0x1659 JUMPI PUSH1 0x40 MLOAD PUSH32 0x8C379A000000000000000000000000000000000000000000000000000000000 DUP2 MSTORE PUSH1 0x4 ADD PUSH2 0x1650 SWAP1 PUSH2 0x2932 JUMP JUMPDEST PUSH1 0x40 MLOAD DUP1 SWAP2 SUB SWAP1 REVERT JUMPDEST DUP1 PUSH1 0x4 PUSH0 DUP6 PUSH20 0xFFFFFFFFFFFFFFFFFFFFFFFFFFFFFFFFFFFFFFFF AND PUSH20 0xFFFFFFFFFFFFFFFFFFFFFFFFFFFFFFFFFFFFFFFF AND DUP2 MSTORE PUSH1 0x20 ADD SWAP1 DUP2 MSTORE PUSH1 0x20 ADD PUSH0 KECCAK256 PUSH0 DUP5 PUSH20 0xFFFFFFFFFFFFFFFFFFFFFFFFFFFFFFFFFFFFFFFF AND PUSH20 0xFFFFFFFFFFFFFFFFFFFFFFFFFFFFFFFFFFFFFFFF AND DUP2 MSTORE PUSH1 0x20 ADD SWAP1 DUP2 MSTORE PUSH1 0x20 ADD PUSH0 KECCAK256 DUP2 SWAP1 SSTORE POP DUP2 PUSH20 0xFFFFFFFFFFFFFFFFFFFFFFFFFFFFFFFFFFFFFFFF AND DUP4 PUSH20 0xFFFFFFFFFFFFFFFFFFFFFFFFFFFFFFFFFFFFFFFF AND PUSH32 0x8C5BE1E5EBEC7D5BD14F71427D1E84F3DD0314C0F7B2291E5B200AC8C7C3B925 DUP4 PUSH1 0x40 MLOAD PUSH2 0x1733 SWAP2 SWAP1 PUSH2 0x1E50 JUMP JUMPDEST PUSH1 0x40 MLOAD DUP1 SWAP2 SUB SWAP1 LOG3 POP POP POP JUMP JUMPDEST PUSH0 PUSH20 0xFFFFFFFFFFFFFFFFFFFFFFFFFFFFFFFFFFFFFFFF AND DUP4 PUSH20 0xFFFFFFFFFFFFFFFFFFFFFFFFFFFFFFFFFFFFFFFF AND SUB PUSH2 0x17AE JUMPI PUSH1 0x40 MLOAD PUSH32 0x8C379A000000000000000000000000000000000000000000000000000000000 DUP2 MSTORE PUSH1 0x4 ADD PUSH2 0x17A5 SWAP1 PUSH2 0x299A JUMP JUMPDEST PUSH1 0x40 MLOAD DUP1 SWAP2 SUB SWAP1 REVERT JUMPDEST PUSH0 PUSH20 0xFFFFFFFFFFFFFFFFFFFFFFFFFFFFFFFFFFFFFFFF AND DUP3 PUSH20 0xFFFFFFFFFFFFFFFFFFFFFFFFFFFFFFFFFFFFFFFF AND SUB PUSH2 0x181C JUMPI PUSH1 0x40 MLOAD PUSH32 0x8C379A000000000000000000000000000000000000000000000000000000000 DUP2 MSTORE PUSH1 0x4 ADD PUSH2 0x1813 SWAP1 PUSH2 0x2A02 JUMP JUMPDEST PUSH1 0x40 MLOAD DUP1 SWAP2 SUB SWAP1 REVERT JUMPDEST DUP1 PUSH1 0x3 PUSH0 DUP6 PUSH20 0xFFFFFFFFFFFFFFFFFFFFFFFFFFFFFFFFFFFFFFFF AND PUSH20 0xFFFFFFFFFFFFFFFFFFFFFFFFFFFFFFFFFFFFFFFF AND DUP2 MSTORE PUSH1 0x20 ADD SWAP1 DUP2 MSTORE PUSH1 0x20 ADD PUSH0 KECCAK256 SLOAD LT ISZERO PUSH2 0x189C JUMPI PUSH1 0x40 MLOAD PUSH32 0x8C379A000000000000000000000000000000000000000000000000000000000 DUP2 MSTORE PUSH1 0x4 ADD PUSH2 0x1893 SWAP1 PUSH2 0x27FA JUMP JUMPDEST PUSH1 0x40 MLOAD DUP1 SWAP2 SUB SWAP1 REVERT JUMPDEST DUP1 PUSH1 0x3 PUSH0 DUP6 PUSH20 0xFFFFFFFFFFFFFFFFFFFFFFFFFFFFFFFFFFFFFFFF AND PUSH20 0xFFFFFFFFFFFFFFFFFFFFFFFFFFFFFFFFFFFFFFFF AND DUP2 MSTORE PUSH1 0x20 ADD SWAP1 DUP2 MSTORE PUSH1 0x20 ADD PUSH0 KECCAK256 PUSH0 DUP3 DUP3 SLOAD PUSH2 0x18E8 SWAP2 SWAP1 PUSH2 0x2364 JUMP JUMPDEST SWAP3 POP POP DUP2 SWAP1 SSTORE POP DUP1 PUSH1 0x3 PUSH0 DUP5 PUSH20 0xFFFFFFFFFFFFFFFFFFFFFFFFFFFFFFFFFFFFFFFF AND PUSH20 0xFFFFFFFFFFFFFFFFFFFFFFFFFFFFFFFFFFFFFFFF AND DUP2 MSTORE PUSH1 0x20 ADD SWAP1 DUP2 MSTORE PUSH1 0x20 ADD PUSH0 KECCAK256 PUSH0 DUP3 DUP3 SLOAD PUSH2 0x193B SWAP2 SWAP1 PUSH2 0x2166 JUMP JUMPDEST SWAP3 POP POP DUP2 SWAP1 SSTORE POP DUP2 PUSH20 0xFFFFFFFFFFFFFFFFFFFFFFFFFFFFFFFFFFFFFFFF AND DUP4 PUSH20 0xFFFFFFFFFFFFFFFFFFFFFFFFFFFFFFFFFFFFFFFF AND PUSH32 0xDDF252AD1BE2C89B69C2B068FC378DAA952BA7F163C4A11628F55A4DF523B3EF DUP4 PUSH1 0x40 MLOAD PUSH2 0x199F SWAP2 SWAP1 PUSH2 0x1E50 JUMP JUMPDEST PUSH1 0x40 MLOAD DUP1 SWAP2 SUB SWAP1 LOG3 POP POP POP JUMP JUMPDEST PUSH0 PUSH1 0x40 MLOAD SWAP1 POP SWAP1 JUMP JUMPDEST PUSH0 DUP1 REVERT JUMPDEST PUSH0 DUP1 REVERT JUMPDEST PUSH0 DUP2 SWAP1 POP SWAP2 SWAP1 POP JUMP JUMPDEST PUSH2 0x19CF DUP2 PUSH2 0x19BD JUMP JUMPDEST DUP2 EQ PUSH2 0x19D9 JUMPI PUSH0 DUP1 REVERT JUMPDEST POP JUMP JUMPDEST PUSH0 DUP2 CALLDATALOAD SWAP1 POP PUSH2 0x19EA DUP2 PUSH2 0x19C6 JUMP JUMPDEST SWAP3 SWAP2 POP POP JUMP JUMPDEST PUSH0 PUSH1 0x20 DUP3 DUP5 SUB SLT ISZERO PUSH2 0x1A05 JUMPI PUSH2 0x1A04 PUSH2 0x19B5 JUMP JUMPDEST JUMPDEST PUSH0 PUSH2 0x1A12 DUP5 DUP3 DUP6 ADD PUSH2 0x19DC JUMP JUMPDEST SWAP2 POP POP SWAP3 SWAP2 POP POP JUMP JUMPDEST PUSH2 0x1A24 DUP2 PUSH2 0x19BD JUMP JUMPDEST DUP3 MSTORE POP POP JUMP JUMPDEST PUSH0 DUP2 MLOAD SWAP1 POP SWAP2 SWAP1 POP JUMP JUMPDEST PUSH0 DUP3 DUP3 MSTORE PUSH1 0x20 DUP3 ADD SWAP1 POP SWAP3 SWAP2 POP POP JUMP JUMPDEST DUP3 DUP2 DUP4 MCOPY PUSH0 DUP4 DUP4 ADD MSTORE POP POP POP JUMP JUMPDEST PUSH0 PUSH1 0x1F NOT PUSH1 0x1F DUP4 ADD AND SWAP1 POP SWAP2 SWAP1 POP JUMP JUMPDEST PUSH0 PUSH2 0x1A6C DUP3 PUSH2 0x1A2A JUMP JUMPDEST PUSH2 0x1A76 DUP2 DUP6 PUSH2 0x1A34 JUMP JUMPDEST SWAP4 POP PUSH2 0x1A86 DUP2 DUP6 PUSH1 0x20 DUP7 ADD PUSH2 0x1A44 JUMP JUMPDEST PUSH2 0x1A8F DUP2 PUSH2 0x1A52 JUMP JUMPDEST DUP5 ADD SWAP2 POP POP SWAP3 SWAP2 POP POP JUMP JUMPDEST PUSH0 DUP2 ISZERO ISZERO SWAP1 POP SWAP2 SWAP1 POP JUMP JUMPDEST PUSH2 0x1AAE DUP2 PUSH2 0x1A9A JUMP JUMPDEST DUP3 MSTORE POP POP JUMP JUMPDEST PUSH0 PUSH1 0xA0 DUP3 ADD SWAP1 POP PUSH2 0x1AC7 PUSH0 DUP4 ADD DUP9 PUSH2 0x1A1B JUMP JUMPDEST DUP2 DUP2 SUB PUSH1 0x20 DUP4 ADD MSTORE PUSH2 0x1AD9 DUP2 DUP8 PUSH2 0x1A62 JUMP JUMPDEST SWAP1 POP PUSH2 0x1AE8 PUSH1 0x40 DUP4 ADD DUP7 PUSH2 0x1A1B JUMP JUMPDEST PUSH2 0x1AF5 PUSH1 0x60 DUP4 ADD DUP6 PUSH2 0x1A1B JUMP JUMPDEST PUSH2 0x1B02 PUSH1 0x80 DUP4 ADD DUP5 PUSH2 0x1AA5 JUMP JUMPDEST SWAP7 SWAP6 POP POP POP POP POP POP JUMP JUMPDEST PUSH0 PUSH1 0x20 DUP3 ADD SWAP1 POP DUP2 DUP2 SUB PUSH0 DUP4 ADD MSTORE PUSH2 0x1B24 DUP2 DUP5 PUSH2 0x1A62 JUMP JUMPDEST SWAP1 POP SWAP3 SWAP2 POP POP JUMP JUMPDEST PUSH0 PUSH20 0xFFFFFFFFFFFFFFFFFFFFFFFFFFFFFFFFFFFFFFFF DUP3 AND SWAP1 POP SWAP2 SWAP1 POP JUMP JUMPDEST PUSH0 PUSH2 0x1B55 DUP3 PUSH2 0x1B2C JUMP JUMPDEST SWAP1 POP SWAP2 SWAP1 POP JUMP JUMPDEST PUSH2 0x1B65 DUP2 PUSH2 0x1B4B JUMP JUMPDEST DUP2 EQ PUSH2 0x1B6F JUMPI PUSH0 DUP1 REVERT JUMPDEST POP JUMP JUMPDEST PUSH0 DUP2 CALLDATALOAD SWAP1 POP PUSH2 0x1B80 DUP2 PUSH2 0x1B5C JUMP JUMPDEST SWAP3 SWAP2 POP POP JUMP JUMPDEST PUSH0 DUP1 PUSH1 0x40 DUP4 DUP6 SUB SLT ISZERO PUSH2 0x1B9C JUMPI PUSH2 0x1B9B PUSH2 0x19B5 JUMP JUMPDEST JUMPDEST PUSH0 PUSH2 0x1BA9 DUP6 DUP3 DUP7 ADD PUSH2 0x1B72 JUMP JUMPDEST SWAP3 POP POP PUSH1 0x20 PUSH2 0x1BBA DUP6 DUP3 DUP7 ADD PUSH2 0x19DC JUMP JUMPDEST SWAP2 POP POP SWAP3 POP SWAP3 SWAP1 POP JUMP JUMPDEST PUSH0 PUSH1 0x20 DUP3 ADD SWAP1 POP PUSH2 0x1BD7 PUSH0 DUP4 ADD DUP5 PUSH2 0x1AA5 JUMP JUMPDEST SWAP3 SWAP2 POP POP JUMP JUMPDEST PUSH0 DUP1 PUSH0 PUSH1 0x60 DUP5 DUP7 SUB SLT ISZERO PUSH2 0x1BF4 JUMPI PUSH2 0x1BF3 PUSH2 0x19B5 JUMP JUMPDEST JUMPDEST PUSH0 PUSH2 0x1C01 DUP7 DUP3 DUP8 ADD PUSH2 0x1B72 JUMP JUMPDEST SWAP4 POP POP PUSH1 0x20 PUSH2 0x1C12 DUP7 DUP3 DUP8 ADD PUSH2 0x1B72 JUMP JUMPDEST SWAP3 POP POP PUSH1 0x40 PUSH2 0x1C23 DUP7 DUP3 DUP8 ADD PUSH2 0x19DC JUMP JUMPDEST SWAP2 POP POP SWAP3 POP SWAP3 POP SWAP3 JUMP JUMPDEST PUSH0 PUSH1 0xFF DUP3 AND SWAP1 POP SWAP2 SWAP1 POP JUMP JUMPDEST PUSH2 0x1C42 DUP2 PUSH2 0x1C2D JUMP JUMPDEST DUP3 MSTORE POP POP JUMP JUMPDEST PUSH0 PUSH1 0x20 DUP3 ADD SWAP1 POP PUSH2 0x1C5B PUSH0 DUP4 ADD DUP5 PUSH2 0x1C39 JUMP JUMPDEST SWAP3 SWAP2 POP POP JUMP JUMPDEST PUSH0 DUP1 REVERT JUMPDEST PUSH0 DUP1 REVERT JUMPDEST PUSH32 0x4E487B7100000000000000000000000000000000000000000000000000000000 PUSH0 MSTORE PUSH1 0x41 PUSH1 0x4 MSTORE PUSH1 0x24 PUSH0 REVERT JUMPDEST PUSH2 0x1C9F DUP3 PUSH2 0x1A52 JUMP JUMPDEST DUP2 ADD DUP2 DUP2 LT PUSH8 0xFFFFFFFFFFFFFFFF DUP3 GT OR ISZERO PUSH2 0x1CBE JUMPI PUSH2 0x1CBD PUSH2 0x1C69 JUMP JUMPDEST JUMPDEST DUP1 PUSH1 0x40 MSTORE POP POP POP JUMP JUMPDEST PUSH0 PUSH2 0x1CD0 PUSH2 0x19AC JUMP JUMPDEST SWAP1 POP PUSH2 0x1CDC DUP3 DUP3 PUSH2 0x1C96 JUMP JUMPDEST SWAP2 SWAP1 POP JUMP JUMPDEST PUSH0 PUSH8 0xFFFFFFFFFFFFFFFF DUP3 GT ISZERO PUSH2 0x1CFB JUMPI PUSH2 0x1CFA PUSH2 0x1C69 JUMP JUMPDEST JUMPDEST PUSH2 0x1D04 DUP3 PUSH2 0x1A52 JUMP JUMPDEST SWAP1 POP PUSH1 0x20 DUP2 ADD SWAP1 POP SWAP2 SWAP1 POP JUMP JUMPDEST DUP3 DUP2 DUP4 CALLDATACOPY PUSH0 DUP4 DUP4 ADD MSTORE POP POP POP JUMP JUMPDEST PUSH0 PUSH2 0x1D31 PUSH2 0x1D2C DUP5 PUSH2 0x1CE1 JUMP JUMPDEST PUSH2 0x1CC7 JUMP JUMPDEST SWAP1 POP DUP3 DUP2 MSTORE PUSH1 0x20 DUP2 ADD DUP5 DUP5 DUP5 ADD GT ISZERO PUSH2 0x1D4D JUMPI PUSH2 0x1D4C PUSH2 0x1C65 JUMP JUMPDEST JUMPDEST PUSH2 0x1D58 DUP5 DUP3 DUP6 PUSH2 0x1D11 JUMP JUMPDEST POP SWAP4 SWAP3 POP POP POP JUMP JUMPDEST PUSH0 DUP3 PUSH1 0x1F DUP4 ADD SLT PUSH2 0x1D74 JUMPI PUSH2 0x1D73 PUSH2 0x1C61 JUMP JUMPDEST JUMPDEST DUP2 CALLDATALOAD PUSH2 0x1D84 DUP5 DUP3 PUSH1 0x20 DUP7 ADD PUSH2 0x1D1F JUMP JUMPDEST SWAP2 POP POP SWAP3 SWAP2 POP POP JUMP JUMPDEST PUSH0 DUP1 PUSH1 0x40 DUP4 DUP6 SUB SLT ISZERO PUSH2 0x1DA3 JUMPI PUSH2 0x1DA2 PUSH2 0x19B5 JUMP JUMPDEST JUMPDEST PUSH0 DUP4 ADD CALLDATALOAD PUSH8 0xFFFFFFFFFFFFFFFF DUP2 GT ISZERO PUSH2 0x1DC0 JUMPI PUSH2 0x1DBF PUSH2 0x19B9 JUMP JUMPDEST JUMPDEST PUSH2 0x1DCC DUP6 DUP3 DUP7 ADD PUSH2 0x1D60 JUMP JUMPDEST SWAP3 POP POP PUSH1 0x20 PUSH2 0x1DDD DUP6 DUP3 DUP7 ADD PUSH2 0x19DC JUMP JUMPDEST SWAP2 POP POP SWAP3 POP SWAP3 SWAP1 POP JUMP JUMPDEST PUSH0 DUP1 PUSH1 0x40 DUP4 DUP6 SUB SLT ISZERO PUSH2 0x1DFD JUMPI PUSH2 0x1DFC PUSH2 0x19B5 JUMP JUMPDEST JUMPDEST PUSH0 PUSH2 0x1E0A DUP6 DUP3 DUP7 ADD PUSH2 0x19DC JUMP JUMPDEST SWAP3 POP POP PUSH1 0x20 PUSH2 0x1E1B DUP6 DUP3 DUP7 ADD PUSH2 0x1B72 JUMP JUMPDEST SWAP2 POP POP SWAP3 POP SWAP3 SWAP1 POP JUMP JUMPDEST PUSH0 PUSH1 0x20 DUP3 DUP5 SUB SLT ISZERO PUSH2 0x1E3A JUMPI PUSH2 0x1E39 PUSH2 0x19B5 JUMP JUMPDEST JUMPDEST PUSH0 PUSH2 0x1E47 DUP5 DUP3 DUP6 ADD PUSH2 0x1B72 JUMP JUMPDEST SWAP2 POP POP SWAP3 SWAP2 POP POP JUMP JUMPDEST PUSH0 PUSH1 0x20 DUP3 ADD SWAP1 POP PUSH2 0x1E63 PUSH0 DUP4 ADD DUP5 PUSH2 0x1A1B JUMP JUMPDEST SWAP3 SWAP2 POP POP JUMP JUMPDEST PUSH2 0x1E72 DUP2 PUSH2 0x1B4B JUMP JUMPDEST DUP3 MSTORE POP POP JUMP JUMPDEST PUSH0 PUSH1 0x20 DUP3 ADD SWAP1 POP PUSH2 0x1E8B PUSH0 DUP4 ADD DUP5 PUSH2 0x1E69 JUMP JUMPDEST SWAP3 SWAP2 POP POP JUMP JUMPDEST PUSH0 PUSH1 0x60 DUP3 ADD SWAP1 POP PUSH2 0x1EA4 PUSH0 DUP4 ADD DUP7 PUSH2 0x1A1B JUMP JUMPDEST PUSH2 0x1EB1 PUSH1 0x20 DUP4 ADD DUP6 PUSH2 0x1AA5 JUMP JUMPDEST PUSH2 0x1EBE PUSH1 0x40 DUP4 ADD DUP5 PUSH2 0x1A1B JUMP JUMPDEST SWAP5 SWAP4 POP POP POP POP JUMP JUMPDEST PUSH0 DUP1 PUSH1 0x40 DUP4 DUP6 SUB SLT ISZERO PUSH2 0x1EDC JUMPI PUSH2 0x1EDB PUSH2 0x19B5 JUMP JUMPDEST JUMPDEST PUSH0 PUSH2 0x1EE9 DUP6 DUP3 DUP7 ADD PUSH2 0x1B72 JUMP JUMPDEST SWAP3 POP POP PUSH1 0x20 PUSH2 0x1EFA DUP6 DUP3 DUP7 ADD PUSH2 0x1B72 JUMP JUMPDEST SWAP2 POP POP SWAP3 POP SWAP3 SWAP1 POP JUMP JUMPDEST PUSH32 0x50726F706F73616C20646F65736E277420657869737400000000000000000000 PUSH0 DUP3 ADD MSTORE POP JUMP JUMPDEST PUSH0 PUSH2 0x1F38 PUSH1 0x16 DUP4 PUSH2 0x1A34 JUMP JUMPDEST SWAP2 POP PUSH2 0x1F43 DUP3 PUSH2 0x1F04 JUMP JUMPDEST PUSH1 0x20 DUP3 ADD SWAP1 POP SWAP2 SWAP1 POP JUMP JUMPDEST PUSH0 PUSH1 0x20 DUP3 ADD SWAP1 POP DUP2 DUP2 SUB PUSH0 DUP4 ADD MSTORE PUSH2 0x1F65 DUP2 PUSH2 0x1F2C JUMP JUMPDEST SWAP1 POP SWAP2 SWAP1 POP JUMP JUMPDEST PUSH32 0x4E487B7100000000000000000000000000000000000000000000000000000000 PUSH0 MSTORE PUSH1 0x32 PUSH1 0x4 MSTORE PUSH1 0x24 PUSH0 REVERT JUMPDEST PUSH32 0x50726F706F73616C206578706972656400000000000000000000000000000000 PUSH0 DUP3 ADD MSTORE POP JUMP JUMPDEST PUSH0 PUSH2 0x1FCD PUSH1 0x10 DUP4 PUSH2 0x1A34 JUMP JUMPDEST SWAP2 POP PUSH2 0x1FD8 DUP3 PUSH2 0x1F99 JUMP JUMPDEST PUSH1 0x20 DUP3 ADD SWAP1 POP SWAP2 SWAP1 POP JUMP JUMPDEST PUSH0 PUSH1 0x20 DUP3 ADD SWAP1 POP DUP2 DUP2 SUB PUSH0 DUP4 ADD MSTORE PUSH2 0x1FFA DUP2 PUSH2 0x1FC1 JUMP JUMPDEST SWAP1 POP SWAP2 SWAP1 POP JUMP JUMPDEST PUSH32 0x50726F706F73616C20616C726561647920657865637574656400000000000000 PUSH0 DUP3 ADD MSTORE POP JUMP JUMPDEST PUSH0 PUSH2 0x2035 PUSH1 0x19 DUP4 PUSH2 0x1A34 JUMP JUMPDEST SWAP2 POP PUSH2 0x2040 DUP3 PUSH2 0x2001 JUMP JUMPDEST PUSH1 0x20 DUP3 ADD SWAP1 POP SWAP2 SWAP1 POP JUMP JUMPDEST PUSH0 PUSH1 0x20 DUP3 ADD SWAP1 POP DUP2 DUP2 SUB PUSH0 DUP4 ADD MSTORE PUSH2 0x2062 DUP2 PUSH2 0x2029 JUMP JUMPDEST SWAP1 POP SWAP2 SWAP1 POP JUMP JUMPDEST PUSH32 0x496E73756666696369656E7420746F6B656E7320746F20766F74650000000000 PUSH0 DUP3 ADD MSTORE POP JUMP JUMPDEST PUSH0 PUSH2 0x209D PUSH1 0x1B DUP4 PUSH2 0x1A34 JUMP JUMPDEST SWAP2 POP PUSH2 0x20A8 DUP3 PUSH2 0x2069 JUMP JUMPDEST PUSH1 0x20 DUP3 ADD SWAP1 POP SWAP2 SWAP1 POP JUMP JUMPDEST PUSH0 PUSH1 0x20 DUP3 ADD SWAP1 POP DUP2 DUP2 SUB PUSH0 DUP4 ADD MSTORE PUSH2 0x20CA DUP2 PUSH2 0x2091 JUMP JUMPDEST SWAP1 POP SWAP2 SWAP1 POP JUMP JUMPDEST PUSH32 0x416C726561647920766F74656400000000000000000000000000000000000000 PUSH0 DUP3 ADD MSTORE POP JUMP JUMPDEST PUSH0 PUSH2 0x2105 PUSH1 0xD DUP4 PUSH2 0x1A34 JUMP JUMPDEST SWAP2 POP PUSH2 0x2110 DUP3 PUSH2 0x20D1 JUMP JUMPDEST PUSH1 0x20 DUP3 ADD SWAP1 POP SWAP2 SWAP1 POP JUMP JUMPDEST PUSH0 PUSH1 0x20 DUP3 ADD SWAP1 POP DUP2 DUP2 SUB PUSH0 DUP4 ADD MSTORE PUSH2 0x2132 DUP2 PUSH2 0x20F9 JUMP JUMPDEST SWAP1 POP SWAP2 SWAP1 POP JUMP JUMPDEST PUSH32 0x4E487B7100000000000000000000000000000000000000000000000000000000 PUSH0 MSTORE PUSH1 0x11 PUSH1 0x4 MSTORE PUSH1 0x24 PUSH0 REVERT JUMPDEST PUSH0 PUSH2 0x2170 DUP3 PUSH2 0x19BD JUMP JUMPDEST SWAP2 POP PUSH2 0x217B DUP4 PUSH2 0x19BD JUMP JUMPDEST SWAP3 POP DUP3 DUP3 ADD SWAP1 POP DUP1 DUP3 GT ISZERO PUSH2 0x2193 JUMPI PUSH2 0x2192 PUSH2 0x2139 JUMP JUMPDEST JUMPDEST SWAP3 SWAP2 POP POP JUMP JUMPDEST PUSH32 0x4E487B7100000000000000000000000000000000000000000000000000000000 PUSH0 MSTORE PUSH1 0x22 PUSH1 0x4 MSTORE PUSH1 0x24 PUSH0 REVERT JUMPDEST PUSH0 PUSH1 0x2 DUP3 DIV SWAP1 POP PUSH1 0x1 DUP3 AND DUP1 PUSH2 0x21DD JUMPI PUSH1 0x7F DUP3 AND SWAP2 POP JUMPDEST PUSH1 0x20 DUP3 LT DUP2 SUB PUSH2 0x21F0 JUMPI PUSH2 0x21EF PUSH2 0x2199 JUMP JUMPDEST JUMPDEST POP SWAP2 SWAP1 POP JUMP JUMPDEST PUSH32 0x566F74696E67207374696C6C206F6E676F696E67000000000000000000000000 PUSH0 DUP3 ADD MSTORE POP JUMP JUMPDEST PUSH0 PUSH2 0x222A PUSH1 0x14 DUP4 PUSH2 0x1A34 JUMP JUMPDEST SWAP2 POP PUSH2 0x2235 DUP3 PUSH2 0x21F6 JUMP JUMPDEST PUSH1 0x20 DUP3 ADD SWAP1 POP SWAP2 SWAP1 POP JUMP JUMPDEST PUSH0 PUSH1 0x20 DUP3 ADD SWAP1 POP DUP2 DUP2 SUB PUSH0 DUP4 ADD MSTORE PUSH2 0x2257 DUP2 PUSH2 0x221E JUMP JUMPDEST SWAP1 POP SWAP2 SWAP1 POP JUMP JUMPDEST PUSH0 PUSH2 0x2268 DUP3 PUSH2 0x19BD JUMP JUMPDEST SWAP2 POP PUSH2 0x2273 DUP4 PUSH2 0x19BD JUMP JUMPDEST SWAP3 POP DUP3 DUP3 MUL PUSH2 0x2281 DUP2 PUSH2 0x19BD JUMP JUMPDEST SWAP2 POP DUP3 DUP3 DIV DUP5 EQ DUP4 ISZERO OR PUSH2 0x2298 JUMPI PUSH2 0x2297 PUSH2 0x2139 JUMP JUMPDEST JUMPDEST POP SWAP3 SWAP2 POP POP JUMP JUMPDEST PUSH32 0x4E487B7100000000000000000000000000000000000000000000000000000000 PUSH0 MSTORE PUSH1 0x12 PUSH1 0x4 MSTORE PUSH1 0x24 PUSH0 REVERT JUMPDEST PUSH0 PUSH2 0x22D6 DUP3 PUSH2 0x19BD JUMP JUMPDEST SWAP2 POP PUSH2 0x22E1 DUP4 PUSH2 0x19BD JUMP JUMPDEST SWAP3 POP DUP3 PUSH2 0x22F1 JUMPI PUSH2 0x22F0 PUSH2 0x229F JUMP JUMPDEST JUMPDEST DUP3 DUP3 DIV SWAP1 POP SWAP3 SWAP2 POP POP JUMP JUMPDEST PUSH32 0x4E6F7420656E6F75676820766F74657300000000000000000000000000000000 PUSH0 DUP3 ADD MSTORE POP JUMP JUMPDEST PUSH0 PUSH2 0x2330 PUSH1 0x10 DUP4 PUSH2 0x1A34 JUMP JUMPDEST SWAP2 POP PUSH2 0x233B DUP3 PUSH2 0x22FC JUMP JUMPDEST PUSH1 0x20 DUP3 ADD SWAP1 POP SWAP2 SWAP1 POP JUMP JUMPDEST PUSH0 PUSH1 0x20 DUP3 ADD SWAP1 POP DUP2 DUP2 SUB PUSH0 DUP4 ADD MSTORE PUSH2 0x235D DUP2 PUSH2 0x2324 JUMP JUMPDEST SWAP1 POP SWAP2 SWAP1 POP JUMP JUMPDEST PUSH0 PUSH2 0x236E DUP3 PUSH2 0x19BD JUMP JUMPDEST SWAP2 POP PUSH2 0x2379 DUP4 PUSH2 0x19BD JUMP JUMPDEST SWAP3 POP DUP3 DUP3 SUB SWAP1 POP DUP2 DUP2 GT ISZERO PUSH2 0x2391 JUMPI PUSH2 0x2390 PUSH2 0x2139 JUMP JUMPDEST JUMPDEST SWAP3 SWAP2 POP POP JUMP JUMPDEST PUSH32 0x4E6F74206F776E65720000000000000000000000000000000000000000000000 PUSH0 DUP3 ADD MSTORE POP JUMP JUMPDEST PUSH0 PUSH2 0x23CB PUSH1 0x9 DUP4 PUSH2 0x1A34 JUMP JUMPDEST SWAP2 POP PUSH2 0x23D6 DUP3 PUSH2 0x2397 JUMP JUMPDEST PUSH1 0x20 DUP3 ADD SWAP1 POP SWAP2 SWAP1 POP JUMP JUMPDEST PUSH0 PUSH1 0x20 DUP3 ADD SWAP1 POP DUP2 DUP2 SUB PUSH0 DUP4 ADD MSTORE PUSH2 0x23F8 DUP2 PUSH2 0x23BF JUMP JUMPDEST SWAP1 POP SWAP2 SWAP1 POP JUMP JUMPDEST PUSH32 0x4475726174696F6E20746F6F2073686F72740000000000000000000000000000 PUSH0 DUP3 ADD MSTORE POP JUMP JUMPDEST PUSH0 PUSH2 0x2433 PUSH1 0x12 DUP4 PUSH2 0x1A34 JUMP JUMPDEST SWAP2 POP PUSH2 0x243E DUP3 PUSH2 0x23FF JUMP JUMPDEST PUSH1 0x20 DUP3 ADD SWAP1 POP SWAP2 SWAP1 POP JUMP JUMPDEST PUSH0 PUSH1 0x20 DUP3 ADD SWAP1 POP DUP2 DUP2 SUB PUSH0 DUP4 ADD MSTORE PUSH2 0x2460 DUP2 PUSH2 0x2427 JUMP JUMPDEST SWAP1 POP SWAP2 SWAP1 POP JUMP JUMPDEST PUSH0 DUP2 SWAP1 POP DUP2 PUSH0 MSTORE PUSH1 0x20 PUSH0 KECCAK256 SWAP1 POP SWAP2 SWAP1 POP JUMP JUMPDEST PUSH0 PUSH1 0x20 PUSH1 0x1F DUP4 ADD DIV SWAP1 POP SWAP2 SWAP1 POP JUMP JUMPDEST PUSH0 DUP3 DUP3 SHL SWAP1 POP SWAP3 SWAP2 POP POP JUMP JUMPDEST PUSH0 PUSH1 0x8 DUP4 MUL PUSH2 0x24C3 PUSH32 0xFFFFFFFFFFFFFFFFFFFFFFFFFFFFFFFFFFFFFFFFFFFFFFFFFFFFFFFFFFFFFFFF DUP3 PUSH2 0x2488 JUMP JUMPDEST PUSH2 0x24CD DUP7 DUP4 PUSH2 0x2488 JUMP JUMPDEST SWAP6 POP DUP1 NOT DUP5 AND SWAP4 POP DUP1 DUP7 AND DUP5 OR SWAP3 POP POP POP SWAP4 SWAP3 POP POP POP JUMP JUMPDEST PUSH0 DUP2 SWAP1 POP SWAP2 SWAP1 POP JUMP JUMPDEST PUSH0 PUSH2 0x2508 PUSH2 0x2503 PUSH2 0x24FE DUP5 PUSH2 0x19BD JUMP JUMPDEST PUSH2 0x24E5 JUMP JUMPDEST PUSH2 0x19BD JUMP JUMPDEST SWAP1 POP SWAP2 SWAP1 POP JUMP JUMPDEST PUSH0 DUP2 SWAP1 POP SWAP2 SWAP1 POP JUMP JUMPDEST PUSH2 0x2521 DUP4 PUSH2 0x24EE JUMP JUMPDEST PUSH2 0x2535 PUSH2 0x252D DUP3 PUSH2 0x250F JUMP JUMPDEST DUP5 DUP5 SLOAD PUSH2 0x2494 JUMP JUMPDEST DUP3 SSTORE POP POP POP POP JUMP JUMPDEST PUSH0 SWAP1 JUMP JUMPDEST PUSH2 0x2549 PUSH2 0x253D JUMP JUMPDEST PUSH2 0x2554 DUP2 DUP5 DUP5 PUSH2 0x2518 JUMP JUMPDEST POP POP POP JUMP JUMPDEST JUMPDEST DUP2 DUP2 LT ISZERO PUSH2 0x2577 JUMPI PUSH2 0x256C PUSH0 DUP3 PUSH2 0x2541 JUMP JUMPDEST PUSH1 0x1 DUP2 ADD SWAP1 POP PUSH2 0x255A JUMP JUMPDEST POP POP JUMP JUMPDEST PUSH1 0x1F DUP3 GT ISZERO PUSH2 0x25BC JUMPI PUSH2 0x258D DUP2 PUSH2 0x2467 JUMP JUMPDEST PUSH2 0x2596 DUP5 PUSH2 0x2479 JUMP JUMPDEST DUP2 ADD PUSH1 0x20 DUP6 LT ISZERO PUSH2 0x25A5 JUMPI DUP2 SWAP1 POP JUMPDEST PUSH2 0x25B9 PUSH2 0x25B1 DUP6 PUSH2 0x2479 JUMP JUMPDEST DUP4 ADD DUP3 PUSH2 0x2559 JUMP JUMPDEST POP POP JUMPDEST POP POP POP JUMP JUMPDEST PUSH0 DUP3 DUP3 SHR SWAP1 POP SWAP3 SWAP2 POP POP JUMP JUMPDEST PUSH0 PUSH2 0x25DC PUSH0 NOT DUP5 PUSH1 0x8 MUL PUSH2 0x25C1 JUMP JUMPDEST NOT DUP1 DUP4 AND SWAP2 POP POP SWAP3 SWAP2 POP POP JUMP JUMPDEST PUSH0 PUSH2 0x25F4 DUP4 DUP4 PUSH2 0x25CD JUMP JUMPDEST SWAP2 POP DUP3 PUSH1 0x2 MUL DUP3 OR SWAP1 POP SWAP3 SWAP2 POP POP JUMP JUMPDEST PUSH2 0x260D DUP3 PUSH2 0x1A2A JUMP JUMPDEST PUSH8 0xFFFFFFFFFFFFFFFF DUP2 GT ISZERO PUSH2 0x2626 JUMPI PUSH2 0x2625 PUSH2 0x1C69 JUMP JUMPDEST JUMPDEST PUSH2 0x2630 DUP3 SLOAD PUSH2 0x21C6 JUMP JUMPDEST PUSH2 0x263B DUP3 DUP3 DUP6 PUSH2 0x257B JUMP JUMPDEST PUSH0 PUSH1 0x20 SWAP1 POP PUSH1 0x1F DUP4 GT PUSH1 0x1 DUP2 EQ PUSH2 0x266C JUMPI PUSH0 DUP5 ISZERO PUSH2 0x265A JUMPI DUP3 DUP8 ADD MLOAD SWAP1 POP JUMPDEST PUSH2 0x2664 DUP6 DUP3 PUSH2 0x25E9 JUMP JUMPDEST DUP7 SSTORE POP PUSH2 0x26CB JUMP JUMPDEST PUSH1 0x1F NOT DUP5 AND PUSH2 0x267A DUP7 PUSH2 0x2467 JUMP JUMPDEST PUSH0 JUMPDEST DUP3 DUP2 LT ISZERO PUSH2 0x26A1 JUMPI DUP5 DUP10 ADD MLOAD DUP3 SSTORE PUSH1 0x1 DUP3 ADD SWAP2 POP PUSH1 0x20 DUP6 ADD SWAP5 POP PUSH1 0x20 DUP2 ADD SWAP1 POP PUSH2 0x267C JUMP JUMPDEST DUP7 DUP4 LT ISZERO PUSH2 0x26BE JUMPI DUP5 DUP10 ADD MLOAD PUSH2 0x26BA PUSH1 0x1F DUP10 AND DUP3 PUSH2 0x25CD JUMP JUMPDEST DUP4 SSTORE POP JUMPDEST PUSH1 0x1 PUSH1 0x2 DUP9 MUL ADD DUP9 SSTORE POP POP POP JUMPDEST POP POP POP POP POP POP JUMP JUMPDEST PUSH0 PUSH2 0x26DD DUP3 PUSH2 0x19BD JUMP JUMPDEST SWAP2 POP PUSH32 0xFFFFFFFFFFFFFFFFFFFFFFFFFFFFFFFFFFFFFFFFFFFFFFFFFFFFFFFFFFFFFFFF DUP3 SUB PUSH2 0x270F JUMPI PUSH2 0x270E PUSH2 0x2139 JUMP JUMPDEST JUMPDEST PUSH1 0x1 DUP3 ADD SWAP1 POP SWAP2 SWAP1 POP JUMP JUMPDEST PUSH0 PUSH1 0x40 DUP3 ADD SWAP1 POP DUP2 DUP2 SUB PUSH0 DUP4 ADD MSTORE PUSH2 0x2732 DUP2 DUP6 PUSH2 0x1A62 JUMP JUMPDEST SWAP1 POP PUSH2 0x2741 PUSH1 0x20 DUP4 ADD DUP5 PUSH2 0x1A1B JUMP JUMPDEST SWAP4 SWAP3 POP POP POP JUMP JUMPDEST PUSH32 0x4D696E7420746F207A65726F2061646472657373000000000000000000000000 PUSH0 DUP3 ADD MSTORE POP JUMP JUMPDEST PUSH0 PUSH2 0x277C PUSH1 0x14 DUP4 PUSH2 0x1A34 JUMP JUMPDEST SWAP2 POP PUSH2 0x2787 DUP3 PUSH2 0x2748 JUMP JUMPDEST PUSH1 0x20 DUP3 ADD SWAP1 POP SWAP2 SWAP1 POP JUMP JUMPDEST PUSH0 PUSH1 0x20 DUP3 ADD SWAP1 POP DUP2 DUP2 SUB PUSH0 DUP4 ADD MSTORE PUSH2 0x27A9 DUP2 PUSH2 0x2770 JUMP JUMPDEST SWAP1 POP SWAP2 SWAP1 POP JUMP JUMPDEST PUSH32 0x496E73756666696369656E742062616C616E6365000000000000000000000000 PUSH0 DUP3 ADD MSTORE POP JUMP JUMPDEST PUSH0 PUSH2 0x27E4 PUSH1 0x14 DUP4 PUSH2 0x1A34 JUMP JUMPDEST SWAP2 POP PUSH2 0x27EF DUP3 PUSH2 0x27B0 JUMP JUMPDEST PUSH1 0x20 DUP3 ADD SWAP1 POP SWAP2 SWAP1 POP JUMP JUMPDEST PUSH0 PUSH1 0x20 DUP3 ADD SWAP1 POP DUP2 DUP2 SUB PUSH0 DUP4 ADD MSTORE PUSH2 0x2811 DUP2 PUSH2 0x27D8 JUMP JUMPDEST SWAP1 POP SWAP2 SWAP1 POP JUMP JUMPDEST PUSH32 0x4E6577206F776E6572206973207A65726F206164647265737300000000000000 PUSH0 DUP3 ADD MSTORE POP JUMP JUMPDEST PUSH0 PUSH2 0x284C PUSH1 0x19 DUP4 PUSH2 0x1A34 JUMP JUMPDEST SWAP2 POP PUSH2 0x2857 DUP3 PUSH2 0x2818 JUMP JUMPDEST PUSH1 0x20 DUP3 ADD SWAP1 POP SWAP2 SWAP1 POP JUMP JUMPDEST PUSH0 PUSH1 0x20 DUP3 ADD SWAP1 POP DUP2 DUP2 SUB PUSH0 DUP4 ADD MSTORE PUSH2 0x2879 DUP2 PUSH2 0x2840 JUMP JUMPDEST SWAP1 POP SWAP2 SWAP1 POP JUMP JUMPDEST PUSH32 0x417070726F76652066726F6D207A65726F206164647265737300000000000000 PUSH0 DUP3 ADD MSTORE POP JUMP JUMPDEST PUSH0 PUSH2 0x28B4 PUSH1 0x19 DUP4 PUSH2 0x1A34 JUMP JUMPDEST SWAP2 POP PUSH2 0x28BF DUP3 PUSH2 0x2880 JUMP JUMPDEST PUSH1 0x20 DUP3 ADD SWAP1 POP SWAP2 SWAP1 POP JUMP JUMPDEST PUSH0 PUSH1 0x20 DUP3 ADD SWAP1 POP DUP2 DUP2 SUB PUSH0 DUP4 ADD MSTORE PUSH2 0x28E1 DUP2 PUSH2 0x28A8 JUMP JUMPDEST SWAP1 POP SWAP2 SWAP1 POP JUMP JUMPDEST PUSH32 0x417070726F766520746F207A65726F2061646472657373000000000000000000 PUSH0 DUP3 ADD MSTORE POP JUMP JUMPDEST PUSH0 PUSH2 0x291C PUSH1 0x17 DUP4 PUSH2 0x1A34 JUMP JUMPDEST SWAP2 POP PUSH2 0x2927 DUP3 PUSH2 0x28E8 JUMP JUMPDEST PUSH1 0x20 DUP3 ADD SWAP1 POP SWAP2 SWAP1 POP JUMP JUMPDEST PUSH0 PUSH1 0x20 DUP3 ADD SWAP1 POP DUP2 DUP2 SUB PUSH0 DUP4 ADD MSTORE PUSH2 0x2949 DUP2 PUSH2 0x2910 JUMP JUMPDEST SWAP1 POP SWAP2 SWAP1 POP JUMP JUMPDEST PUSH32 0x5472616E736665722066726F6D207A65726F2061646472657373000000000000 PUSH0 DUP3 ADD MSTORE POP JUMP JUMPDEST PUSH0 PUSH2 0x2984 PUSH1 0x1A DUP4 PUSH2 0x1A34 JUMP JUMPDEST SWAP2 POP PUSH2 0x298F DUP3 PUSH2 0x2950 JUMP JUMPDEST PUSH1 0x20 DUP3 ADD SWAP1 POP SWAP2 SWAP1 POP JUMP JUMPDEST PUSH0 PUSH1 0x20 DUP3 ADD SWAP1 POP DUP2 DUP2 SUB PUSH0 DUP4 ADD MSTORE PUSH2 0x29B1 DUP2 PUSH2 0x2978 JUMP JUMPDEST SWAP1 POP SWAP2 SWAP1 POP JUMP JUMPDEST PUSH32 0x5472616E7366657220746F207A65726F20616464726573730000000000000000 PUSH0 DUP3 ADD MSTORE POP JUMP JUMPDEST PUSH0 PUSH2 0x29EC PUSH1 0x18 DUP4 PUSH2 0x1A34 JUMP JUMPDEST SWAP2 POP PUSH2 0x29F7 DUP3 PUSH2 0x29B8 JUMP JUMPDEST PUSH1 0x20 DUP3 ADD SWAP1 POP SWAP2 SWAP1 POP JUMP JUMPDEST PUSH0 PUSH1 0x20 DUP3 ADD SWAP1 POP DUP2 DUP2 SUB PUSH0 DUP4 ADD MSTORE PUSH2 0x2A19 DUP2 PUSH2 0x29E0 JUMP JUMPDEST SWAP1 POP SWAP2 SWAP1 POP JUMP INVALID LOG2 PUSH5 0x6970667358 0x22 SLT KECCAK256 SWAP10 SWAP6 SLOAD CHAINID 0x2E DUP12 TSTORE 0xC5 PUSH11 0xAFA0C526FED5EE3C1CB78 0xBB TLOAD 0xC0 SIGNEXTEND PUSH23 0x2FEC4DA7BB043A64736F6C634300081A00330000000000 "
				},
				"gasEstimates": {
					"creation": {
						"codeDepositCost": "2167600",
						"executionCost": "infinite",
						"totalCost": "infinite"
					},
					"external": {
						"MIN_PROPOSAL_DURATION()": "414",
						"TOTAL_SUPPLY()": "392",
						"VOTE_THRESHOLD()": "458",
						"allowance(address,address)": "infinite",
						"approve(address,uint256)": "infinite",
						"balanceOf(address)": "2852",
						"burn(uint256)": "infinite",
						"createProposal(string,uint256)": "infinite",
						"decimals()": "2489",
						"executeProposal(uint256)": "infinite",
						"getProposalCount()": "2528",
						"getProposalDetails(uint256)": "infinite",
						"hasVoted(uint256,address)": "3204",
						"mint(address,uint256)": "infinite",
						"name()": "infinite",
						"owner()": "2553",
						"proposals(uint256)": "infinite",
						"symbol()": "infinite",
						"totalProposals()": "2469",
						"transfer(address,uint256)": "infinite",
						"transferFrom(address,address,uint256)": "infinite",
						"transferOwnership(address)": "27050",
						"vote(uint256)": "infinite",
						"voters(address)": "infinite"
					},
					"internal": {
						"_approve(address,address,uint256)": "infinite",
						"_transfer(address,address,uint256)": "infinite"
					}
				},
				"methodIdentifiers": {
					"MIN_PROPOSAL_DURATION()": "944ee22d",
					"TOTAL_SUPPLY()": "902d55a5",
					"VOTE_THRESHOLD()": "a0ef4d0e",
					"allowance(address,address)": "dd62ed3e",
					"approve(address,uint256)": "095ea7b3",
					"balanceOf(address)": "70a08231",
					"burn(uint256)": "42966c68",
					"createProposal(string,uint256)": "35facf78",
					"decimals()": "313ce567",
					"executeProposal(uint256)": "0d61b519",
					"getProposalCount()": "c08cc02d",
					"getProposalDetails(uint256)": "3b4d01a7",
					"hasVoted(uint256,address)": "43859632",
					"mint(address,uint256)": "40c10f19",
					"name()": "06fdde03",
					"owner()": "8da5cb5b",
					"proposals(uint256)": "013cf08b",
					"symbol()": "95d89b41",
					"totalProposals()": "a78d80fc",
					"transfer(address,uint256)": "a9059cbb",
					"transferFrom(address,address,uint256)": "23b872dd",
					"transferOwnership(address)": "f2fde38b",
					"vote(uint256)": "0121b93f",
					"voters(address)": "a3ec138d"
				}
			},
			"storageLayout": {
				"storage": [
					{
						"astId": 74,
						"contract": "AdvContract.sol:AdvContract",
						"label": "name",
						"offset": 0,
						"slot": "0",
						"type": "t_string_storage"
					},
					{
						"astId": 77,
						"contract": "AdvContract.sol:AdvContract",
						"label": "symbol",
						"offset": 0,
						"slot": "1",
						"type": "t_string_storage"
					},
					{
						"astId": 80,
						"contract": "AdvContract.sol:AdvContract",
						"label": "decimals",
						"offset": 0,
						"slot": "2",
						"type": "t_uint8"
					},
					{
						"astId": 84,
						"contract": "AdvContract.sol:AdvContract",
						"label": "_balances",
						"offset": 0,
						"slot": "3",
						"type": "t_mapping(t_address,t_uint256)"
					},
					{
						"astId": 90,
						"contract": "AdvContract.sol:AdvContract",
						"label": "_allowances",
						"offset": 0,
						"slot": "4",
						"type": "t_mapping(t_address,t_mapping(t_address,t_uint256))"
					},
					{
						"astId": 94,
						"contract": "AdvContract.sol:AdvContract",
						"label": "proposals",
						"offset": 0,
						"slot": "5",
						"type": "t_array(t_struct(Proposal)13_storage)dyn_storage"
					},
					{
						"astId": 99,
						"contract": "AdvContract.sol:AdvContract",
						"label": "voters",
						"offset": 0,
						"slot": "6",
						"type": "t_mapping(t_address,t_struct(Voter)20_storage)"
					},
					{
						"astId": 105,
						"contract": "AdvContract.sol:AdvContract",
						"label": "hasVoted",
						"offset": 0,
						"slot": "7",
						"type": "t_mapping(t_uint256,t_mapping(t_address,t_bool))"
					},
					{
						"astId": 107,
						"contract": "AdvContract.sol:AdvContract",
						"label": "owner",
						"offset": 0,
						"slot": "8",
						"type": "t_address"
					},
					{
						"astId": 109,
						"contract": "AdvContract.sol:AdvContract",
						"label": "totalProposals",
						"offset": 0,
						"slot": "9",
						"type": "t_uint256"
					}
				],
				"types": {
					"t_address": {
						"encoding": "inplace",
						"label": "address",
						"numberOfBytes": "20"
					},
					"t_array(t_struct(Proposal)13_storage)dyn_storage": {
						"base": "t_struct(Proposal)13_storage",
						"encoding": "dynamic_array",
						"label": "struct AdvContract.Proposal[]",
						"numberOfBytes": "32"
					},
					"t_bool": {
						"encoding": "inplace",
						"label": "bool",
						"numberOfBytes": "1"
					},
					"t_mapping(t_address,t_bool)": {
						"encoding": "mapping",
						"key": "t_address",
						"label": "mapping(address => bool)",
						"numberOfBytes": "32",
						"value": "t_bool"
					},
					"t_mapping(t_address,t_mapping(t_address,t_uint256))": {
						"encoding": "mapping",
						"key": "t_address",
						"label": "mapping(address => mapping(address => uint256))",
						"numberOfBytes": "32",
						"value": "t_mapping(t_address,t_uint256)"
					},
					"t_mapping(t_address,t_struct(Voter)20_storage)": {
						"encoding": "mapping",
						"key": "t_address",
						"label": "mapping(address => struct AdvContract.Voter)",
						"numberOfBytes": "32",
						"value": "t_struct(Voter)20_storage"
					},
					"t_mapping(t_address,t_uint256)": {
						"encoding": "mapping",
						"key": "t_address",
						"label": "mapping(address => uint256)",
						"numberOfBytes": "32",
						"value": "t_uint256"
					},
					"t_mapping(t_uint256,t_mapping(t_address,t_bool))": {
						"encoding": "mapping",
						"key": "t_uint256",
						"label": "mapping(uint256 => mapping(address => bool))",
						"numberOfBytes": "32",
						"value": "t_mapping(t_address,t_bool)"
					},
					"t_string_storage": {
						"encoding": "bytes",
						"label": "string",
						"numberOfBytes": "32"
					},
					"t_struct(Proposal)13_storage": {
						"encoding": "inplace",
						"label": "struct AdvContract.Proposal",
						"members": [
							{
								"astId": 4,
								"contract": "AdvContract.sol:AdvContract",
								"label": "id",
								"offset": 0,
								"slot": "0",
								"type": "t_uint256"
							},
							{
								"astId": 6,
								"contract": "AdvContract.sol:AdvContract",
								"label": "description",
								"offset": 0,
								"slot": "1",
								"type": "t_string_storage"
							},
							{
								"astId": 8,
								"contract": "AdvContract.sol:AdvContract",
								"label": "voteCount",
								"offset": 0,
								"slot": "2",
								"type": "t_uint256"
							},
							{
								"astId": 10,
								"contract": "AdvContract.sol:AdvContract",
								"label": "endTime",
								"offset": 0,
								"slot": "3",
								"type": "t_uint256"
							},
							{
								"astId": 12,
								"contract": "AdvContract.sol:AdvContract",
								"label": "executed",
								"offset": 0,
								"slot": "4",
								"type": "t_bool"
							}
						],
						"numberOfBytes": "160"
					},
					"t_struct(Voter)20_storage": {
						"encoding": "inplace",
						"label": "struct AdvContract.Voter",
						"members": [
							{
								"astId": 15,
								"contract": "AdvContract.sol:AdvContract",
								"label": "weight",
								"offset": 0,
								"slot": "0",
								"type": "t_uint256"
							},
							{
								"astId": 17,
								"contract": "AdvContract.sol:AdvContract",
								"label": "voted",
								"offset": 0,
								"slot": "1",
								"type": "t_bool"
							},
							{
								"astId": 19,
								"contract": "AdvContract.sol:AdvContract",
								"label": "vote",
								"offset": 0,
								"slot": "2",
								"type": "t_uint256"
							}
						],
						"numberOfBytes": "96"
					},
					"t_uint256": {
						"encoding": "inplace",
						"label": "uint256",
						"numberOfBytes": "32"
					},
					"t_uint8": {
						"encoding": "inplace",
						"label": "uint8",
						"numberOfBytes": "1"
					}
				}
			},
			"userdoc": {
				"kind": "user",
				"methods": {},
				"version": 1
			}
		}
	}
}